:020000040000FA
:06000000FCEF25F01200E8
:0600080004EF09F01200F4
:060018000CEF09F01200DC
:021200001200DA
:06120800B2EF16F0120027
:0612180049EF17F012007F
:06122A0001005C4C000015
:08123000000100003C00000079
:08123800D9CFE6FFE1CFD9FF99
:10124000E6526A6A686A9F0E6B6EFB0E696E6D8C61
:101250006D9C6E6A020EE66EE66AE66A710EE66ED6
:101260000F0EE66E7DEC24F0146E050EE15E145058
:10127000DF6ADF50146E156A080E145C000E1558F4
:1012800010E2DF50040DF3CFE9FFF4CFEAFF000EC8
:10129000E926040EEA22EE6AEE6AEE6AEE6ADF2AB8
:1012A000E8D7160E706E68A60CD0030EE66E680EB8
:1012B000E66E0F0EE66E85EC10F0E552E552E55253
:1012C000F2D70101576B5C6B5D6B5E6B6D98040E22
:1012D0004B6F040E4C6F3D6B3C6BE552E552E7CF14
:1012E000D9FF1200D9CFE6FFE1CFD9FFE6520101C5
:1012F0003C5111E105D06D6A696A01013C6B7BD0FC
:101300006D6A696A6DB602D06D86FCD70101010E67
:101310003C6F140E6F6E3C0508E16DBA06D0686A2A
:10132000696A69806988020E3C6F6850040B04E0AA
:101330006950040B01E096D86DB25DD06850010B86
:1013400011E06950010B0EE077DF0101040E3C6FE4
:101350000401200E026F040E036F080E016F006B74
:101360008C0E00136850100B04E06950100B01E064
:101370006AD86850400B10E06950400B0DE098ECC3
:101380001AF0060EE66E680EE66E0F0EE66E85EC3F
:1013900010F0E552E552E5526850200B04E0695028
:1013A000200B01E02DD86850020B06E06950020BBB
:1013B00003E099EC1AF06A6A040E01013C5D01E257
:1013C0001AD069A618D0DF6A040EDF5C14E268A6A2
:1013D0000FD06CCF64F1030EE66E680EE66E0F0E52
:1013E000E66E85EC10F0E552E552E5524ED801D09C
:1013F00002D0DF2AE9D7E552E552E7CFD9FF120044
:1014000070A015D03FC1E9FF40C1EAFFEF5080084E
:101410000DE14BC1E9FF4CC1EAFFEF50840806E142
:101420003FC1E9FF40C1EAFF8C0EEF6E7090050EE0
:10143000E66E680EE66E0F0EE66E85EC10F0E55275
:10144000E552E55212006984040EE66E680EE66EFF
:101450000F0EE66E85EC10F0E552E552E5526D8216
:1014600096EF1AF06D9297EC1AF0699468A40CD07C
:10147000020EE66E680EE66E0F0EE66E85EC10F05C
:10148000E552E552E552F2D71200FD0E0101641556
:101490001FE17E0E6415E8407F0B040DF3CF3FF192
:1014A000F4CF40F1000E3F27040E40233FC141F12D
:1014B00040C142F13FC1E9FF40C1EAFFEF503C0BA0
:1014C000E842E8420D0802E109D801D01ED805D053
:1014D000FD0E6415040801E120D812004BC1E9FF9C
:1014E0004CC1EAFFEF50800B05E04BC1E9FF4CC156
:1014F000EAFFEF6A0101536B546B586B596B576BE2
:10150000F6D89AEC1AF003EF0DF0020E0101545DCB
:1015100002E1D6DB01D04DD81200D9CFE6FFE1CFF2
:10152000D9FFE6524BC1E9FF4CC1EAFFEF50400B37
:1015300001E0010EDF6E080E01013C5D0AE122C4EC
:101540006EFF6E50000803E2100E3C6F02D0040ED6
:101550003C6F540528E14BC1E9FF4CC1EAFF020E84
:10156000E926000EEA22280EEE6E040EED6E1DDB5B
:10157000020E0101535D07E14BC1E9FF4CC1EAFFD7
:10158000840EEF6E0FD0DF5007E14BC1E9FF4CC175
:10159000EAFFC80EEF6E06D04BC1E9FF4CC1EAFF6F
:1015A000880EEF6E01D005D8E552E552E7CFD9FF9E
:1015B0001200D9CFE6FFE1CFD9FF030EE126020EDC
:1015C0000101545D4AE16D50100B47E03FC1E9FF56
:1015D00040C1EAFFEE52EF50146E156A080E14185F
:1015E00001E115503AE13FC1E9FF40C1EAFFEF5088
:1015F0003C0BE842E8420D0830E141C1E9FF42C13D
:10160000EAFFEF50800B29E141C1E9FF42C1EAFF47
:10161000020EE926000EEA22200EEE6E040EED6E9A
:10162000DF6ADF50146E156A080E145C000E155840
:1016300013E2DF50EA6A280FE96E040EEA22EF5047
:10164000E66EDF50EA6A200FE96E040EEA22E552E8
:10165000E750EF6EDF2AE5D731D0546B41C1E9FF87
:1016600042C1EAFFEE52080EEF6E41C1E9FF42C1EE
:10167000EAFF020EE926000EEA22200EEE6E040EAC
:10168000ED6E41C1E9FF42C1EAFF8C0EEF6E4BC126
:10169000E9FF4CC1EAFFEF6A000E4B19146E4CC112
:1016A00015F0010E14C0DBFF020E15C0DBFF010EAA
:1016B000DBCFE9FF020EDBCFEAFFEF6A01015CAF8F
:1016C0000CD05F51601107E005D060C1FAFF010145
:1016D0005F51F96EFADF01015C9F030EE15C02E2EB
:1016E000E16AE552E16EE552E7CFD9FF120004014D
:1016F0002051600BE842E842E842E842E842000933
:1017000001E04CD021510C0A48E00B0A43E00C0ADE
:1017100035E0010A26E00B0A22E0020A20E0030A73
:101720001CE0080A10E0010A0CE00F0A08E0030AB6
:1017300001E033D00101578F080E3C6F2FD0B5D890
:101740002DD04FDB2BD001013D0E556F010E566F92
:101750005781010E586F578F21D0FBD81FD01FD84B
:101760001DD024510101556F566B3E0E5527010EB9
:1017700056235781010E586F578F10D00101578F94
:1017800004012451EA6A3E0FE96E010EEA2222C4E6
:10179000EFFF04D09CEC1AF001D000D01200D9CF9A
:1017A000E6FFE1CFD9FF050EE1260401220510E195
:1017B00020511F0B00090CE10101578F030E04019A
:1017C000215D04E10101010E636F02D00101636B31
:1017D0000401225160E120511F0B02085CE12451F9
:1017E0000F0B000958E00101578F040EDB6A020E4F
:1017F000F36E040EDBCFF4FFF350F45C4CE2000E0A
:10180000DE6E040EDD6E04012451800B01E0010E3A
:10181000166E24510F0BE8241624040DF3CF14F098
:10182000F4CF15F0D9CFE9FFDACFEAFF1450EE2656
:101830001550ED22030E215D07E1DECFE9FFDDCF7C
:10184000EAFF840EEF6E24D024510F0B156A700F3F
:10185000146E0F0E1522020E14C0DBFF030E15C00E
:10186000DBFF020EDBCFE9FF030EDBCFEAFFEE90DA
:10187000ED5224AF07D0DECFE9FFDDCFEAFF400E07
:10188000EF6E06D0DECFE9FFDDCFEAFFC80EEF6EC8
:10189000040EDB2AACD7050EE15C02E2E16AE552F8
:1018A000E16EE552E7CFD9FF1200800E0401205D02
:1018B0004FE10101C00E576F04012351030A2EE0CE
:1018C000010A0EE0030A03E00101576B41D0010158
:1018D000E60E556F460E566F120E586F596B38D084
:1018E0002251F66EF76AD890F636F736A70EF6262E
:1018F000470EF7220900F5CF55F10A00F5CF56F152
:10190000020E0101F76A5525F66E5651F7220900BD
:10191000F5CF58F10A00F5CF59F11AD02251F66EE1
:10192000F76AD890F636F736A90EF626470EF72254
:101930000900F5CF55F10A00F5CF56F155C1F6FF74
:1019400056C1F7FF0800F5500101586F596B00D0E0
:101950001200D9CFE6FFE1CFD9FF020EE126040144
:10196000286B296B20511F0B020A12E0030A0DE0BD
:10197000010A01E034D00101578F040128810101DF
:10198000630502E1040128832AD00101578F27D083
:101990000101578F000EDE6E040EDD6E040124512E
:1019A000800B01E0010E166E24510F0BE824162463
:1019B000040DF3CF14F0F4CF15F0D9CFE9FFDACF4F
:1019C000EAFF1450EE261550ED22DECFE9FFDDCF01
:1019D000EAFFEF50040B02E0010E286F00D0010176
:1019E00057AF07D0280E556F040E566F5781020E61
:1019F000586F020EE15C02E2E16AE552E16EE552E7
:101A0000E7CFD9FF12006D98010157BF4AD05CAFF4
:101A100028D0020E546F4BC1E9FF4CC1EAFFEE52D1
:101A2000EF6A4BC1E9FF4CC1EAFFC80EEF6E41C13E
:101A3000E9FF42C1EAFFEE52080EEF6E41C1E9FF35
:101A400042C1EAFF020EE926000EEA22280EEE6EDF
:101A5000040EED6E41C1E9FF42C1EAFFC80EEF6E10
:101A60001FD041C1E9FF42C1EAFFEE52080EEF6EFE
:101A700041C1E9FF42C1EAFF020EE926000EEA2257
:101A8000200EEE6E040EED6E41C1E9FF42C1EAFF89
:101A90008C0EEF6E4BC1E9FF4CC1EAFF840EEF6E76
:101AA00083D05CBF81D0040120AF56D001015851D2
:101AB0000401265D010159510401275904E226C49D
:101AC00058F127C459F171D80101010E546F41C179
:101AD000E9FF42C1EAFFEE52080EEF6E41C1E9FF95
:101AE00042C1EAFF020EE926000EEA22200EEE6E47
:101AF000040EED6E41C1E9FF42C1EAFF800EEF6EB8
:101B00003FC1E9FF40C1EAFFEE52080EEF6E3FC150
:101B1000E9FF40C1EAFF020EE926000EEA22200E8C
:101B2000EE6E040EED6E3FC1E9FF40C1EAFF800E8C
:101B3000EF6E4BC1E9FF4CC1EAFF020EE926000E31
:101B4000EA22280EEE6E040EED6E4BC1E9FF4CC189
:101B5000EAFFC80EEF6E28D00101020E546F4BC190
:101B6000E9FF4CC1EAFFEE52EF6A4BC1E9FF4CC1FD
:101B7000EAFFC80EEF6E41C1E9FF42C1EAFFEE5233
:101B8000080EEF6E41C1E9FF42C1EAFF020EE926ED
:101B9000000EEA22280EEE6E040EED6E41C1E9FF42
:101BA00042C1EAFFC80EEF6E1200D9CFE6FFE1CFC7
:101BB000D9FF020EE1260101080E585D000E5959A9
:101BC0000EE258C1DEFF59C1DDFF535103E1010EA2
:101BD000536F04D0530502E1020E536F03D0080E79
:101BE000DE6EDD6A4BC1E9FF4CC1EAFFEF924BC1EB
:101BF000E9FF4CC1EAFFEF904BC1E9FF4CC1EAFF9E
:101C0000010EDB50EF124BC1E9FF4CC1EAFFEE526F
:101C1000DFCFEFFF000EDB50585F010EDB50595B4A
:101C2000280E616F040E626F57B121D0D9CFE9FF42
:101C3000DACFEAFFEE50ED1019E055C1F6FF56C1BC
:101C4000F7FF552B000E56230800F550E66E61C1D4
:101C5000E9FF62C1EAFF612B000E6223E552E75003
:101C6000EF6EDF06010E01E2DB06E0D71FD0D9CF11
:101C7000E9FFDACFEAFFEE50ED1018E055C1E9FFB9
:101C800056C1EAFF552B000E5623EF50E66E61C198
:101C9000E9FF62C1EAFF612B000E6223E552E750C3
:101CA000EF6EDF06010E01E2DB06E1D7020EE15C1A
:101CB00002E2E16AE552E16EE552E7CFD9FF120098
:101CC000D9CFE6FFE1CFD9FF020EE1263FC1E9FF00
:101CD00040C1EAFFEE52EFCFDFFFDFCF14F0145028
:101CE00001015D5D000E5E5903E25DC1DFFF09D0B9
:101CF000DF50146E156A14505D5D5D6F15505E59AE
:101D00005E6F010EDB6ADF50F36E010EDBCFF4FF76
:101D1000F350F45C16E2010EDB50EA6A280FE96E1C
:101D2000040EEA22EF50E66E5AC1E9FF5BC1EAFFFA
:101D30005A2B000E5B23E552E750EF6E010EDB2AB3
:101D4000E2D7000ED8805D55000E5E5528E241C1F5
:101D5000E9FF42C1EAFFEE52080EEF6E41C1E9FF12
:101D600042C1EAFF020EE926000EEA22280EEE6EBC
:101D7000040EED6E3FC1E9FF40C1EAFFEF50400B9A
:101D800007E141C1E9FF42C1EAFFC80EEF6E06D08C
:101D900041C1E9FF42C1EAFF880EEF6E18D041C190
:101DA000E9FF42C1EAFF020EE926000EEA22200EF8
:101DB000EE6E040EED6E5F51601107E005D060C15C
:101DC000FAFF01015F51F96EFADF01015C9F020E1B
:101DD000E15C02E2E16AE552E16EE552E7CFD9FF4C
:101DE00012000101578F020EE66EE66AE66A710E76
:101DF000E66E0F0EE66E7DEC24F0146E050EE15ECD
:101E00001450010EE66EE66AE66A3E0EE66E010EBC
:101E1000E66E7DEC24F0146E050EE15E145022C4D3
:101E20003DF10401225104E10101100E3C6F05D087
:101E30000101200E3C6F9DEC1AF01200D9CFE6FF95
:101E4000E1CFD9FF020EE126000EDE6E040EDD6E3C
:101E5000FD0EDB50040DF3CF16F0FE0EDB50080D27
:101E6000F3501624146E156A020E0F0B05E0D8907D
:101E700015321432E806FBE1D89014361536D890A6
:101E800014361536D9CFE9FFDACFEAFF1450EE2623
:101E90001550ED22DECFE9FFDDCFEAFFEF9EFD0E0C
:101EA000DB500FE1FE0EEA6ADB34FE0BEA36E96E28
:101EB000430EE926010EEA22DECFEEFFDDCFEDFF75
:101EC0000ED0FE0EEA6ADB34FE0BEA36E96E4B0EEC
:101ED000E926010EEA22DECFEEFFDDCFEDFFDECFF9
:101EE000E9FFDDCFEAFFEF8C020EE15C02E2E16A7E
:101EF000E552E16EE552E7CFD9FF1200D9CFE6FFF8
:101F0000E1CFD9FF020EE126FE0EDB50156A700FFD
:101F1000146E0F0E152214C0DEFF15C0DDFFFD0E7E
:101F2000DB50E66EDECFE9FFDDCFEAFFE552E7509A
:101F3000EE6EED6AFD0EDBA407D0E66AFE0EDBCF87
:101F4000E6FF7CDFE552E552FD0EDBA208D0010E74
:101F5000E66EFE0EDBCFE6FF71DFE552E552020EC4
:101F6000E15C02E2E16AE552E16EE552E7CFD9FFBA
:101F70001200D9CFE6FFE1CFD9FF020EE126FE0E17
:101F8000DB5020E141C1E9FF42C1EAFFEE52080EF9
:101F9000EF6E41C1E9FF42C1EAFF020EE926000EE1
:101FA000EA22200EEE6E040EED6E41C1E9FF42C141
:101FB000EAFF8C0EEF6E4BC1E9FF4CC1EAFF840EC5
:101FC000EF6E1DD0FD0EDBCFE6FFFE0EDB50E824EA
:101FD000E552E724040DF3CF14F0F4CF15F0000E12
:101FE0001426040E152214C0DEFF15C0DDFF840E7A
:101FF000146EDECFE9FFDDCFEAFF1450EF12020EC0
:10200000E15C02E2E16AE552E16EE552E7CFD9FF19
:102010001200D9CFE6FFE1CFD9FF020EE126FD0E77
:10202000DB500FE0FE0EEA6ADB34FE0BEA36E96EA7
:102030004B0EE926010EEA22EECFDEFFEDCFDDFFEB
:102040000ED0FE0EEA6ADB34FE0BEA36E96E430E72
:10205000E926010EEA22EECFDEFFEDCFDDFFDECF77
:10206000E9FFDDCFEAFFEF7CDECFE9FFDDCFEAFF5E
:10207000020EE926000EEA22FB0EDBCFEEFFFC0E7D
:10208000DBCFEDFFDECFE9FFDDCFEAFFEE52FA0E48
:10209000DBCFEFFF400E146EDECFE9FFDDCFEAFFAE
:1020A0001450EF16880E146EDECFE9FFDDCFEAFF85
:1020B0001450EF12FD0EDB500BE0FE0EEA6ADB342B
:1020C000FE0BEA36E96E4B0EE926010EEA220AD033
:1020D000FE0EEA6ADB34FE0BEA36E96E430EE926B1
:1020E000010EEA22DECF14F0DDCF15F014C0F3FFAD
:1020F00015C0F4FF020EE15C03E200D0E16AE55294
:10210000E16EE552E7CFD9FF1200D9CFE6FFE1CF6C
:10211000D9FF010EF36EFC0EDB5004E0D890F336CD
:10212000E806FCE1F350E81C146EFD0EDBCFE9FF7E
:10213000FE0EDBCFEAFF1450EF16E552E7CFD9FFD2
:0221400012008B
:0E214200DDEC15F0FB0EDBCFF3FFDB06F350F8
:1021500000090AE02BEC16F0FA0E96EC16F0F3E10B
:10216000151CF1E1010E01D0000E0CEF16F0DDECB4
:1021700015F03B0EE12402E3E168E652E16E010E48
:10218000DB6A020EDB6AF90EDBCFF6FFFA0EDBCF5D
:10219000F7FFFB0EDBCFF8FF0800F550DF6EDF50D6
:1021A00002E130EF15F0250EDF5C02E023EF15F0C1
:1021B000030EDB6A040EDB6A050EDB6A060EDB6AC1
:1021C000070EDB6A45EC15F02D0EDF5C0CE02B0EE4
:1021D000DF5C09E0200EDF5C06E0230EDF5C03E03D
:1021E000300EDF5C1AE1DF50300A14E0130A0FE012
:1021F000030A0AE00B0A05E0060AE4E1030EDB80AD
:10220000E1D7030EDB82DED7030EDB84DBD7030EC0
:10221000DB86D8D7030EDB88D5D72A0EDF5C1BE11F
:1022200041EC15F08FEC15F010E0030EDB80086830
:102230000968130EDBCF0DF0140EDBCF0EF0EEECC1
:1022400021F0040E06C0DBFF03D0130E78EC15F06E
:1022500045EC15F00BD0090EDB6AE6EC15F003E057
:102260005AEC16F0FAD7090E78EC15F0030EDBB035
:10227000DB982E0EDF5C1BE145EC15F02A0EDF5CCF
:102280000BE141EC15F08FEC15F003E1130ECAECF5
:1022900015F045EC15F00BD0090EDB6AE6EC15F0F5
:1022A00003E05AEC16F0FAD7090ECAEC15F0680EE6
:1022B000DF5C07E145EC15F0680EDF5C1DE1030E05
:1022C00018D0740EDF5C17E07A0EDF5C14E0480E65
:1022D000DF5C06E0540EDF5C03E05A0EDF5C02E1D7
:1022E000020E07D06C0EDF5C03E06A0EDF5C04E1D7
:1022F000010E1DEC16F0C9DBDF506E0A01E17FD341
:102300001E0A01E192D1200A01E18FD13F0A01E1C9
:1023100049D11A0A01E146D10D0A01E143D1200A4F
:1023200001E140D13A0A01E13DD1200A01E13AD16F
:10233000260A01E135D10D0A01E132D11A0A01E183
:10234000D9D0200A4AE0300A1FE0460A0EE0250AEA
:1023500001E083D3D950F90FE96EFF0EDA20EA6E5F
:10236000010EEE5E000EEE5AEE5A2BEC16F0250E24
:10237000E66E95DB03E1151C01E169D327EC16F04D
:1023800001E26BD3DB2A69D3080EDB6A040EDB5053
:10239000010806E2040EDB04EFEC15F0DB508BDBEA
:1023A000080EDB5009E0030EDB50010B05E172DB88
:1023B00001E04DD3080EDB6A64DBEFCFDFFF9FEC5B
:1023C00016F003E1151C01E142D327EC16F001E3FE
:1023D000DB2A60DB01E141D33AD3070EDB50020870
:1023E0000FE16BEC16F0030E32EC16F00E0EEECF92
:1023F000DBFF0F0EEECFDBFF100EEECFDBFF20D0AA
:10240000F70EDBCF17F0F80EDBCF18F0020E175ED9
:10241000000E185AF70E17C0DBFFF80E18C0DBFFCE
:1024200017C0E9FF18C0EAFF22EC16F0166A0E0E7C
:1024300014C0DBFF0F0E15C0DBFF100E16C0DBFF54
:102440000E0EDBCFE6FF0F0EDBCFE6FF100EDBCF6D
:10245000E6FFA5EC24F0E552E552E552130E07C065
:10246000DBFF140E08C0DBFF060EDB5005E0130E89
:1024700066EC16F001E26ADB8AEC16F002E2130E5B
:1024800037DB4DEC16F006E0040E66EC16F002E2C7
:10249000050E2EDB030EDBB005D0FCDA01E0D7D24F
:1024A000080EDB6A090EDB6A0E0EDBCFF6FF0F0E9D
:1024B000DBCFF7FF100EDBCFF8FF0800F550DF6E23
:1024C000DF5014E090EC16F011E29FEC16F003E1FF
:1024D000151C01E1BCD2BBDB01E3DB2A090EDB2AC0
:1024E000D9500E0FE96E000ECBDBE7D7D3DA01E14E
:1024F000B4D2ADD2C6DA110EEECFDBFF120EEDCFA5
:10250000DBFF110EDBCFE6FF120EDBCFE6FF97EC11
:1025100024F0E552E552130EF3CFDBFF140EF4CF97
:10252000DBFF060EDB5004E0130ED0DB01E20EDB16
:102530008AEC16F002E2130EDBDAAFDB05E0040EE4
:10254000C5DB02E2050ED4DA030EDBB005D0A2DA59
:1025500001E07DD2080EDB6A090EDB6A110EDBCFCB
:10256000E9FF120EDBCFEAFFEFCFDFFFDF5014E011
:10257000D7DB12E2E4DB03E1151C01E168D267DB83
:1025800001E3DB2A090EDB2A110EDB2ADBCFE9FF90
:10259000120EE8E3DB2AE6D77DDA01E15ED257D2FC
:1025A000030EDB8E070EDB0410E195DB040E5ADB15
:1025B0000A0EEECFDBFF0B0EEECFDBFF0C0EEECFE5
:1025C000DBFF0D0EEECFDBFF6CD0070EDB500308F8
:1025D0002CE1030EDBAE0DD0B2DA020E76DAEFCFCD
:1025E00014F0156A166A176A14AE39D015681668A1
:1025F00035D0F70EDBCF15F0F80EDBCF16F0020E5C
:10260000155E000E165AF70E15C0DBFFF80E16C049
:10261000DBFF15C0E9FF16C0EAFFEFCF14F00A0E8A
:1026200014C0DBFF0B0EDB6A38D0070EDB5002084C
:1026300009E1030EDBAE04D059DB16AE10D00ED08C
:1026400055DB0DD0030EDBAE12D079DA020E3DDA87
:10265000F9DA166A176A15AE02D016681768E2DA58
:102660000C0E16C0DBFF0D0E17C0DBFF1AD0F70EE5
:10267000DBCF16F0F80EDBCF17F0020E165E000E61
:10268000175AF70E16C0DBFFF80E17C0DBFF16C097
:10269000E9FF17C0EAFFD6DAC5DA0C0EDB6A0D0EC9
:1026A000DB6A060EDB5005E1010EF36E050EF3CF7B
:1026B000DBFF150EDB6A160EDB6AD950370F146E7E
:1026C000000EDA20156E390E14C0DBFF3A0E15C06D
:1026D000DBFF380EDB6A080EDB6A0A0EAEDADF506B
:1026E000780A12E0200A10E0280A0CE0200A0AE02A
:1026F0003F0A06E00D0A02E0200A08E1020E05D0BA
:10270000080E03D0080EDF26100E97DA030EDBBE8C
:1027100002D0DB92DB94DB50800B24E08ADAD89085
:10272000030EEB50000A08E6000EEE5C000EEE58B9
:10273000000EEE58000EEE5815E213DA0B680C6826
:102740000D680E680CEC25F00A0E02C0DBFF0B0EC4
:1027500003C0DBFF0C0E04C0DBFF0D0E05C0DBFF6A
:102760002D0E08D0030EDBA202D02B0E03D0DBA46B
:1027700008D0200EF36E170EF3CFDBFF150EDB2A09
:1027800002D0170EDB6A050EDB5003E1B7D901E179
:1027900089D0460E146E4C0E156E000E166E070E86
:1027A000DBCF17F0186A196A1A6A17C00BF018C045
:1027B0000CF019C00DF01AC00EF0D3D944EC25F07E
:1027C00014500224F36E15500320F46E16500420AA
:1027D000F86EF4CFF7FFF3CFF6FF0800090EF5CF40
:1027E000DBFF580EDF5C0FE1610EF36E090E7BD943
:1027F0000AE3200E146E090EDBCFE7FF1450E75EEC
:10280000090EE7CFDBFF070EDBCF14F0156A166A5F
:10281000176A0FDA14C00BF015C00CF016C00DF0DB
:1028200017C00EF0EECF06F0EECF07F0EECF08F0B7
:10283000EFCF09F044EC25F009C0EDFF08C0EDFF33
:1028400007C0EDFF06C0EFFF390EDBCFE9FFDB0667
:102850003A0EDBCFEAFF01E2DB06090EDBCFEFFF2A
:10286000150EDB2A4BD995E1030EDBA61DD06F0EAA
:10287000DF5C06E1C1D918E3150EDB285BDA14D062
:10288000780EDF5C09E0580EDF5C06E0620EDF5C6C
:1028900003E0420EDF5C08E1020EF36E160EF3CF8A
:1028A000DBFF02D0150EDB6A030EDB50100B0EE0CF
:1028B000040EDBCF14F0050EDB50D880145406E272
:1028C000060EDB5003E1040EDB5034DA95D90AE240
:1028D000050EDBCFE7FF150EDB50E75E050EE7CFF9
:1028E000DBFF02D0050EDB6A040EDBCF14F0160E00
:1028F00045D9D880145414E2160EDBCFE6FF150E2E
:10290000DBCFE6FF040EDBCFE6FF050EDB50E55222
:10291000E75CE552D880E754E552D880E7545FD9A8
:10292000030EDB50010B0BE1080EDB5008E0B2D8C0
:1029300001E08DD0080EDB50BED8080EDB6A170E02
:10294000DB5007E088D9170EF1D903E1151C01E12E
:102950007ED0160EDB5016E07ED9300EE66E9FD884
:1029600002E1151C74E077D9DFCFE6FFCAEC24F052
:10297000E552E552E552F4CF15F00001F31C02E1F7
:10298000151C65E0050EDBCF14F0160EDB50D88069
:10299000145409E2050EDBCFE7FF160EDB50E75EAD
:1029A000050EE7CFDBFF300EE66E050ECBD94FE10B
:1029B000390EDB2ADBCFE9FF3A0E01E3DB2ADBCF5E
:1029C000EAFF090EEFCFDBFFDB500EE044D9090E22
:1029D000ADD902E1151C3BE0390EDB2ADBCFE9FF64
:1029E0003A0EEDE3DB2AEBD755D831E1160EDBCFFB
:1029F000E6FF080EC3D8E552E7245DD82ED0070EB7
:102A0000DB50030A1CE0010A14E0030A07E07BD94B
:102A1000DBCFEEFF020EDBCFEDFF1FD0F5D8196A3A
:102A200017AE02D0186819682CD8BCD819C0EEFFB0
:102A300014D0EAD817BE186824D8B4D80ED063D9F9
:102A4000DBCFEFFF0AD07BD905E1151C03E1F3686A
:102A5000F46810D0FCD801E3DB2A79D9CCEF10F070
:102A6000010EDBCF14F0020EDBCF15F014C0F3FF24
:102A700015C0F4FF3B0EE15C02E2E16AE552E16E53
:102A8000CBD029D9020E32EF16F061D90800F550EB
:102A9000DF6E1200200EE66E080EA2EF16F0CAECF2
:102AA00024F0E552E552E552F3CF14F0F4CF15F0DF
:102AB0000001F31C1200146E156AD950010F4DD994
:102AC0001450EE261550ED221200185E000E195A11
:102AD000F70E18C0DBFFF80E19C0DBFF18C0E9FFC6
:102AE00019C0EAFF1200DBCFF4FFF350F45C1200D0
:102AF000DB50E76E040EE7CFDBFF12000A0EDBCFE0
:102B000014F00B0EDBCF15F00C0EDBCF16F00D0E14
:102B1000DBCF17F014501510161017101200130EFB
:102B2000EECFDBFF140EEDCFDBFF130EDBCF14F087
:102B3000140EDBCF15F00001800E15141200F70EF5
:102B4000DBCF18F0F80EDBCF19F01200050EDB50CA
:102B5000E66ED950130F01D9E552E750EE6EED6ADB
:102B600012000A0EDBCF06F00B0EDBCF07F00C0EC7
:102B7000DBCF08F00D0EDBCF09F01200DBCFE6FF54
:102B8000150EDBCFE6FF050EDB50E552E724E552DC
:102B9000E7241200DB50CED8010EF36E060EF3CF01
:102BA000DBFF1200EE50EFCFEAFFE96E16C0EEFF3A
:102BB00017C0EEFF18C0EEFF1200D9CFE6FFDACF44
:102BC000E6FFE1CFD9FFE2CFDAFF1200DFCFE6FF69
:102BD000E66ACAEC25F0E552E552F3501200E76EC2
:102BE000080EE7CFDBFF1200EECF14F0EECF15F0AA
:102BF000EFCF16F0176A1200050EDBCF14F0150E9A
:102C0000DB50D88014541200010EDBCF16F0020EF8
:102C1000DBCF17F0186A1200E552E5CFDAFFE7CFF5
:102C2000D9FF12000A0E14C0DBFF0B0E15C0DBFF2C
:102C30001200D9500A0FADEF16F0F36E070EF3CF66
:102C4000DBFF1200EECF14F0EFCF15F01200010EF3
:102C5000DB2A020E1200FC0EDBCFE6FFFD0EDBCFFF
:102C6000E6FF1200145E000E155AF70E14C0DBFFCB
:102C7000F80E15C0DBFF14C0E9FF15C0EAFF120013
:102C8000DA20EA6EEF2AEECFF6FF000EEF22EECF4B
:102C9000F7FFEF22EECFF8FF1200040EDBCFE6FFC6
:102CA000130EDB50E552E75C9ADFDB5004DF060EC3
:102CB000DB501200090EDB500A0DF350DF24D00F59
:102CC000E76E090EE7CFDBFF45EF15F0DB50F36E43
:102CD000050E73EF15F0F70EDBCF14F0F80EDBCF17
:102CE00015F01200DFCFE6FF4FEF15F028DF030EDF
:102CF000ECDEF4EF15F0A1EC10F0E552E552E552F0
:102D0000E55200091200BDDEEE50EFCFEAFFE96E9A
:102D1000010E1200130EDB50F36E040E73EF15F06C
:102D2000040EDB50F36E090E73EF15F0DBCFE6FFF8
:102D30004FEF15F0E76E050EE7CFDBFF12008BDFDC
:102D400072EF16F0DBCFE6FF86DF7BEF16F0D9508F
:102D5000F90FE96EFF0E40EF16F0E96E000EDA2073
:042D6000EA6E120005
:0C2D6400DACFE4FFE2CFDAFFE9CFE4FFB2
:102D7000EACFE4FFF6CFE4FFF7CFE4FFF5CFE4FFBF
:102D8000F3CFE4FFF4CFE4FFFACFE4FF00EE00F06E
:102D9000140EE80403E3EECFE4FFFBD700EE14F0DB
:102DA000080EE80403E3EECFE4FFFBD7E652310E52
:102DB0000001E25D49E1F29C8D94870EE66E68ECBD
:102DC00022F0E552E30EE66E000EE66EE0C0E6FF8E
:102DD000E1C0E6FFD9EC22F0E552E552E552E552BA
:102DE000E30EE66E000EE66EB9EC22F0E552E55217
:102DF000480EE66EAAEC22F0E5527A0EE66EAAECD8
:102E000022F0E552200EE66EAAEC22F0E552200EEA
:102E1000E66EAAEC22F0E552200EE66EAAEC22F055
:102E2000E552200EE66EAAEC22F0E552200EE66E88
:102E3000AAEC22F0E552200EE66EAAEC22F0E55252
:102E40000001E06BE16BF28CF294E55200EE1BF0B6
:102E5000080EE80403E3E5CFEDFFFBD700EE13F027
:102E6000140EE80403E3E5CFEDFFFBD7E5CFFAFF4F
:102E7000E5CFF4FFE5CFF3FFE5CFF5FFE5CFF7FFB3
:102E8000E5CFF6FFE5CFEAFFE5CFE9FFE5CFDAFFD3
:102E90001100D8CFE4FFE0CFE4FFE46EDACFE4FF27
:102EA000E2CFDAFFE9CFE4FFEACFE4FFF6CFE4FFB9
:102EB000F7CFE4FFF5CFE4FFF3CFE4FFF4CFE4FF77
:102EC000FACFE4FF00EE00F0140EE80403E3EECFC7
:102ED000E4FFFBD700EE14F0080EE80403E3EECFA6
:102EE000E4FFFBD7E652F29E0A0EE66E18EC26F0DF
:102EF000E5528D7081A818D00001E251340A11E02A
:102F0000070A0CE0010A07E0030A01E00DD0E02BFC
:102F1000000EE12309D0B2EC1BF006D0ADEC1AF0A4
:102F200003D0B5EC1CF000D0F290F28EE55200EE2A
:102F30001BF0080EE80403E3E5CFEDFFFBD700EE3E
:102F400013F0140EE80403E3E5CFEDFFFBD7E5CF64
:102F5000FAFFE5CFF4FFE5CFF3FFE5CFF5FFE5CFCF
:102F6000F7FFE5CFF6FFE5CFEAFFE5CFE9FFE5CFD5
:102F7000DAFFE550E5CFE0FFE5CFD8FF1000ABD991
:102F800023EC22F0020EE66E010EE66EB9EC22F0A2
:102F9000E552E5520001F66BF76BF86BF96BE06BED
:102FA000E16B8D82310EE26FD08EF28CF28E72EC7C
:102FB00009F0880E0001F61902E1130EF71901E07D
:102FC00084D1F66BF76B81B01CD0310EE25D01E16C
:102FD00018D0F29CF29E8D94800EE66E68EC22F082
:102FE000E552020EE66E010EE66EB9EC22F0E552F5
:102FF000E5520001E06BE16B310EE26FF28CF28E74
:10300000D58E81B21ED0320EE25D01E11AD0D59E7E
:10301000F29CF29E8D94800EE66E68EC22F0E552F2
:10302000100EE66E010EE66EB9EC22F0E552E552A6
:10303000B2EC1BF00001E06BE16B320EE26FF28C40
:10304000F28E81B41ED0330EE25D01E11AD0D59E1E
:10305000F29CF29E8D94800EE66E68EC22F0E552B2
:103060001E0EE66E010EE66EB9EC22F0E552E55258
:10307000ADEC1AF00001E06BE16B330EE26FF28C05
:10308000F28E81B61ED0340EE25D01E11AD0D59EDB
:10309000F29CF29E8D94800EE66E68EC22F0E55272
:1030A0002C0EE66E010EE66EB9EC22F0E552E5520A
:1030B000B5EC1CF00001E06BE16B340EE26FF28CBA
:1030C000F28E8150200B3DE1010101513AE10051A6
:1030D00016E1010E006FF29CF29E8D94C00EE66E1A
:1030E00068EC22F0E552440EE66EAAEC22F0E552BE
:1030F000430EE66EAAEC22F0E552F28CF28E00014D
:103100000A0EF81901E1F95119E1F29CF29E320E12
:10311000E25D02E1B2EC1BF0330E0001E25D02E180
:10312000ADEC1AF0340E0001E25D02E1B5EC1CF0EA
:103130000001F86BF96BF28CF28E03D0F82B000EC5
:10314000F9238150200B18E00101000515E1F29CE4
:10315000F29E006B8D94C00EE66E68EC22F0E55294
:10316000200EE66EAAEC22F0E552200EE66EAAECE6
:1031700022F0E552F28CF28E81BC64D00101015143
:103180003FE1010E016F006BF29CF29E8D94C00E28
:10319000E66E68EC22F0E5524D0EE66EAAEC22F0E7
:1031A000E5526F0EE66EAAEC22F0E552760EE66E60
:1031B000AAEC22F0E552690EE66EAAEC22F0E55286
:1031C000650EE66EAAEC22F0E552200EE66EAAEC41
:1031D00022F0E552470EE66EAAEC22F0E552610EAF
:1031E000E66EAAEC22F0E552740EE66EAAEC22F02E
:1031F000E552650EE66EAAEC22F0E552F28CF28EF4
:1032000000010A0EF81901E1F95119E1F29CF29E50
:10321000320EE25D02E1B2EC1BF0330E0001E25D22
:1032200002E1ADEC1AF0340E0001E25D02E1B5EC12
:103230001CF00001F86BF96BF28CF28E03D0F82BC6
:10324000000EF9238150400B3FE0010101053CE1F4
:10325000F29CF29E016BC00EE66E68EC22F0E55225
:10326000200EE66EAAEC22F0E552200EE66EAAECE5
:1032700022F0E552200EE66EAAEC22F0E552200E76
:10328000E66EAAEC22F0E552200EE66EAAEC22F0E1
:10329000E552200EE66EAAEC22F0E552200EE66E14
:1032A000AAEC22F0E552200EE66EAAEC22F0E552DE
:1032B000200EE66EAAEC22F0E552200EE66EAAEC95
:1032C00022F0E552F28CF28E03D0F62B000EF7239B
:1032D00038D86DD61200928092829284928692881B
:1032E000928AC290C294C296C298C29AC19AC19858
:1032F000C190C192C194C186C09EC086C098C09A38
:10330000C090C082C0841CEC09F087EF19F0000166
:10331000010EF56FD58ED59CD59AD596D584D582DC
:10332000D590F294F28AF1849368F19EF286F1903E
:10333000F298F096F0988C6A956A8D6A966A93680E
:103340001200D9CFE6FFE1CFD9FF020EE126200E11
:1033500001013C5D03E36D50020B01E095D00101DA
:10336000A25101E08FD0400EE66EA00EE66E000E78
:10337000E66E4DEC1EF0E552E552E552DF6EDF5091
:1033800001E180D0010EDB6ADF50F36E010EDBCF6E
:10339000F4FFF350F45C76E2010EDB50EA6AA00F12
:1033A000E96E000EEA22EF500D0A25E0070A01E05F
:1033B00044D0010EDB50EA6AA00FE96E000EEA224B
:1033C000EF50E66E010EDB50EA6A600FE96E000E08
:1033D000EA22E552E750EF6E010EDB50EA6A600F19
:1033E000E96E000EEA22EF50E66E9DEC25F0E55204
:1033F000ACA2FED744D0010EDB50EA6AA00FE96E02
:10340000000EEA22EF50E66E010EDB50EA6A600F12
:10341000E96E000EEA22E552E750EF6E010EDB5036
:10342000EA6A600FE96E000EEA22EF50E66E9DEC4C
:1034300025F0E552ACA2FED722D0010EDB50EA6A9D
:10344000A00FE96E000EEA22EF50E66E010EDB508F
:10345000EA6A600FE96E000EEA22E552E750EF6E6D
:10346000010EDB50EA6A600FE96E000EEA22EF50AF
:10347000E66E9DEC25F0E552ACA2FED700D0010E21
:10348000DB2A82D74AEC1FF0020EE15C02E2E16A1D
:10349000E552E16EE552E7CFD9FF120001013A5142
:1034A0003B1104E1100E3A6F270E3B6F3A07000EF6
:1034B0003B5B6DA20BD03A513B1107E18C708C50F5
:1034C000010B02E08C8201D08C922FD001013C5183
:1034D00003E18C908C9229D03C0503E18C808C8296
:1034E00024D0020E3C5D03E18C808C921ED0040E31
:1034F0003C5D03E18C908C8218D0100E3C5D07E19E
:1035000001013A513B1102E18C708C920ED0200ED9
:103510003C5D0BE101013A513B1107E18C708C508D
:10352000010B02E08C9201D08C821200120012007A
:1035300012001200C8EF1DF0120019EF1EF06D848A
:103540000001080EFA6F070EFB6FFA07000EFB5B17
:0A355000FA51FB11FAE16D9412002C
:06355A000A0EE66EDCEC37
:1035600025F0E5520101330E8D6F8E6F230E8F6FA4
:103570003C0E906FC284C296C298C29AC280C28228
:10358000C2B2FED7C290C4500101716F726BD89065
:1035900071377237D89071377237C350736F746B4D
:1035A000400E0D6E0E6A73C108F074C109F013EC81
:1035B00021F008C073F109C074F101017151732544
:1035C000756F72517421766F75C108F076C109F07C
:1035D000FCEC1FF007C014F008C015F009C016F08D
:1035E0000AC017F08DC10CF08EC10DF08FC10EF026
:1035F00090C10FF014C007F015C008F016C009F014
:1036000017C00AF00FEC20F007C091F108C092F14A
:1036100009C093F10AC094F191C107F092C108F07A
:1036200093C109F094C10AF039EC21F008C077F198
:1036300009C078F177C108F078C109F0FCEC1FF0FF
:1036400007C018F008C019F009C01AF00AC01BF032
:1036500018C00CF019C00DF01AC00EF01BC00FF00E
:1036600091C107F092C108F093C109F094C10AF02A
:103670007CEC20F007C014F008C015F009C016F06B
:103680000AC017F00C6A0D6AC80E0E6E420E0F6E5D
:1036900014C007F015C008F016C009F017C00AF0F2
:1036A0000FEC20F039EC21F008C079F109C07AF173
:1036B00001017A3504E279510908000E7A5522E3B6
:1036C00079C1E6FF7AC1E6FF77C1E6FF78C1E6FF80
:1036D000000E146E4B0E156E166A14C0E6FF15C070
:1036E000E6FF16C0E6FF7D0EE66E010EE66ED8EC34
:1036F00023F0176E090EE15E1750F3CF7BF1F4CF84
:103700007CF121D079C1E6FF7AC1E6FF77C1E6FFFF
:1037100078C1E6FFF60E146E4A0E156E166A14C0D6
:10372000E6FF15C0E6FF16C0E6FF7D0EE66E010E51
:10373000E66ED8EC23F0176E090EE15E1750F3CF5A
:103740007BF1F4CF7CF18D948A0EE66E68EC22F06A
:10375000E5527D0EE66E010EE66EB9EC22F0E55202
:10376000E55212000A0EE66EDCEC25F0E552C2943A
:10377000C296C298C29AC280C282C2B2FED7C2901A
:10378000C4500101716F726BD89071377237D89045
:1037900071377237C350736F746B400E0D6E0E6AC3
:1037A00073C108F074C109F013EC21F008C073F183
:1037B00009C074F1010171517325756F7251742143
:1037C000766F8D6B8E6BA00E8F6F3B0E906F75C1F9
:1037D00008F076C109F0FCEC1FF007C014F008C037
:1037E00015F009C016F00AC017F08DC10CF08EC19B
:1037F0000DF08FC10EF090C10FF014C007F015C08E
:1038000008F016C009F017C00AF00FEC20F007C04E
:1038100091F108C092F109C093F10AC094F191C1ED
:1038200007F092C108F093C109F094C10AF039EC95
:1038300021F008C077F109C078F177C108F078C1AC
:1038400009F0FCEC1FF007C018F008C019F009C01F
:103850001AF00AC01BF018C00CF019C00DF01AC005
:103860000EF01BC00FF091C107F092C108F093C198
:1038700009F094C10AF07CEC20F007C014F008C0F5
:1038800015F009C016F00AC017F00C6A0D6AC80ED0
:103890000E6E420E0F6E14C007F015C008F016C071
:1038A00009F017C00AF00FEC20F039EC21F008C045
:1038B00079F109C07AF101017A3504E279510908F8
:1038C000000E7A5522E379C1E6FF7AC1E6FF77C19F
:1038D000E6FF78C1E6FFEC0E146E4A0E156E166A0E
:1038E00014C0E6FF15C0E6FF16C0E6FF7D0EE66ECB
:1038F000010EE66ED8EC23F0176E090EE15E17504C
:10390000F3CF7BF1F4CF7CF121D079C1E6FF7AC10E
:10391000E6FF77C1E6FF78C1E6FFE30E146E4A0EBC
:10392000156E166A14C0E6FF15C0E6FF16C0E6FF66
:103930007D0EE66E010EE66ED8EC23F0176E090ED2
:10394000E15E1750F3CF7BF1F4CF7CF18D948A0EBA
:10395000E66E68EC22F0E5527D0EE66E010EE66E34
:10396000B9EC22F0E552E5521200D9CFE6FFE1CFE3
:10397000D9FF020EE1260A0EE66EDCEC25F0E552D8
:1039800001018D6B8E6B080E8F6F3C0E906FC29491
:10399000C286C298C29AC280C282C2B2FED7C29008
:1039A000C4500101716F726BD89071377237D89023
:1039B00071377237C350736F746B400E0D6E0E6AA1
:1039C00073C108F074C109F013EC21F008C073F161
:1039D00009C074F1010171517325756F7251742121
:1039E000766F75C108F076C109F0FCEC1FF007C0D6
:1039F00014F008C015F009C016F00AC017F08DC108
:103A00000CF08EC10DF08FC10EF090C10FF014C0FC
:103A100007F015C008F016C009F017C00AF00FEC47
:103A200020F007C091F108C092F109C093F10AC0DB
:103A300094F191C107F092C108F093C109F094C1CB
:103A40000AF039EC21F008C077F109C078F177C1AC
:103A500008F078C109F0FCEC1FF007C018F008C0AE
:103A600019F009C01AF00AC01BF018C00CF019C0F8
:103A70000DF01AC00EF01BC00FF091C107F092C1FB
:103A800008F093C109F094C10AF07CEC20F007C063
:103A900014F008C015F009C016F00AC017F00C6A3F
:103AA0000D6AC80E0E6E420E0F6E14C007F015C0E0
:103AB00008F016C009F017C00AF00FEC20F039EC3E
:103AC00021F008C079F109C07AF101017A3504E2E8
:103AD00079510908000E7A5522E379C1E6FF7AC1CF
:103AE000E6FF77C1E6FF78C1E6FFD90E146E4A0EF5
:103AF000156E166A14C0E6FF15C0E6FF16C0E6FF95
:103B00007D0EE66E010EE66ED8EC23F0176E090E00
:103B1000E15E1750F3CF7BF1F4CF7CF121D079C176
:103B2000E6FF7AC1E6FF77C1E6FF78C1E6FFD00E77
:103B3000146E4A0E156E166A14C0E6FF15C0E6FF35
:103B400016C0E6FF7D0EE66E010EE66ED8EC23F0A1
:103B5000176E090EE15E1750F3CF7BF1F4CF7CF1C5
:103B60008D948A0EE66E68EC22F0E5527D0EE66ECC
:103B7000010EE66EB9EC22F0E552E552020EE15C70
:103B800002E2E16AE552E16EE552E7CFD9FF1200A9
:103B9000040120511F0B010801E04AD02051600BA5
:103BA000E842E842E842E842E842010801E040D049
:103BB000245103E0240501E03BD02151220A33E0E7
:103BC000030A26E0010A17E0210A0EE0010A01E0DB
:103BD0002FD00101B20E556F010E566F080E586FAF
:103BE000596B5781578F24D00101B20E556F010ECA
:103BF000566F578F1DD026C45DF127C45EF10101B9
:103C0000B80E5A6F040E5B6F5F6B606B5C8F10D0E9
:103C10000101B80E556F040E566F070E586F596BA1
:103C2000C10E576F05D022C4ADF10101578F00D0EE
:103C300012000401B86B4B0EB96FBA6BBB6BBC6B57
:103C4000BD6B080EBE6F0101A26BA16B1A0EE66E72
:103C5000020EE66E7EEC0FF0E552E5521E0EE66EA9
:103C6000030EE66E7EEC0FF0E552E552400EE66E76
:103C7000380EE66E040EE66EE66A030EE66E09EC9A
:103C800010F0146E050EE15E1450F3CFA9F1F4CFDD
:103C9000AAF10101AB6BAC6B1200D9CFE6FFE1CF0B
:103CA000D9FF0101A16BA951AA1102E1000E08D0B0
:103CB000A9C1E9FFAAC1EAFFEF50800B01E0010EA4
:103CC000000945E1FC0EDBCF14F0A9C1E9FFAAC150
:103CD000EAFFEE52EF50D880145408E2A9C1E9FF80
:103CE000AAC1EAFFEE52FC0EEFCFDBFFA16BFC0E88
:103CF000DB50A15D19E2A151EA6A380FE96E040EAA
:103D0000EA22EF50E66EA151E76EFD0EDBCFE9FF30
:103D1000FE0EDBCFEAFFE750E926000EEA22E5526D
:103D2000E750EF6EA12BE3D7400EE66E380EE66E3D
:103D3000040EE66EE66A030EE66E09EC10F0146EF1
:103D4000050EE15E1450F3CFA9F1F4CFAAF1010101
:103D5000A15100D0E552E7CFD9FF1200D9CFE6FF3D
:103D6000E1CFD9FF0101A2510CE1FD0EDBCFA3F1A0
:103D7000FE0EDBCFA4F1FC0EDBCFA7F1010EA86F86
:103D8000A26FE552E7CFD9FF1200D9CFE6FFE1CF0E
:103D9000D9FF030EE1260101A25101E02ED0DF6A16
:103DA000FD0EDBCF08F0FE0EDBCF09F0DE5208C0BF
:103DB000DEFF09C0DDFFDD52DF2ADF50146E156A19
:103DC000FF0E141801E1155001E10BD0010EDBCFFD
:103DD000E9FFDB2A020EDBCFEAFF01E3DB2AEF502B
:103DE000EBE1FD0EDBCFA3F1FE0EDBCFA4F1DFCFC5
:103DF000A7F10101010EA86FA26F030EE15C02E2C0
:103E0000E16AE552E16EE552E7CFD9FF1200D9CF62
:103E1000E6FFE1CFD9FF030EE1260101A25101E047
:103E20002FD0DF6AFD0EDBCF08F0FE0EDBCF09F0EE
:103E3000DE5208C0DEFF09C0DDFFDD52DF2ADF50A1
:103E4000146E156AFF0E141801E1155001E10CD033
:103E5000010EDBCFF6FFDB2A020EDBCFF7FF01E31B
:103E6000DB2A0800F550EAE1FD0EDBCFA3F1FE0EE0
:103E7000DBCFA4F1DFCFA7F10101A86B010EA26F88
:103E8000030EE15C02E2E16AE552E16EE552E7CF42
:103E9000D9FF1200D9CFE6FFE1CFD9FF020EE1260C
:103EA0000101AB51AC1102E1000E08D0ABC1E9FF3A
:103EB000ACC1EAFFEF50800B01E0010E000901E008
:103EC0008FD0030EA25D01E1A26BA25101E188D067
:103ED000020EA25D16E1E66A000EE66EE66A010ECB
:103EE000E66E030EE66E09EC10F0146E050EE15E50
:103EF0001450F3CFABF1F4CFACF10101030EA26F7C
:103F00005BD0A20559E1400E146E156AA751145CEE
:103F1000000E155803E2400EDF6E02D0A7C1DFFF8E
:103F2000DF50A75DA76F780EA56F040EA66F010E78
:103F3000DFCFDBFFA85117E1010EDB5013E0A3C177
:103F4000F6FFA4C1F7FF0800F550A5C1E9FFA6C11F
:103F5000EAFFEF6EA52B000EA623A32BA423010ED0
:103F6000DB06EAD715D0010EDB5012E0A3C1E9FF52
:103F7000A4C1EAFFEF50A5C1E9FFA6C1EAFFEF6EB9
:103F8000A52B000EA623A32BA423010EDB06EBD743
:103F9000A75112E1ABC1E9FFACC1EAFFEE52EF500D
:103FA000146E156A400E141801E1155003E1020E5B
:103FB000A26F02D0030EA26FDFCFE6FF780EE66E8F
:103FC000040EE66E010EE66E030EE66E09EC10F0CE
:103FD000146E050EE15E1450F3CFABF1F4CFACF1EB
:103FE000020EE15C02E2E16AE552E16EE552E7CFE2
:043FF000D9FF1200E3
:0C3FF400019E08D0019E09AE05D0086CAB
:10400000091EE86A0922018E09C003F008C002F007
:10401000136A126A8E0E046E056A84EF21F0016A3B
:10402000C0EC21F0D8EC21F001B668EF21F001A23C
:1040300005D001B868EF21F06FEF21F001AA05D09B
:1040400001B068EF21F06FEF21F001B002D001A8BC
:1040500002D07BEF21F0056A0F500A24046EE86A53
:1040600005227E0E045EE86A055A126A136A026A25
:10407000036A0E500902F4CF03F0F3CF02F00D50A3
:104080000902F3501326F4500222000E03220E50B0
:104090000802F3501326F4500222000E03220C50A3
:1040A0000902F3501226F4501322000E02220322BA
:1040B0000D500802F3501226F4501322000E022273
:1040C00003220E500702F3501226F4501322000E62
:1040D000022203220C500802F4501226000E132272
:1040E000022203220D500702F4501226000E132262
:1040F0000222032284EF21F00F7E016AC0EC21F03E
:10410000D8EC21F001B668EF21F001A20AD001AA93
:1041100003D001BE68EF21F001A474EF21F071EF2C
:1041200021F001AA05D001AC74EF21F071EF21F06C
:1041300001A00AD001A808D001BE04D001A402D079
:104140007DEF21F081EF21F0126A056A0F500A5CC1
:10415000116E10E307C013F008C002F009C003F0AD
:104160000AC010F00CC007F00DC008F00EC009F036
:10417000013A09D00CC013F00DC002F00EC003F0DC
:104180000FC010F0116C019E01BC018E10C004F034
:1041900001B0B0EF21F01A0E1160B0EF21F0046A07
:1041A0000A6A01A408D0076C081E091E0A1EE86AE4
:1041B000082209220A2201AC08D0136C021E031E39
:1041C000041EE86A022203220422066A115207E052
:1041D0000A340932083207320632112EF9D7075055
:1041E000132608500222095003220A50042206C056
:1041F00012F0019E04AE0BD0126C131E021E031EA1
:10420000041EE86A1322022203220422018E04A063
:1042100006D0D8800332023213321232102A10C074
:1042200004F084EF21F0006A0EAE1CEF21F00D6C5B
:104230000E1EE86A0E22001E09AE24EF21F0086C63
:10424000091EE86A0922001EB4EC25F009BE34EF0D
:1042500021F000AE000C086C091EE86A0922046C0B
:10426000051EE86A0522000C00BE2BEF21F0018834
:10427000FF0C016AC0EC21F001B643EF21F001A26E
:104280000ED001B405D07F0E096EFF0E086E1FD050
:10429000800E096E086A1BD0096A086A18D001B03E
:1042A000FBD78F0E0A60EDD77E0E0A64F5D78E0E0F
:1042B0000A5C05E0D890093208320A2AF8D701A42E
:1042C00006D0086C091EE86A092209AEE5D712007B
:1042D0007F0E0A6EFF0E096E086E076E12007F0ECB
:1042E00001BEFF0E0A6E02D07F0E0A6E800E096EAE
:1042F000086A076AF3D701AE04D0800E0A6E096A15
:10430000F7D70A6A096AF4D7035002101310121083
:10431000F8E005BEF0D703BE0CD004500510EBE06A
:10432000D89012361336023603360406D8A0050696
:10433000F2D70550D4E10428D2E012AE11D07F0E9E
:10434000121402E113A00CD0132AE86A02220322FD
:1043500007E3D880033202321332042A0428BFE074
:104360000450C9E013C007F002C008F00334096E1E
:1043700004300A6E09320A9E01BE0A8E6EEF21F0E9
:1043800009360A3602E30184017E06E101800A6AE9
:10439000096A086A076A12000A2803E0D88009320D
:1043A0001200D890093202E1018212000186120047
:1043B0000E360F3602E3018C017E06E101880F6A9A
:1043C0000E6A0D6A0C6A12000F2803E0D8800E32C4
:1043D0001200D8900E32EAE1018A120009C013F0EF
:1043E00008C012F008500D02F4CF07F0F3CF06F02A
:1043F00009500E02F4CF09F0F3CF08F00D02F3508C
:104400000726F4500822E86A092212500E02F350DF
:104410000726F4500822E86A09220EAE14EF22F0B3
:104420001250085E1350095A13AE000C0D50085E6E
:064430000E50095A000CB9
:0A4436008C8C320EE66E18EC26F0B6
:10444000E5528C9C1200180EE66E86EC25F0E552C3
:104450008C9C8D948C9E8C848C868C988C9AEBDFB3
:10446000060EE66E86EC25F0E5528C848C868C98E0
:104470008C9AE1DF180EE66EDCEC25F0E5528C84B8
:104480008C868C988C9AD7DF180EE66EDCEC25F0C3
:10449000E5528C948C868C988C9ACDDF060EE66E55
:1044A00086EC25F0E552280EE66E12D8E552080E8D
:1044B000E66E0ED8E5520C0EE66E0AD8E552010EF5
:1044C000E66E06D8E552060EE66E02D8E5521200F8
:1044D000D9CFE6FFE1CFD9FF8C948C968C988C9A3B
:1044E000FE0EDBAE02D08C8A01D08C9ADBAC02D0FF
:1044F0008C8801D08C98DBAA02D08C8601D08C9657
:10450000DBA802D08C8401D08C9495DF060EE66E79
:1045100086EC25F0E552FE0EDBA602D08C8A01D097
:104520008C9ADBA402D08C8801D08C98DBA202D0BC
:104530008C8601D08C96DBA002D08C8401D08C9428
:104540007ADF060EE66E86EC25F0E552E552E7CFFF
:10455000D9FF1200D9CFE6FFE1CFD9FF8D84FE0E3F
:10456000DBCFE6FFB5DFE5528D94E552E7CFD9FF0B
:104570001200D9CFE6FFE1CFD9FF8D84FD0EDBCF4E
:10458000E9FFFE0EDBCFEAFFEF500EE0FD0EDBCFC2
:10459000E9FFDB2AFE0EDBCFEAFF01E3DB2AEF5067
:1045A000E66E96DFE552EAD78D94E552E7CFD9FF64
:0245B0001200F7
:0E45B200D9CFE6FFDACFE6FFFA0EE3CFD9FF4E
:1045C000FB0EE3CFDAFFFD0EE35209E72D0EDE6EA0
:1045D000FC0EE31EE32AFD0ED8B4E306E31EE6520A
:1045E000E652E652FD0EE124E76EFF0EE220E46E95
:1045F000E652F70EE3CFE6FFF70EE3CFE6FF49EC16
:1046000023F0F90EE124E96EFF0EE220EA6E39ECA8
:1046100023F00AE136EC23F009E139EC23F008E15C
:1046200036EC23F007E108D044EC23F03FEC23F014
:1046300044EC23F03FEC23F044EC23F0DE6AF90E67
:10464000E126FF0EE222FF0EE3CFDAFFE552FF0E76
:10465000E3CFD9FFE552FC0EE124E96EFF0EE22024
:10466000EA6EEECFF3FFEFCFF4FF1200EF380F0B3F
:104670001200EF500F0B02E1EE52D8841200EF3817
:104680000F0B300FDE6E1200EE500F0B300FDE6E90
:104690001200FC0EE3CFE9FFFD0EE3CFEAFF100EA0
:1046A000E66EEE6AEE6AEF6AD890FD0EE336FE0E15
:1046B000E336ED36ED36EF36FF0EE30609E06AEC41
:1046C00023F0EE526AEC23F0EE526AEC23F0EDD7C1
:1046D000E56E1200030EEF24E8B6EF6E300EEF2405
:0646E000E8BEEF6E000CC5
:0A46E6001201000202000008D804CF
:1046F0000A0001000102000109024300020100C09A
:104700003209040000010202010005240010010426
:104710002402020524060001052401000107058288
:104720000308000209040100020A00000007050353
:10473000024000000705830240000004030904341E
:10474000034D006900630072006F00630068006938
:10475000007000200054006500630068006E006F68
:10476000006C006F0067007900200049006E006354
:10477000002E003403430044004300200052005345
:10478000002D00320033003200200045006D00751E
:10479000006C006100740069006F006E002000442E
:0F47A0000065006D006F00F8463B473F477347C9
:1047B000D9CFE6FFDACFE6FFE1CFD9FFE2CFDAFFCC
:1047C000E652E652E652E652D950F90F146EFF0E49
:1047D000DA20156E020E14C0DBFF030E15C0DBFFDE
:1047E000020EDBCFE6FF030EDBCFE6FFF90EDBCFD9
:1047F000E6FFFA0EDBCFE6FFFB0EDBCFE6FFD9507C
:10480000FC0FE66EFF0EDA20E66EB7EC10F0146EC9
:10481000070EE15C02E2E16AE552E16E1450F3CF6B
:10482000DEFFF4CFDDFFFC0EDBCFE9FFFD0EDBCFBB
:10483000EAFFEF6ADECF14F0DDCF15F014C0F3FF0E
:1048400015C0F4FF040EE15C02E2E16AE552E16E9C
:0C485000E552E5CFDAFFE7CFD9FF1200F8
:04485C002A0EF66EBC
:10486000120EF76E000EF86E01010900F550BF6FD1
:104870000900F550C06F03E1BF6701D03DD00900CA
:10488000F550BA6F0900F550BB6F0900F550BC6FC9
:1048900009000900F550E96E0900F550EA6E0900BB
:1048A00009000900F550BD6F0900F550BE6F090001
:1048B0000900F6CFC1F1F7CFC2F1F8CFC3F1BAC109
:1048C000F6FFBBC1F7FFBCC1F8FF0101BD5302E118
:1048D000BE5307E00900F550EE6EBD07F8E2BE07D3
:1048E000F9D7C1C1F6FFC2C1F7FFC3C1F8FF01018B
:0A48F000BF07000EC05BBFD7120027
:0648FA00FE0EE3CFE9FF12
:10490000FF0EE3CFEAFFE9CFF3FFEACFF4FFFB0EA0
:10491000E35003E1FC0EE35009E0FB0EE30602E284
:10492000FC0EE306FD0EE350EE6EF1D71200FE0E14
:10493000E3CFE9FFFF0EE3CFEAFFF36AF46AEE523A
:1049400003E0F34AF42AFBD71200FF0EE3CFF8FF8F
:10495000E552FF0EE3CFF7FFE552FF0EE3CFF6FF80
:10496000E552E66AE66AE66A0900F55209E0FD0EDC
:10497000E32A05E1FE0EE32A02E1FF0EE32AF4D763
:10498000FD0EE3CF07F0FE0EE3CF08F0FF0EE3CFFE
:0449900009F0120018
:0C499400D9CFE6FFDACFE6FFE1CFD9FF74
:1049A000E2CFDAFFFB0EDBCF14F0FC0EDBCF15F00D
:1049B0000001800E15141AE1FB0EDBCFE9FFFC0E9F
:1049C000DBCFEAFFEECFF3FFEDCFF4FFEE2A000ED0
:1049D000EF22F3CFE9FFF4CFEAFFFD0EDBCFEFFFCD
:1049E000EF50156AF36E15C0F4FF10D0FB0EDB50CC
:1049F000FE0806E1FD0EDBCFE6FF0AEC26F005D04F
:104A0000FD0EDBCFE6FF2CEC26F0E552E552E5CFBC
:084A1000DAFFE7CFD9FF120025
:084A180006500B02F3CF02F07F
:104A2000F4CF03F00C02F3500326000EF420046EC2
:104A300006500D02F3500426000EF420056E0650B9
:104A40000E02F350052607500B02F3500326F450D4
:104A50000422000E052207500C02F3500426F450E5
:104A6000052207500D02F350052608500B02F350A3
:104A70000426F450052208500C02F3500526095074
:084A80000B02F35005261200A1
:084A8800056A046A036A026A70
:104A9000200EE76ED89006360736083609360236FD
:104AA0000336043605360B50025C0C5003580D508B
:104AB00004580E50055809E30B50025E0C50035A7F
:104AC0000D50045A0E50055A062AE72EE4D712005C
:104AD00025692E25694120200025692E3025694150
:104AE00020200025692E25695620200025692E30BA
:104AF00025695620200025692E25696D412020005A
:0B4B000025692E3025696D4120200042
:044B0C00FF0EE35065
:104B10001D6EEF0E01D0F30EE76EE72E8DEF25F040
:104B20000C0E1C6EE76AE72E93EF25F01C2E92EF19
:0A4B300025F01D2E8BEF25F012007A
:064B3A00D9CFE6FFDACF3F
:104B4000E6FFE1CFD9FFE2CFDAFFACAC04D0AC9006
:104B50000001FCB3AC80FD0EDB50AD6EE552E5CF3D
:084B6000DAFFE7CFD9FF1200D4
:084B6800056A046A100EE76EF5
:104B7000D89008360936043605360D50045C0E50C0
:104B8000055805E30D50045E0E50055A082AE72E1D
:044B9000F0D7120048
:0C4B9400F36AF46AFF0EE124E96EFF0EE4
:104BA000E220EA6EED6607D02F0EEF6404D03A0ED5
:084BB000EF6001D0F32A1200AE
:084BB800FF0EE3501D6E480ED4
:104BC00001D04C0EE76EE72EFED7E76AE72EFED740
:084BD0001D2EF7D700001200B2
:084BD800000EF36E00EE00F088
:104BE000080E01D81200EA6002D0EE6AFCD7F3503A
:084BF000E9601200EE6AFCD737
:084BF80013EE00F023EE00F0C3
:104C0000F86A019C2EEC24F02DEC26F0BFEC17F096
:044C1000FBD71200BC
:0C4C1400FF0EE350ACBA04D0AF6AAB8EC8
:104C2000AC8A949CACA2FED7AD6EF36EF46A12000F
:104C3000FF0EE350E84E1200000000D000D000D07C
:064C4000E82EFAD7120075
:0A4C46003031323334353637383957
:074C50006162636465660008
:024C5800120048
:024C5A00120046
:044C5C00000066727C
:104C60006571203D2000404040404040566F6C74CC
:104C7000616765203D200000000042617365437557
:104C800072203D200000000043757272656E742032
:084C90003D20000000000000BF
:020000040030CA
:0100000024DB
:010001000EF0
:0100020019E4
:010003001EDE
:010005008179
:010006008178
:010008000FE8
:01000900C036
:01000A000FE6
:01000B00E014
:01000C000FE4
:01000D0040B2
:00000001FF
