:020000040000FA
:060000001DEF1CF01200D0
:020006001200E6
:0600080004EF09F01200F4
:060018000CEF09F01200DC
:02001E000100DF
:0C00200083380000BF0400003C0000001A
:04002C00D9CFE6FF43
:10003000E1CFD9FFE6526A6A686A9F0E6B6EFB0ECB
:10004000696E6D8C6D9C6E6A020EE66EE66AE66AFB
:10005000710EE66E0F0EE66E9EEC1AF0146E050E33
:10006000E15E1450DF6ADF50146E156A080E145CEE
:10007000000E155810E2DF50040DF3CFE9FFF4CF66
:10008000EAFF000EE926040EEA22EE6AEE6AEE6A44
:10009000EE6ADF2AE8D7160E706E68A60CD0030E43
:1000A000E66E680EE66E0F0EE66E7FEC07F0E55228
:1000B000E552E552F2D703011B6B206B216B226BDB
:1000C0006D98040E0F6F040E106F016B006BE552FC
:1000D000E552E7CFD9FF1200D9CFE6FFE1CFD9FF34
:1000E000E6520301005111E105D06D6A696A03010E
:1000F000006B7BD06D6A696A6DB602D06D86FCD7E5
:100100000301010E006F140E6F6E000508E16DBA59
:1001100006D0686A696A69806988020E006F685053
:10012000040B04E06950040B01E096D86DB25DD079
:100130006850010B11E06950010B0EE077DF0301FD
:10014000040E006F0401200E026F040E036F080EF0
:10015000016F006B8C0E00136850100B04E06950A7
:10016000100B01E06AD86850400B10E06950400B5A
:100170000DE02CEC15F0060EE66E680EE66E0F0E26
:10018000E66E7FEC07F0E552E552E5526850200B31
:1001900004E06950200B01E02DD86850020B06E006
:1001A0006950020B03E02DEC15F06A6A040E03019E
:1001B000005D01E21AD069A618D0DF6A040EDF5C88
:1001C00014E268A60FD06CCF28F3030EE66E680E1B
:1001D000E66E0F0EE66E7FEC07F0E552E552E55253
:1001E0004ED801D002D0DF2AE9D7E552E552E7CF59
:1001F000D9FF120070A015D003C3E9FF04C3EAFFC2
:10020000EF5080080DE10FC3E9FF10C3EAFFEF5084
:10021000840806E103C3E9FF04C3EAFF8C0EEF6E16
:100220007090050EE66E680EE66E0F0EE66E7FECC1
:1002300007F0E552E552E55212006984040EE66EBD
:10024000680EE66E0F0EE66E7FEC07F0E552E552A3
:10025000E5526D822AEF15F06D922BEC15F0699442
:1002600068A40CD0020EE66E680EE66E0F0EE66E07
:100270007FEC07F0E552E552E552F2D71200FD0E91
:10028000030128151FE17E0E2815E8407F0B040DA1
:10029000F3CF03F3F4CF04F3000E0327040E04237B
:1002A00003C305F304C306F303C3E9FF04C3EAFF72
:1002B000EF503C0BE842E8420D0802E109D801D0BA
:1002C0001ED805D0FD0E2815040801E120D8120023
:1002D0000FC3E9FF10C3EAFFEF50800B05E00FC327
:1002E000E9FF10C3EAFFEF6A0301176B186B1C6B81
:1002F0001D6B1B6BF6D82EEC15F0FDEF03F0020E14
:100300000301185D02E1D6DB01D04DD81200D9CF30
:10031000E6FFE1CFD9FFE6520FC3E9FF10C3EAFFC2
:10032000EF50400B01E0010EDF6E080E0301005D8F
:100330000AE122C46EFF6E50000803E2100E006F47
:1003400002D0040E006F180528E10FC3E9FF10C3A7
:10035000EAFF020EE926000EEA22280EEE6E040ED7
:10036000ED6E1DDB020E0301175D07E10FC3E9FF10
:1003700010C3EAFF840EEF6E0FD0DF5007E10FC30A
:10038000E9FF10C3EAFFC80EEF6E06D00FC3E9FF06
:1003900010C3EAFF880EEF6E01D005D8E552E55292
:1003A000E7CFD9FF1200D9CFE6FFE1CFD9FF030E87
:1003B000E126020E0301185D4AE16D50100B47E083
:1003C00003C3E9FF04C3EAFFEE52EF50146E156A4F
:1003D000080E141801E115503AE103C3E9FF04C304
:1003E000EAFFEF503C0BE842E8420D0830E105C35C
:1003F000E9FF06C3EAFFEF50800B29E105C3E9FFDF
:1004000006C3EAFF020EE926000EEA22200EEE6E77
:10041000040EED6EDF6ADF50146E156A080E145C70
:10042000000E155813E2DF50EA6A280FE96E040E39
:10043000EA22EF50E66EDF50EA6A200FE96E040E02
:10044000EA22E552E750EF6EDF2AE5D731D0186B8C
:1004500005C3E9FF06C3EAFFEE52080EEF6E05C3BF
:10046000E9FF06C3EAFF020EE926000EEA22200E8B
:10047000EE6E040EED6E05C3E9FF06C3EAFF8C0EB7
:10048000EF6E0FC3E9FF10C3EAFFEF6A000E0F190A
:10049000146E10C315F0010E14C0DBFF020E15C060
:1004A000DBFF010EDBCFE9FF020EDBCFEAFFEF6AD5
:1004B000030120AF0CD02351241107E005D024C341
:1004C000FAFF03012351F96EFADF0301209F030EA7
:1004D000E15C02E2E16AE552E16EE552E7CFD9FF65
:1004E000120004012051600BE842E842E842E84271
:1004F000E842000901E04CD021510C0A48E00B0A07
:1005000043E00C0A35E0010A26E00B0A22E0020A69
:1005100020E0030A1CE0080A10E0010A0CE00F0AC0
:1005200008E0030A01E033D003011B8F080E006FBF
:100530002FD0B5D82DD04FDB2BD00301010E196F72
:10054000030E1A6F1B81010E1C6F1B8F21D0FBD86D
:100550001FD01FD81DD024510301196F1A6B020E32
:100560001927030E1A231B81010E1C6F1B8F10D03D
:1005700003011B8F04012451EA6A020FE96E030E86
:10058000EA2222C4EFFF04D030EC15F001D000D0F5
:100590001200D9CFE6FFE1CFD9FF050EE126040115
:1005A000220510E120511F0B00090CE103011B8FF4
:1005B000030E0401215D04E10301010E276F02D047
:1005C0000301276B0401225160E120511F0B020837
:1005D0005CE124510F0B000958E003011B8F040E4E
:1005E000DB6A020EF36E040EDBCFF4FFF350F45C13
:1005F0004CE2000EDE6E040EDD6E04012451800B11
:1006000001E0010E166E24510F0BE8241624040D90
:10061000F3CF14F0F4CF15F0D9CFE9FFDACFEAFF2A
:100620001450EE261550ED22030E215D07E1DECFBA
:10063000E9FFDDCFEAFF840EEF6E24D024510F0BCB
:10064000156A700F146E0F0E1522020E14C0DBFF18
:10065000030E15C0DBFF020EDBCFE9FF030EDBCF7D
:10066000EAFFEE90ED5224AF07D0DECFE9FFDDCFF9
:10067000EAFF400EEF6E06D0DECFE9FFDDCFEAFFE6
:10068000C80EEF6E040EDB2AACD7050EE15C02E269
:10069000E16AE552E16EE552E7CFD9FF1200800E24
:1006A0000401205D4FE10301C00E1B6F04012351C3
:1006B000030A2EE0010A0EE0030A03E003011B6BAC
:1006C00041D00301280E196F330E1A6F120E1C6FE2
:1006D0001D6B38D02251F66EF76AD890F636F73691
:1006E000E90EF626330EF7220900F5CF19F30A00BA
:1006F000F5CF1AF3020E0301F76A1925F66E1A51A7
:10070000F7220900F5CF1CF30A00F5CF1DF31AD02C
:100710002251F66EF76AD890F636F736EB0EF626CB
:10072000330EF7220900F5CF19F30A00F5CF1AF3BB
:1007300019C3F6FF1AC3F7FF0800F55003011C6F39
:100740001D6B00D01200D9CFE6FFE1CFD9FF020E1A
:10075000E1260401286B296B20511F0B020A12E0CD
:10076000030A0DE0010A01E034D003011B8F0401EC
:1007700028810301270502E1040128832AD003010F
:100780001B8F27D003011B8F000EDE6E040EDD6E63
:1007900004012451800B01E0010E166E24510F0B51
:1007A000E8241624040DF3CF14F0F4CF15F0D9CFBC
:1007B000E9FFDACFEAFF1450EE261550ED22DECF26
:1007C000E9FFDDCFEAFFEF50040B02E0010E286FD6
:1007D00000D003011BAF07D0280E196F040E1A6F4B
:1007E0001B81020E1C6F020EE15C02E2E16AE5521F
:1007F000E16EE552E7CFD9FF12006D9803011BBFF0
:100800004AD020AF28D0020E186F0FC3E9FF10C3E3
:10081000EAFFEE52EF6A0FC3E9FF10C3EAFFC80E0A
:10082000EF6E05C3E9FF06C3EAFFEE52080EEF6E56
:1008300005C3E9FF06C3EAFF020EE926000EEA221D
:10084000280EEE6E040EED6E05C3E9FF06C3EAFF47
:10085000C80EEF6E1FD005C3E9FF06C3EAFFEE52D4
:10086000080EEF6E05C3E9FF06C3EAFF020EE92694
:10087000000EEA22200EEE6E040EED6E05C3E9FFB7
:1008800006C3EAFF8C0EEF6E0FC3E9FF10C3EAFF49
:10089000840EEF6E83D020BF81D0040120AF56D0EC
:1008A00003011C510401265D03011D510401275958
:1008B00004E226C41CF327C41DF371D80301010E02
:1008C000186F05C3E9FF06C3EAFFEE52080EEF6E8C
:1008D00005C3E9FF06C3EAFF020EE926000EEA227D
:1008E000200EEE6E040EED6E05C3E9FF06C3EAFFAF
:1008F000800EEF6E03C3E9FF04C3EAFFEE52080E59
:10090000EF6E03C3E9FF04C3EAFF020EE926000EFF
:10091000EA22200EEE6E040EED6E03C3E9FF04C35F
:10092000EAFF800EEF6E0FC3E9FF10C3EAFF020E6D
:10093000E926000EEA22280EEE6E040EED6E0FC3BD
:10094000E9FF10C3EAFFC80EEF6E28D00301020EC4
:10095000186F0FC3E9FF10C3EAFFEE52EF6A0FC32F
:10096000E9FF10C3EAFFC80EEF6E05C3E9FF06C337
:10097000EAFFEE52080EEF6E05C3E9FF06C3EAFF79
:10098000020EE926000EEA22280EEE6E040EED6E2F
:1009900005C3E9FF06C3EAFFC80EEF6E1200D9CF08
:1009A000E6FFE1CFD9FF020EE1260301080E1C5D30
:1009B000000E1D590EE21CC3DEFF1DC3DDFF1751E3
:1009C00003E1010E176F04D0170502E1020E176F45
:1009D00003D0080EDE6EDD6A0FC3E9FF10C3EAFF25
:1009E000EF920FC3E9FF10C3EAFFEF900FC3E9FFD7
:1009F00010C3EAFF010EDB50EF120FC3E9FF10C373
:100A0000EAFFEE52DFCFEFFF000EDB501C5F010E5E
:100A1000DB501D5B280E256F040E266F1BB121D005
:100A2000D9CFE9FFDACFEAFFEE50ED1019E019C394
:100A3000F6FF1AC3F7FF192B000E1A230800F55012
:100A4000E66E25C3E9FF26C3EAFF252B000E262309
:100A5000E552E750EF6EDF06010E01E2DB06E0D75C
:100A60001FD0D9CFE9FFDACFEAFFEE50ED1018E042
:100A700019C3E9FF1AC3EAFF192B000E1A23EF501E
:100A8000E66E25C3E9FF26C3EAFF252B000E2623C9
:100A9000E552E750EF6EDF06010E01E2DB06E1D71B
:100AA000020EE15C02E2E16AE552E16EE552E7CF57
:100AB000D9FF1200D9CFE6FFE1CFD9FF020EE12620
:100AC00003C3E9FF04C3EAFFEE52EFCFDFFFDFCF3E
:100AD00014F014500301215D000E225903E221C3DA
:100AE000DFFF09D0DF50146E156A1450215D216FAD
:100AF00015502259226F010EDB6ADF50F36E010E92
:100B0000DBCFF4FFF350F45C16E2010EDB50EA6A2F
:100B1000280FE96E040EEA22EF50E66E1EC3E9FFCD
:100B20001FC3EAFF1E2B000E1F23E552E750EF6E96
:100B3000010EDB2AE2D7000ED8802155000E225587
:100B400028E205C3E9FF06C3EAFFEE52080EEF6E86
:100B500005C3E9FF06C3EAFF020EE926000EEA22FA
:100B6000280EEE6E040EED6E03C3E9FF04C3EAFF28
:100B7000EF50400B07E105C3E9FF06C3EAFFC80ECB
:100B8000EF6E06D005C3E9FF06C3EAFF880EEF6EDD
:100B900018D005C3E9FF06C3EAFF020EE926000EDE
:100BA000EA22200EEE6E040EED6E2351241107E0B2
:100BB00005D024C3FAFF03012351F96EFADF0301C4
:100BC000209F020EE15C02E2E16AE552E16EE5522D
:100BD000E7CFD9FF120003011B8F020EE66EE66A13
:100BE000E66A710EE66E0F0EE66E9EEC1AF0146E5B
:100BF000050EE15E1450010EE66EE66AE66A020E2C
:100C0000E66E030EE66E9EEC1AF0146E050EE15EC3
:100C1000145022C401F30401225104E10301100E17
:100C2000006F05D00301200E006F31EC15F01200AB
:100C3000D9CFE6FFE1CFD9FF020EE126000EDE6E2E
:100C4000040EDD6EFD0EDB50040DF3CF16F0FE0E2C
:100C5000DB50080DF3501624146E156A020E0F0BAC
:100C600005E0D89015321432E806FBE1D89014362E
:100C70001536D89014361536D9CFE9FFDACFEAFF0A
:100C80001450EE261550ED22DECFE9FFDDCFEAFF4E
:100C9000EF9EFD0EDB500FE1FE0EEA6ADB34FE0B29
:100CA000EA36E96E070EE926030EEA22DECFEEFFF2
:100CB000DDCFEDFF0ED0FE0EEA6ADB34FE0BEA3626
:100CC000E96E0F0EE926030EEA22DECFEEFFDDCF3E
:100CD000EDFFDECFE9FFDDCFEAFFEF8C020EE15C36
:100CE00002E2E16AE552E16EE552E7CFD9FF120078
:100CF000D9CFE6FFE1CFD9FF020EE126FE0EDB5091
:100D0000156A700F146E0F0E152214C0DEFF15C089
:100D1000DDFFFD0EDB50E66EDECFE9FFDDCFEAFF43
:100D2000E552E750EE6EED6AFD0EDBA407D0E66AF1
:100D3000FE0EDBCFE6FF7CDFE552E552FD0EDBA2C7
:100D400008D0010EE66EFE0EDBCFE6FF71DFE55246
:100D5000E552020EE15C02E2E16AE552E16EE55223
:100D6000E7CFD9FF1200D9CFE6FFE1CFD9FF020EBE
:100D7000E126FE0EDB5020E105C3E9FF06C3EAFFD2
:100D8000EE52080EEF6E05C3E9FF06C3EAFF020E3E
:100D9000E926000EEA22200EEE6E040EED6E05C36B
:100DA000E9FF06C3EAFF8C0EEF6E0FC3E9FF10C325
:100DB000EAFF840EEF6E1DD0FD0EDBCFE6FFFE0EC8
:100DC000DB50E824E552E724040DF3CF14F0F4CF10
:100DD00015F0000E1426040E152214C0DEFF15C0F7
:100DE000DDFF840E146EDECFE9FFDDCFEAFF145085
:100DF000EF12020EE15C02E2E16AE552E16EE552B9
:100E0000E7CFD9FF1200D9CFE6FFE1CFD9FF020E1D
:100E1000E126FD0EDB500FE0FE0EEA6ADB34FE0B2E
:100E2000EA36E96E0F0EE926030EEA22EECFDEFF68
:100E3000EDCFDDFF0ED0FE0EEA6ADB34FE0BEA36A4
:100E4000E96E070EE926030EEA22EECFDEFFEDCFB4
:100E5000DDFFDECFE9FFDDCFEAFFEF7CDECFE9FF8C
:100E6000DDCFEAFF020EE926000EEA22FB0EDBCF01
:100E7000EEFFFC0EDBCFEDFFDECFE9FFDDCFEAFFBB
:100E8000EE52FA0EDBCFEFFF400E146EDECFE9FF1D
:100E9000DDCFEAFF1450EF16880E146EDECFE9FFA7
:100EA000DDCFEAFF1450EF12FD0EDB500BE0FE0E1B
:100EB000EA6ADB34FE0BEA36E96E0F0EE926030E12
:100EC000EA220AD0FE0EEA6ADB34FE0BEA36E96E4D
:100ED000070EE926030EEA22DECF14F0DDCF15F06F
:100EE00014C0F3FF15C0F4FF020EE15C03E200D072
:100EF000E16AE552E16EE552E7CFD9FF1200D9CFA2
:100F0000E6FFE1CFD9FF010EF36EFC0EDB5004E0EB
:100F1000D890F336E806FCE1F350E81C146EFD0EA1
:100F2000DBCFE9FFFE0EDBCFEAFF1450EF16E552F0
:060F3000E7CFD9FF12001B
:0A0F36008C8C320EE66EF3EC08F02E
:100F4000E5528C9C1200180EE66EA7EC1BF0E552E1
:100F50008C9C8D948C9E8C848C868C988C9AEBDFE8
:100F6000060EE66EA7EC1BF0E5528C848C868C98FE
:100F70008C9AE1DF180EE66EFDEC1BF0E5528C84D6
:100F80008C868C988C9AD7DF180EE66EFDEC1BF0E1
:100F9000E5528C948C868C988C9ACDDF060EE66E8A
:100FA000A7EC1BF0E552280EE66E12D8E552080EAB
:100FB000E66E0ED8E5520C0EE66E0AD8E552010E2A
:100FC000E66E06D8E552060EE66E02D8E55212002D
:100FD000D9CFE6FFE1CFD9FF8C948C968C988C9A70
:100FE000FE0EDBAE02D08C8A01D08C9ADBAC02D034
:100FF0008C8801D08C98DBAA02D08C8601D08C968C
:10100000DBA802D08C8401D08C9495DF060EE66EAE
:10101000A7EC1BF0E552FE0EDBA602D08C8A01D0B5
:101020008C9ADBA402D08C8801D08C98DBA202D0F1
:101030008C8601D08C96DBA002D08C8401D08C945D
:101040007ADF060EE66EA7EC1BF0E552E552E7CF1D
:10105000D9FF1200D9CFE6FFE1CFD9FF8D84FE0E74
:10106000DBCFE6FFB5DFE5528D94E552E7CFD9FF40
:101070001200D9CFE6FFE1CFD9FF8D84FD0EDBCF83
:10108000E9FFFE0EDBCFEAFFEF500EE0FD0EDBCFF7
:10109000E9FFDB2AFE0EDBCFEAFF01E3DB2AEF509C
:1010A000E66E96DFE552EAD78D94E552E7CFD9FF99
:0210B00012002C
:0E10B200D9CFE6FFDACFE6FFFA0EE3CFD9FF83
:1010C000FB0EE3CFDAFFFD0EE35209E72D0EDE6ED5
:1010D000FC0EE31EE32AFD0ED8B4E306E31EE6523F
:1010E000E652E652FD0EE124E76EFF0EE220E46ECA
:1010F000E652F70EE3CFE6FFF70EE3CFE6FFC9ECCB
:1011000008F0F90EE124E96EFF0EE220EA6EB9EC78
:1011100008F00AE1B6EC08F009E1B9EC08F008E1E2
:10112000B6EC08F007E108D0C4EC08F0BFEC08F01A
:10113000C4EC08F0BFEC08F0C4EC08F0DE6AF90E6D
:10114000E126FF0EE222FF0EE3CFDAFFE552FF0EAB
:10115000E3CFD9FFE552FC0EE124E96EFF0EE22059
:10116000EA6EEECFF3FFEFCFF4FF1200EF380F0B74
:101170001200EF500F0B02E1EE52D8841200EF384C
:101180000F0B300FDE6E1200EE500F0B300FDE6EC5
:101190001200FC0EE3CFE9FFFD0EE3CFEAFF100ED5
:1011A000E66EEE6AEE6AEF6AD890FD0EE336FE0E4A
:1011B000E336ED36ED36EF36FF0EE30609E0EAECF6
:1011C00008F0EE52EAEC08F0EE52EAEC08F0EDD747
:1011D000E56E1200030EEF24E8B6EF6E300EEF243A
:0611E000E8BEEF6E000CFA
:0A11E600FF0EE350E84E1200000077
:0C11F00000D000D000D0E82EFAD712008A
:0211FC001200DF
:021200001200DA
:0612080040EF12F012009D
:06121800DFEF12F01200EE
:02121E004BEC97
:101220000EF0FB0EDBCFF3FFDB06F35000090AE004
:1012300099EC0EF0FA0E04EC0FF0F3E1151CF1E15D
:10124000010E01D0000E7AEF0EF04BEC0EF03B0ECB
:10125000E12402E3E168E652E16E010EDB6A020E70
:10126000DB6AF90EDBCFF6FFFA0EDBCFF7FFFB0EE2
:10127000DBCFF8FF0800F550DF6EDF5002E19EEF94
:101280000DF0250EDF5C02E091EF0DF0030EDB6A3E
:10129000040EDB6A050EDB6A060EDB6A070EDB6AEC
:1012A000B3EC0DF02D0EDF5C0CE02B0EDF5C09E0E3
:1012B000200EDF5C06E0230EDF5C03E0300EDF5C17
:1012C0001AE1DF50300A14E0130A0FE0030A0AE0C3
:1012D0000B0A05E0060AE4E1030EDB80E1D7030E0A
:1012E000DB82DED7030EDB84DBD7030EDB86D8D7A9
:1012F000030EDB88D5D72A0EDF5C1BE1AFEC0DF0C7
:10130000FDEC0DF010E0030EDB8008680968130E99
:10131000DBCF0DF0140EDBCF0EF067EC19F0040EEE
:1013200006C0DBFF03D0130EE6EC0DF0B3EC0DF0BE
:101330000BD0090EDB6A54EC0EF003E0C8EC0EF0A3
:10134000FAD7090EE6EC0DF0030EDBB0DB982E0E9B
:10135000DF5C1BE1B3EC0DF02A0EDF5C0BE1AFECC0
:101360000DF0FDEC0DF003E1130E38EC0EF0B3ECD4
:101370000DF00BD0090EDB6A54EC0EF003E0C8EC64
:101380000EF0FAD7090E38EC0EF0680EDF5C07E1BC
:10139000B3EC0DF0680EDF5C1DE1030E18D0740E87
:1013A000DF5C17E07A0EDF5C14E0480EDF5C06E0DD
:1013B000540EDF5C03E05A0EDF5C02E1020E07D040
:1013C0006C0EDF5C03E06A0EDF5C04E1010E8BEC67
:1013D0000EF0C9DBDF506E0A01E17FD31E0A01E186
:1013E00092D1200A01E18FD13F0A01E149D11A0AC5
:1013F00001E146D10D0A01E143D1200A01E140D1CA
:101400003A0A01E13DD1200A01E13AD1260A01E17F
:1014100035D10D0A01E132D11A0A01E1D9D0200AF1
:101420004AE0300A1FE0460A0EE0250A01E083D3B5
:10143000D950F90FE96EFF0EDA20EA6E010EEE5E6A
:10144000000EEE5AEE5A99EC0EF0250EE66E95DB84
:1014500003E1151C01E169D395EC0EF001E26BD3B9
:10146000DB2A69D3080EDB6A040EDB50010806E2B2
:10147000040EDB045DEC0EF0DB508BDB080EDB5062
:1014800009E0030EDB50010B05E172DB01E04DD3F7
:10149000080EDB6A64DBEFCFDFFF0DEC0FF003E13A
:1014A000151C01E142D395EC0EF001E3DB2A60DB71
:1014B00001E141D33AD3070EDB5002080FE1D9EC2A
:1014C0000EF0030EA0EC0EF00E0EEECFDBFF0F0EB3
:1014D000EECFDBFF100EEECFDBFF20D0F70EDBCF21
:1014E00017F0F80EDBCF18F0020E175E000E185A38
:1014F000F70E17C0DBFFF80E18C0DBFF17C0E9FFBF
:1015000018C0EAFF90EC0EF0166A0E0E14C0DBFF56
:101510000F0E15C0DBFF100E16C0DBFF0E0EDBCF6B
:10152000E6FF0F0EDBCFE6FF100EDBCFE6FFC6ECCB
:101530001AF0E552E552E552130E07C0DBFF140E18
:1015400008C0DBFF060EDB5005E0130ED4EC0EF0F6
:1015500001E26ADBF8EC0EF002E2130E37DBBBECC3
:101560000EF006E0040ED4EC0EF002E2050E2EDBC7
:10157000030EDBB005D0FCDA01E0D7D2080EDB6A3F
:10158000090EDB6A0E0EDBCFF6FF0F0EDBCFF7FF87
:10159000100EDBCFF8FF0800F550DF6EDF5014E0CF
:1015A000FEEC0EF011E20DEC0FF003E1151C01E171
:1015B000BCD2BBDB01E3DB2A090EDB2AD9500E0FBC
:1015C000E96E000ECBDBE7D7D3DA01E1B4D2ADD2BE
:1015D000C6DA110EEECFDBFF120EEDCFDBFF110EE0
:1015E000DBCFE6FF120EDBCFE6FFB8EC1AF0E552D8
:1015F000E552130EF3CFDBFF140EF4CFDBFF060E24
:10160000DB5004E0130ED0DB01E20EDBF8EC0EF051
:1016100002E2130EDBDAAFDB05E0040EC5DB02E20B
:10162000050ED4DA030EDBB005D0A2DA01E07DD2DC
:10163000080EDB6A090EDB6A110EDBCFE9FF120E22
:10164000DBCFEAFFEFCFDFFFDF5014E0D7DB12E2A2
:10165000E4DB03E1151C01E168D267DB01E3DB2A6F
:10166000090EDB2A110EDB2ADBCFE9FF120EE8E3BD
:10167000DB2AE6D77DDA01E15ED257D2030EDB8E9C
:10168000070EDB0410E195DB040E5ADB0A0EEECFE9
:10169000DBFF0B0EEECFDBFF0C0EEECFDBFF0D0EF4
:1016A000EECFDBFF6CD0070EDB5003082CE1030EFE
:1016B000DBAE0DD0B2DA020E76DAEFCF14F0156A97
:1016C000166A176A14AE39D01568166835D0F70E49
:1016D000DBCF15F0F80EDBCF16F0020E155E000E14
:1016E000165AF70E15C0DBFFF80E16C0DBFF15C04B
:1016F000E9FF16C0EAFFEFCF14F00A0E14C0DBFFBB
:101700000B0EDB6A38D0070EDB50020809E1030E2E
:10171000DBAE04D059DB16AE10D00ED055DB0DD0A9
:10172000030EDBAE12D079DA020E3DDAF9DA166A70
:10173000176A15AE02D016681768E2DA0C0E16C0EA
:10174000DBFF0D0E17C0DBFF1AD0F70EDBCF16F054
:10175000F80EDBCF17F0020E165E000E175AF70ECA
:1017600016C0DBFFF80E17C0DBFF16C0E9FF17C07D
:10177000EAFFD6DAC5DA0C0EDB6A0D0EDB6A060E5E
:10178000DB5005E1010EF36E050EF3CFDBFF150E06
:10179000DB6A160EDB6AD950370F146E000EDA20A2
:1017A000156E390E14C0DBFF3A0E15C0DBFF380E84
:1017B000DB6A080EDB6A0A0EAEDADF50780A12E046
:1017C000200A10E0280A0CE0200A0AE03F0A06E09E
:1017D0000D0A02E0200A08E1020E05D0080E03D02F
:1017E000080EDF26100E97DA030EDBBE02D0DB9266
:1017F000DB94DB50800B24E08ADAD890030EEB50A8
:10180000000A08E6000EEE5C000EEE58000EEE58E0
:10181000000EEE5815E213DA0B680C680D680E68BE
:101820002DEC1BF00A0E02C0DBFF0B0E03C0DBFF2A
:101830000C0E04C0DBFF0D0E05C0DBFF2D0E08D023
:10184000030EDBA202D02B0E03D0DBA408D0200EA7
:10185000F36E170EF3CFDBFF150EDB2A02D0170E47
:10186000DB6A050EDB5003E1B7D901E189D0720EC6
:10187000146E380E156E000E166E070EDBCF17F0C5
:10188000186A196A1A6A17C00BF018C00CF019C050
:101890000DF01AC00EF0D3D965EC1BF014500224E1
:1018A000F36E15500320F46E16500420F86EF4CF3A
:1018B000F7FFF3CFF6FF0800090EF5CFDBFF580E58
:1018C000DF5C0FE1610EF36E090E7BD90AE3200E97
:1018D000146E090EDBCFE7FF1450E75E090EE7CF69
:1018E000DBFF070EDBCF14F0156A166A176A0FDAF2
:1018F00014C00BF015C00CF016C00DF017C00EF0A0
:10190000EECF06F0EECF07F0EECF08F0EFCF09F004
:1019100065EC1BF009C0EDFF08C0EDFF07C0EDFF4F
:1019200006C0EFFF390EDBCFE9FFDB063A0EDBCF57
:10193000EAFF01E2DB06090EDBCFEFFF150EDB2A23
:101940004BD995E1030EDBA61DD06F0EDF5C06E1DF
:10195000C1D918E3150EDB285BDA14D0780EDF5CF2
:1019600009E0580EDF5C06E0620EDF5C03E0420E29
:10197000DF5C08E1020EF36E160EF3CFDBFF02D040
:10198000150EDB6A030EDB50100B0EE0040EDBCFEE
:1019900014F0050EDB50D880145406E2060EDB501E
:1019A00003E1040EDB5034DA95D90AE2050EDBCFF1
:1019B000E7FF150EDB50E75E050EE7CFDBFF02D039
:1019C000050EDB6A040EDBCF14F0160E45D9D88065
:1019D000145414E2160EDBCFE6FF150EDBCFE6FF44
:1019E000040EDBCFE6FF050EDB50E552E75CE55267
:1019F000D880E754E552D880E7545FD9030EDB5016
:101A0000010B0BE1080EDB5008E0B2D801E08DD0ED
:101A1000080EDB50BED8080EDB6A170EDB5007E05D
:101A200088D9170EF1D903E1151C01E17ED0160EFD
:101A3000DB5016E07ED9300EE66E9FD802E1151C11
:101A400074E077D9DFCFE6FFEBEC1AF0E552E55210
:101A5000E552F4CF15F00001F31C02E1151C65E01E
:101A6000050EDBCF14F0160EDB50D880145409E2BB
:101A7000050EDBCFE7FF160EDB50E75E050EE7CF66
:101A8000DBFF300EE66E050ECBD94FE1390EDB2AB7
:101A9000DBCFE9FF3A0E01E3DB2ADBCFEAFF090ED9
:101AA000EFCFDBFFDB500EE044D9090EADD902E1E8
:101AB000151C3BE0390EDB2ADBCFE9FF3A0EEDE3E4
:101AC000DB2AEBD755D831E1160EDBCFE6FF080E47
:101AD000C3D8E552E7245DD82ED0070EDB50030AA9
:101AE0001CE0010A14E0030A07E07BD9DBCFEEFF1C
:101AF000020EDBCFEDFF1FD0F5D8196A17AE02D06A
:101B0000186819682CD8BCD819C0EEFF14D0EAD8D0
:101B100017BE186824D8B4D80ED063D9DBCFEFFF36
:101B20000AD07BD905E1151C03E1F368F46810D0F5
:101B3000FCD801E3DB2A79D93AEF09F0010EDBCFBB
:101B400014F0020EDBCF15F014C0F3FF15C0F4FF44
:101B50003B0EE15C02E2E16AE552E16ECBD029D9AD
:101B6000020EA0EF0EF061D90800F550DF6E1200F2
:101B7000200EE66E080E10EF0FF0EBEC1AF0E552B7
:101B8000E552E552F3CF14F0F4CF15F00001F31C49
:101B90001200146E156AD950010F4DD91450EE265B
:101BA0001550ED221200185E000E195AF70E18C0DB
:101BB000DBFFF80E19C0DBFF18C0E9FF19C0EAFF10
:101BC0001200DBCFF4FFF350F45C1200DB50E76E41
:101BD000040EE7CFDBFF12000A0EDBCF14F00B0E72
:101BE000DBCF15F00C0EDBCF16F00D0EDBCF17F0B0
:101BF00014501510161017101200130EEECFDBFF45
:101C0000140EEDCFDBFF130EDBCF14F0140EDBCF81
:101C100015F00001800E15141200F70EDBCF18F03E
:101C2000F80EDBCF19F01200050EDB50E66ED9502E
:101C3000130F01D9E552E750EE6EED6A12000A0E5D
:101C4000DBCF06F00B0EDBCF07F00C0EDBCF08F07E
:101C50000D0EDBCF09F01200DBCFE6FF150EDBCF58
:101C6000E6FF050EDB50E552E724E552E7241200BB
:101C7000DB50CED8010EF36E060EF3CFDBFF120061
:101C8000EE50EFCFEAFFE96E16C0EEFF17C0EEFF91
:101C900018C0EEFF1200D9CFE6FFDACFE6FFE1CFA2
:101CA000D9FFE2CFDAFF1200DFCFE6FFE66AEBEC06
:101CB0001BF0E552E552F3501200E76E080EE7CF35
:101CC000DBFF1200EECF14F0EECF15F0EFCF16F0E1
:101CD000176A1200050EDBCF14F0150EDB50D8800A
:101CE00014541200010EDBCF16F0020EDBCF17F0FA
:101CF000186A1200E552E5CFDAFFE7CFD9FF1200EC
:101D00000A0E14C0DBFF0B0E15C0DBFF1200D9500A
:101D10000A0F1BEF0FF0F36E070EF3CFDBFF12007D
:101D2000EECF14F0EFCF15F01200010EDB2A020EF9
:101D30001200FC0EDBCFE6FFFD0EDBCFE6FF12004C
:101D4000145E000E155AF70E14C0DBFFF80E15C016
:101D5000DBFF14C0E9FF15C0EAFF1200DA20EA6ECB
:101D6000EF2AEECFF6FF000EEF22EECFF7FFEF22C5
:101D7000EECFF8FF1200040EDBCFE6FF130EDB50B0
:101D8000E552E75C9ADFDB5004DF060EDB50120001
:101D9000090EDB500A0DF350DF24D00FE76E090E59
:101DA000E7CFDBFFB3EF0DF0DB50F36E050EE1EF95
:101DB0000DF0F70EDBCF14F0F80EDBCF15F01200AC
:101DC000DFCFE6FFBDEF0DF028DF030EECDE62EFA4
:101DD0000EF00FEC09F0E552E552E552E55200092C
:101DE0001200BDDEEE50EFCFEAFFE96E010E1200E9
:101DF000130EDB50F36E040EE1EF0DF0040EDB501A
:101E0000F36E090EE1EF0DF0DBCFE6FFBDEF0DF055
:101E1000E76E050EE7CFDBFF12008BDFE0EF0EF081
:101E2000DBCFE6FF86DFE9EF0EF0D950F90FE96E60
:101E3000FF0EAEEF0EF0E96E000EDA20EA6E120031
:101E40000A0EE66EFDEC1BF0E5520301330E516FF6
:101E5000526F230E536F3C0E546FC284C296C298C9
:101E6000C29AC280C282C2B2FED7C290C4500301DD
:101E7000356F366BD89035373637D890353736379B
:101E8000C350376F386B400E0D6E0E6A37C308F0C3
:101E900038C309F08CEC18F008C037F309C038F3E8
:101EA000030135513725396F365138213A6F39C31F
:101EB00008F03AC309F075EC17F007C014F008C039
:101EC00015F009C016F00AC017F051C30CF052C348
:101ED0000DF053C30EF054C30FF014C007F015C03B
:101EE00008F016C009F017C00AF088EC17F007C018
:101EF00055F308C056F309C057F30AC058F355C349
:101F000007F056C308F057C309F058C30AF0B2EC03
:101F100018F008C03BF309C03CF33BC308F03CC3D6
:101F200009F075EC17F007C018F008C019F009C0E7
:101F30001AF00AC01BF018C00CF019C00DF01AC03E
:101F40000EF01BC00FF055C307F056C308F057C37F
:101F500009F058C30AF0F5EC17F007C014F008C0F8
:101F600015F009C016F00AC017F00C6A0D6AC80E09
:101F70000E6E420E0F6E14C007F015C008F016C0AA
:101F800009F017C00AF088EC17F0B2EC18F008C09E
:101F90003DF309C03EF303013E3504E23D5109081B
:101FA000000E3E5522E33DC3E6FF3EC3E6FF3BC3C2
:101FB000E6FF3CC3E6FF420E146E370E156E166A3E
:101FC00014C0E6FF15C0E6FF16C0E6FF410EE66E40
:101FD000030EE66EF9EC19F0176E090EE15E17506C
:101FE000F3CF3FF3F4CF40F321D03DC3E6FF3EC330
:101FF000E6FF3BC3E6FF3CC3E6FF380E146E370E28
:10200000156E166A14C0E6FF15C0E6FF16C0E6FF9F
:10201000410EE66E030EE66EF9EC19F0176E090E2E
:10202000E15E1750F3CF3FF3F4CF40F38D948A0E67
:10203000E66EE8EC07F0E552410EE66E030EE66E42
:1020400039EC08F0E552E55212000A0EE66EFDEC9E
:102050001BF0E552C294C296C298C29AC2800A0E80
:10206000E66EFDEC1BF0E552C282C2B2FED7C29012
:10207000C4500301356F366BD89035373637D8905A
:1020800035373637C350376F386B400E0D6E0E6ADA
:1020900037C308F038C309F08CEC18F008C037F3E8
:1020A00009C038F3030135513725396F36513821CE
:1020B0003A6F516B526BA00E536F3B0E546F39C386
:1020C00008F03AC309F075EC17F007C014F008C027
:1020D00015F009C016F00AC017F051C30CF052C336
:1020E0000DF053C30EF054C30FF014C007F015C029
:1020F00008F016C009F017C00AF088EC17F007C006
:1021000055F308C056F309C057F30AC058F355C336
:1021100007F056C308F057C309F058C30AF0B2ECF1
:1021200018F008C03BF309C03CF33BC308F03CC3C4
:1021300009F075EC17F007C018F008C019F009C0D5
:102140001AF00AC01BF018C00CF019C00DF01AC02C
:102150000EF01BC00FF055C307F056C308F057C36D
:1021600009F058C30AF0F5EC17F007C014F008C0E6
:1021700015F009C016F00AC017F00C6A0D6AC80EF7
:102180000E6E420E0F6E14C007F015C008F016C098
:1021900009F017C00AF088EC17F0B2EC18F008C08C
:1021A0003DF309C03EF303013E3504E23D51090809
:1021B000000E3E5522E33DC3E6FF3EC3E6FF3BC3B0
:1021C000E6FF3CC3E6FF2E0E146E370E156E166A40
:1021D00014C0E6FF15C0E6FF16C0E6FF410EE66E2E
:1021E000030EE66EF9EC19F0176E090EE15E17505A
:1021F000F3CF3FF3F4CF40F321D03DC3E6FF3EC31E
:10220000E6FF3BC3E6FF3CC3E6FF250E146E370E28
:10221000156E166A14C0E6FF15C0E6FF16C0E6FF8D
:10222000410EE66E030EE66EF9EC19F0176E090E1C
:10223000E15E1750F3CF3FF3F4CF40F38D948A0E55
:10224000E66EE8EC07F0E552410EE66E030EE66E30
:1022500039EC08F0E552E5521200D9CFE6FFE1CFA4
:10226000D9FF020EE1260A0EE66EFDEC1BF0E552E8
:102270000301516B526B080E536F3C0E546FC294A6
:10228000C286C298C29AC280C282C2B2FED7C2902F
:10229000C4500301356F366BD89035373637D89038
:1022A00035373637C350376F386B400E0D6E0E6AB8
:1022B00037C308F038C309F08CEC18F008C037F3C6
:1022C00009C038F3030135513725396F36513821AC
:1022D0003A6F39C308F03AC309F075EC17F007C03C
:1022E00014F008C015F009C016F00AC017F051C369
:1022F0000CF052C30DF053C30EF054C30FF014C0D2
:1023000007F015C008F016C009F017C00AF088ECF5
:1023100017F007C055F308C056F309C057F30AC0B9
:1023200058F355C307F056C308F057C309F058C314
:102330000AF0B2EC18F008C03BF309C03CF33BC311
:1023400008F03CC309F075EC17F007C018F008C09E
:1023500019F009C01AF00AC01BF018C00CF019C01F
:102360000DF01AC00EF01BC00FF055C307F056C396
:1023700008F057C309F058C30AF0F5EC17F007C08E
:1023800014F008C015F009C016F00AC017F00C6A66
:102390000D6AC80E0E6E420E0F6E14C007F015C007
:1023A00008F016C009F017C00AF088EC17F0B2EC7C
:1023B00018F008C03DF309C03EF303013E3504E2C6
:1023C0003D510908000E3E5522E33DC3E6FF3EC3E2
:1023D000E6FF3BC3E6FF3CC3E6FF1B0E146E370E61
:1023E000156E166A14C0E6FF15C0E6FF16C0E6FFBC
:1023F000410EE66E030EE66EF9EC19F0176E090E4B
:10240000E15E1750F3CF3FF3F4CF40F321D03DC34B
:10241000E6FF3EC3E6FF3BC3E6FF3CC3E6FF120E0A
:10242000146E370E156E166A14C0E6FF15C0E6FF6F
:1024300016C0E6FF410EE66E030EE66EF9EC19F0EB
:10244000176E090EE15E1750F3CF3FF3F4CF40F360
:102450008D948A0EE66EE8EC07F0E552410EE66ECA
:10246000030EE66E39EC08F0E552E552020EE15C2F
:1024700002E2E16AE552E16EE552E7CFD9FF1200D0
:10248000D8CFE4FFE0CFE4FFE46EDACFE4FFE2CFA1
:10249000DAFFE9CFE4FFEACFE4FFF6CFE4FFF7CFBE
:1024A000E4FFF5CFE4FFF3CFE4FFF4CFE4FFFACF8E
:1024B000E4FF00EE00F0140EE80403E3EECFE4FFC7
:1024C000FBD700EE14F0080EE80403E3EECFE4FFC0
:1024D000FBD7E652310E0001E25D47E18D94870E95
:1024E000E66EE8EC07F0E552E30EE66E000EE66EEF
:1024F000E0C0E6FFE1C0E6FF59EC08F0E552E55226
:10250000E552E552E30EE66E000EE66E39EC08F099
:10251000E552E552480EE66E2AEC08F0E5527A0ED6
:10252000E66E2AEC08F0E552200EE66E2AEC08F082
:10253000E552200EE66E2AEC08F0E552200EE66E1B
:102540002AEC08F0E552200EE66E2AEC08F0E5527F
:10255000200EE66E2AEC08F0E552200EE66E2AEC1C
:1025600008F0E5520001E06BE16BF294E55200EEF9
:102570001BF0080EE80403E3E5CFEDFFFBD700EE08
:1025800013F0140EE80403E3E5CFEDFFFBD7E5CF2E
:10259000FAFFE5CFF4FFE5CFF3FFE5CFF5FFE5CF99
:1025A000F7FFE5CFF6FFE5CFEAFFE5CFE9FFE5CF9F
:1025B000DAFFE550E5CFE0FFE5CFD8FF1000D8CF38
:1025C000E4FFE0CFE4FFE46EDACFE4FFE2CFDAFF2E
:1025D000E9CFE4FFEACFE4FFF6CFE4FFF7CFE4FF73
:1025E000F5CFE4FFF3CFE4FFF4CFE4FFFACFE4FF4D
:1025F00000EE00F0140EE80403E3EECFE4FFFBD797
:1026000000EE14F0080EE80403E3EECFE4FFFBD77E
:10261000E652D59E0A0EE66EF3EC08F0E5528D7098
:1026200081A818D00001E251340A11E0070A0CE039
:10263000010A07E0030A01E00DD0E02B000EE123C0
:1026400009D025EC10F006D020EC0FF003D02DECD3
:1026500011F000D0D58EF290E55200EE1BF0080E7E
:10266000E80403E3E5CFEDFFFBD700EE13F0140E13
:10267000E80403E3E5CFEDFFFBD7E5CFFAFFE5CFB5
:10268000F4FFE5CFF3FFE5CFF5FFE5CFF7FFE5CFAB
:10269000F6FFE5CFEAFFE5CFE9FFE5CFDAFFE5504A
:1026A000E5CFE0FFE5CFD8FF1000A8D8A3EC07F0F6
:1026B000C10EE66E040EE66E39EC08F0E552E55206
:1026C0000001F66BF76BF86BF96BE06BE16B8D82D9
:1026D000640EE66EF3EC08F0E5528D800001310ED9
:1026E000E26FD08ED09CD082D080F28CF28EF62B0E
:1026F000000EF723880EF61902E1130EF71901E018
:102700007BD0F66BF76B81B01CD0310EE25D01E13E
:1027100018D0F29CF29E8D94800EE66EE8EC07F0E5
:10272000E552C10EE66E040EE66E39EC08F0E55295
:10273000E5520001E06BE16B310EE26FF28CF28E3C
:10274000D58E81B21CD0320EE25D01E118D0D59E4B
:10275000F2968D94800EE66EE8EC07F0E552CF0E0F
:10276000E66E040EE66E39EC08F0E552E55225EC13
:1027700010F00001E06BE16B320EE26FF28681B483
:102780001CD0330EE25D01E118D0D59EF29CF29E82
:102790008D94800EE66EE8EC07F0E552DD0EE66EF5
:1027A000040EE66E39EC08F0E552E5520001E06BEC
:1027B000E16B330EE26FF28CF28E81B61DD0340ED7
:1027C000E25D01E118D0D59EF29CF29E8D94800EC0
:1027D000E66EE8EC07F0E552EB0EE66E040EE66EF0
:1027E00039EC08F0E552E5520001E06BE16B340E84
:1027F000E26FF28CF28E00D07AD712009280928231
:10280000928492869288928AC290C294C296C2980A
:10281000C29AC19AC198C190C192C194C186C09E0A
:10282000C086C098C09AC090C082C08416EC00F0E8
:102830001AEF14F00001010EF56FD58ED59CD59AD4
:10284000D596D584D582D590F294F28AF184936896
:10285000F19EF286F190F298F096F0988C6A956A63
:102860008D6A966A93681200D9CFE6FFE1CFD9FF4F
:10287000020EE126A7D8200E0301005D03E36D5090
:10288000020B01E095D00301665101E08FD0400EAC
:10289000E66EA00EE66E000EE66EC6EC15F0E55292
:1028A000E552E552DF6EDF5001E180D0010EDB6AB8
:1028B000DF50F36E010EDBCFF4FFF350F45C76E2F1
:1028C000010EDB50EA6AA00FE96E000EEA22EF501B
:1028D0000D0A25E0070A01E044D0010EDB50EA6A48
:1028E000A00FE96E000EEA22EF50E66E010EDB50FB
:1028F000EA6A600FE96E000EEA22E552E750EF6ED9
:10290000010EDB50EA6A600FE96E000EEA22EF501A
:10291000E66EBEEC1BF0E552ACA2FED744D0010E31
:10292000DB50EA6AA00FE96E000EEA22EF50E66E75
:10293000010EDB50EA6A600FE96E000EEA22E552F2
:10294000E750EF6E010EDB50EA6A600FE96E000E91
:10295000EA22EF50E66EBEEC1BF0E552ACA2FED7C9
:1029600022D0010EDB50EA6AA00FE96E000EEA22C7
:10297000EF50E66E010EDB50EA6A600FE96E000E62
:10298000EA22E552E750EF6E010EDB50EA6A600F73
:10299000E96E000EEA22EF50E66EBEEC1BF0E55247
:1029A000ACA2FED700D0010EDB2A82D7C3EC16F012
:1029B000020EE15C02E2E16AE552E16EE552E7CF28
:1029C000D9FF12000401F951FA1104E1100EF96F58
:1029D000270EFA6FF907000EFA5B6DA20BD0F951C2
:1029E000FA1107E18C708C50010B02E08C8201D04F
:1029F0008C922FD00301005103E18C908C9229D04E
:102A0000000503E18C808C8224D0020E005D03E17E
:102A10008C808C921ED0040E005D03E18C908C8221
:102A200018D0100E005D07E10401F951FA1102E11E
:102A30008C708C920ED0200E005D0BE10401F951D8
:102A4000FA1107E18C708C50010B02E08C9201D0DE
:102A50008C821200120012001200120041EF15F0D9
:102A6000120092EF15F06D840001080EFA6F070E48
:102A7000FB6FFA07000EFB5BFA51FB11FAE16D9454
:022A8000120042
:0E2A8200040120511F0B010801E04AD0205131
:102A9000600BE842E842E842E842E842010801E00F
:102AA00040D0245103E0240501E03BD02151220A0B
:102AB00033E0030A26E0010A17E0210A0EE0010ACA
:102AC00001E02FD00301760E196F030E1A6F080E66
:102AD0001C6F1D6B1B811B8F24D00301760E196F99
:102AE000030E1A6F1B8F1DD026C421F327C422F3B7
:102AF0000301B80E1E6F040E1F6F236B246B208F13
:102B000010D00301B80E196F040E1A6F070E1C6F58
:102B10001D6BC10E1B6F05D022C471F303011B8F07
:102B200000D012000401B86B4B0EB96FBA6BBB6BCF
:102B3000BC6BBD6B080EBE6F0301666B656B1A0E36
:102B4000E66E020EE66E78EC06F0E552E5521E0ED9
:102B5000E66E030EE66E78EC06F0E552E552400EA6
:102B6000E66E380EE66E040EE66EE66A030EE66E5C
:102B700003EC07F0146E050EE15E1450F3CF6DF315
:102B8000F4CF6EF303016F6B706B1200D9CFE6FFC9
:102B9000E1CFD9FF0301656B6D516E1102E1000EAB
:102BA00008D06DC3E9FF6EC3EAFFEF50800B01E070
:102BB000010E000945E1FC0EDBCF14F06DC3E9FF07
:102BC0006EC3EAFFEE52EF50D880145408E26DC392
:102BD000E9FF6EC3EAFFEE52FC0EEFCFDBFF656B41
:102BE000FC0EDB50655D19E26551EA6A380FE96E4B
:102BF000040EEA22EF50E66E6551E76EFD0EDBCF64
:102C0000E9FFFE0EDBCFEAFFE750E926000EEA22DD
:102C1000E552E750EF6E652BE3D7400EE66E380EB7
:102C2000E66E040EE66EE66A030EE66E03EC07F04F
:102C3000146E050EE15E1450F3CF6DF3F4CF6EF316
:102C40000301655100D0E552E7CFD9FF1200D9CF7B
:102C5000E6FFE1CFD9FF030166510CE1FD0EDBCFAA
:102C600067F3FE0EDBCF68F3FC0EDBCF6BF3010ED8
:102C70006C6F666FE552E7CFD9FF1200D9CFE6FF40
:102C8000E1CFD9FF030EE1260301665101E02ED00A
:102C9000DF6AFD0EDBCF08F0FE0EDBCF09F0DE525F
:102CA00008C0DEFF09C0DDFFDD52DF2ADF50146EF1
:102CB000156AFF0E141801E1155001E10BD0010E49
:102CC000DBCFE9FFDB2A020EDBCFEAFF01E3DB2AE1
:102CD000EF50EBE1FD0EDBCF67F3FE0EDBCF68F3C9
:102CE000DFCF6BF30301010E6C6F666F030EE15CC7
:102CF00002E2E16AE552E16EE552E7CFD9FF120048
:102D0000D9CFE6FFE1CFD9FF030EE12603016651DB
:102D100001E02FD0DF6AFD0EDBCF08F0FE0EDBCF27
:102D200009F0DE5208C0DEFF09C0DDFFDD52DF2AF8
:102D3000DF50146E156AFF0E141801E1155001E101
:102D40000CD0010EDBCFF6FFDB2A020EDBCFF7FF44
:102D500001E3DB2A0800F550EAE1FD0EDBCF67F363
:102D6000FE0EDBCF68F3DFCF6BF303016C6B010E5C
:102D7000666F030EE15C02E2E16AE552E16EE55244
:102D8000E7CFD9FF1200D9CFE6FFE1CFD9FF020E7E
:102D9000E12603016F51701102E1000E08D06FC3EC
:102DA000E9FF70C3EAFFEF50800B01E0010E00095C
:102DB00001E08FD0030E665D01E1666B665101E1B3
:102DC00088D0020E665D16E1E66A000EE66EE66ADF
:102DD000010EE66E030EE66E03EC07F0146E050EB0
:102DE000E15E1450F3CF6FF3F4CF70F30301030EE1
:102DF000666F5BD0660559E1400E146E156A6B5123
:102E0000145C000E155803E2400EDF6E02D06BC357
:102E1000DFFFDF506B5D6B6F780E696F040E6A6FBA
:102E2000010EDFCFDBFF6C5117E1010EDB5013E029
:102E300067C3F6FF68C3F7FF0800F55069C3E9FFF1
:102E40006AC3EAFFEF6E692B000E6A23672B6823C3
:102E5000010EDB06EAD715D0010EDB5012E067C386
:102E6000E9FF68C3EAFFEF5069C3E9FF6AC3EAFFFD
:102E7000EF6E692B000E6A23672B6823010EDB06B9
:102E8000EBD76B5112E16FC3E9FF70C3EAFFEE525B
:102E9000EF50146E156A400E141801E1155003E14D
:102EA000020E666F02D0030E666FDFCFE6FF780E6C
:102EB000E66E040EE66E010EE66E030EE66E03ECA1
:102EC00007F0146E050EE15E1450F3CF6FF3F4CFEC
:102ED00070F3020EE15C02E2E16AE552E16EE55256
:062EE000E7CFD9FF12004C
:0A2EE600019E08D0019E09AE05D040
:102EF000086C091EE86A0922018E09C003F008C0A7
:102F000002F0136A126A8E0E046E056AFDEF18F065
:102F1000016A39EC19F051EC19F001B6E1EF18F043
:102F200001A205D001B8E1EF18F0E8EF18F001AA0E
:102F300005D001B0E1EF18F0E8EF18F001B002D0D1
:102F400001A802D0F4EF18F0056A0F500A24046EAD
:102F5000E86A05227E0E045EE86A055A126A136A60
:102F6000026A036A0E500902F4CF03F0F3CF02F0B5
:102F70000D500902F3501326F4500222000E0322D2
:102F80000E500802F3501326F4500222000E0322C2
:102F90000C500902F3501226F4501322000E0222A4
:102FA00003220D500802F3501226F4501322000E93
:102FB000022203220E500702F3501226F45013226D
:102FC000000E022203220C500802F4501226000EBA
:102FD0001322022203220D500702F4501226000E83
:102FE000132202220322FDEF18F00F7E016A39EC52
:102FF00019F051EC19F001B6E1EF18F001A20AD076
:1030000001AA03D001BEE1EF18F001A4EDEF18F022
:10301000EAEF18F001AA05D001ACEDEF18F0EAEFE5
:1030200018F001A00AD001A808D001BE04D001A464
:1030300002D0F6EF18F0FAEF18F0126A056A0F5096
:103040000A5C116E10E307C013F008C002F009C05B
:1030500003F00AC010F00CC007F00DC008F00EC05D
:1030600009F0013A09D00CC013F00DC002F00EC0F7
:1030700003F00FC010F0116C019E01BC018E10C056
:1030800004F001B029EF19F01A0E116029EF19F0C0
:10309000046A0A6A01A408D0076C081E091E0A1EE9
:1030A000E86A082209220A2201AC08D0136C021E29
:1030B000031E041EE86A022203220422066A115239
:1030C00007E00A340932083207320632112EF9D7E6
:1030D0000750132608500222095003220A500422E6
:1030E00006C012F0019E04AE0BD0126C131E021E1D
:1030F000031E041EE86A1322022203220422018E08
:1031000004A006D0D8800332023213321232102AC1
:1031100010C004F0FDEF18F0006A0EAE95EF18F045
:103120000D6C0E1EE86A0E22001E09AE9DEF18F00F
:10313000086C091EE86A0922001ED5EC1BF009BEC6
:10314000ADEF18F000AE000C086C091EE86A092209
:10315000046C051EE86A0522000C00BEA4EF18F0FE
:103160000188FF0C016A39EC19F001B6BCEF18F0C8
:1031700001A20ED001B405D07F0E096EFF0E086EBD
:103180001FD0800E096E086A1BD0096A086A18D021
:1031900001B0FBD78F0E0A60EDD77E0E0A64F5D71B
:1031A0008E0E0A5C05E0D890093208320A2AF8D758
:1031B00001A406D0086C091EE86A092209AEE5D709
:1031C00012007F0E0A6EFF0E096E086E076E120067
:1031D0007F0E01BEFF0E0A6E02D07F0E0A6E800EB9
:1031E000096E086A076AF3D701AE04D0800E0A6E32
:1031F000096AF7D70A6A096AF4D703500210131054
:103200001210F8E005BEF0D703BE0CD00450051034
:10321000EBE0D89012361336023603360406D8A0F7
:103220000506F2D70550D4E10428D2E012AE11D041
:103230007F0E121402E113A00CD0132AE86A0222B6
:10324000032207E3D880033202321332042A04280F
:10325000BFE00450C9E013C007F002C008F0033417
:10326000096E04300A6E09320A9E01BE0A8EE7EF2B
:1032700018F009360A3602E30184017E06E1018076
:103280000A6A096A086A076A12000A2803E0D880F5
:1032900009321200D890093202E10182120001863F
:1032A00012000E360F3602E3018C017E06E1018822
:1032B0000F6A0E6A0D6A0C6A12000F2803E0D880AC
:1032C0000E321200D8900E32EAE1018A120009C0D3
:1032D00013F008C012F008500D02F4CF07F0F3CF3E
:1032E00006F009500E02F4CF09F0F3CF08F00D02FA
:1032F000F3500726F4500822E86A092212500E0201
:10330000F3500726F4500822E86A09220EAE8DEF2A
:1033100019F01250085E1350095A13AE000C0D50EC
:08332000085E0E50095A000C72
:0833280012010002020000087E
:10333000D8040A0001000102000109024300020151
:1033400000C032090400000102020100052400103F
:1033500001042402020524060001052401000107DE
:1033600005820308000209040100020A00000007A8
:103370000503024000000705830240000004030922
:103380000434034D006900630072006F006300683D
:103390000069007000200054006500630068006E42
:1033A000006F006C006F0067007900200049006E1C
:1033B0000063002E00340343004400430020005209
:1033C0000053002D00320033003200200045006D14
:1033D0000075006C006100740069006F006E0020D1
:1033E00000440065006D006F003A337D338133B5D2
:0133F00033A9
:0E33F200D9CFE6FFDACFE6FFE1CFD9FFE2CF79
:10340000DAFFE652E652E652E652D950F90F146E50
:10341000FF0EDA20156E020E14C0DBFF030E15C07E
:10342000DBFF020EDBCFE6FF030EDBCFE6FFF90E7C
:10343000DBCFE6FFFA0EDBCFE6FFFB0EDBCFE6FFCE
:10344000D950FC0FE66EFF0EDA20E66E25EC09F08F
:10345000146E070EE15C02E2E16AE552E16E14507F
:10346000F3CFDEFFF4CFDDFFFC0EDBCFE9FFFD0E77
:10347000DBCFEAFFEF6ADECF14F0DDCF15F014C02A
:10348000F3FF15C0F4FF040EE15C02E2E16AE552CD
:0E349000E16EE552E5CFDAFFE7CFD9FF12007B
:02349E001E0E00
:1034A000F66E000EF76E000EF86E03010900F5507F
:1034B000836F0900F550846F03E1836701D03DD02D
:1034C0000900F5507E6F0900F5507F6F0900F55037
:1034D000806F09000900F550E96E0900F550EA6EA9
:1034E000090009000900F550816F0900F550826F4D
:1034F00009000900F6CF85F3F7CF86F3F8CF87F3FD
:103500007EC3F6FF7FC3F7FF80C3F8FF030181533B
:1035100002E1825307E00900F550EE6E8107F8E200
:103520008207F9D785C3F6FF86C3F7FF87C3F8FF85
:0C35300003018307000E845BBFD712006C
:04353C00FE0EE3CFCD
:10354000E9FFFF0EE3CFEAFFE9CFF3FFEACFF4FF95
:10355000FB0EE35003E1FC0EE35009E0FB0EE30633
:1035600002E2FC0EE306FD0EE350EE6EF1D7120010
:10357000FE0EE3CFE9FFFF0EE3CFEAFFF36AF46A42
:10358000EE5203E0F34AF42AFBD71200FF0EE3CF1A
:10359000F8FFE552FF0EE3CFF7FFE552FF0EE3CF52
:1035A000F6FFE552E66AE66AE66A0900F55209E0C6
:1035B000FD0EE32A05E1FE0EE32A02E1FF0EE32AF7
:1035C000F4D7FD0EE3CF07F0FE0EE3CF08F0FF0EB9
:0635D000E3CF09F0120038
:0A35D600D9CFE6FFDACFE6FFE1CF20
:1035E000D9FFE2CFDAFFFB0EDBCF14F0FC0EDBCF0E
:1035F00015F00001800E15141AE1FB0EDBCFE9FF78
:10360000FC0EDBCFEAFFEECFF3FFEDCFF4FFEE2AA7
:10361000000EEF22F3CFE9FFF4CFEAFFFD0EDBCF80
:10362000EFFFEF50156AF36E15C0F4FF10D0FB0EDC
:10363000DB50FE0806E1FD0EDBCFE6FF2BEC1CF0B5
:1036400005D0FD0EDBCFE6FF03EC00F0E552E552BE
:0A365000E5CFDAFFE7CFD9FF120043
:06365A0006500B02F3CF45
:1036600002F0F4CF03F00C02F3500326000EF42016
:10367000046E06500D02F3500426000EF420056E71
:1036800006500E02F350052607500B02F350032696
:10369000F4500422000E052207500C02F3500426B9
:1036A000F450052207500D02F350052608500B0276
:1036B000F3500426F450052208500C02F35005265E
:0A36C00009500B02F350052612001A
:0636CA00056A046A036AB0
:1036D000026A200EE76ED89006360736083609369D
:1036E00002360336043605360B50025C0C50035884
:1036F0000D5004580E50055809E30B50025E0C5053
:10370000035A0D50045A0E50055A062AE72EE4D7E4
:023710001200A5
:0E37120025692E25694120200025692E3025CD
:10372000694120200025692E256956202000256941
:103730002E3025695620200025692E25696D4120EF
:0D374000200025692E3025696D41202000F4
:02374E00FF0E6C
:10375000E3501D6EEF0E01D0F30EE76EE72EAEEFD5
:103760001BF00C0E1C6EE76AE72EB4EF1BF01C2E4C
:0C377000B3EF1BF01D2EACEF1BF012009D
:04377C00D9CFE6FFBC
:10378000DACFE6FFE1CFD9FFE2CFDAFFACAC04D06D
:10379000AC900001FCB3AC80FD0EDB50AD6EE55289
:0A37A000E5CFDAFFE7CFD9FF1200F2
:0637AA00056A046A100E1E
:1037B000E76ED89008360936043605360D50045C9D
:1037C0000E50055805E30D50045E0E50055A082AA8
:0637D000E72EF0D7120005
:0A37D600F36AF46AFF0EE124E96EC5
:1037E000FF0EE220EA6EED6607D02F0EEF6404D0E4
:0A37F0003A0EEF6001D0F32A120038
:0637FA00FF0EE3501D6EFE
:10380000480E01D04C0EE76EE72EFED7E76AE72E92
:0A381000FED71D2EF7D700001200AE
:06381A00000EF36E00EE4B
:1038200000F0080E01D81200EA6002D0EE6AFCD760
:0A383000F350E9601200EE6AFCD7C5
:06383A0012EE00F022EE88
:1038400000F0F86A019C4FEC1AF0FEEC08F055EC21
:0638500013F0FBD712008B
:0A385600FF0EE350ACBA04D0AF6AD5
:10386000AB8EAC8A949CACA2FED7AD6EF36EF46ABC
:02387000120044
:0E3872003031323334353637383961626364B1
:033880006566007A
:0D388300000066726571203D20000E0E0EE3
:103890000E0E0E566F6C74616765203D20000000AF
:1038A0000042617365437572203D200000000043B3
:0F38B000757272656E74203D20000000000000EC
:020000040030CA
:0100000024DB
:010001000EF0
:0100020019E4
:010003001EDE
:010005008179
:010006008178
:010008000FE8
:01000900C036
:01000A000FE6
:01000B00E014
:01000C000FE4
:01000D0040B2
:00000001FF
