:020000040000FA
:06000000A7EF26F012003C
:020006001200E6
:0600080004EF08F01200F5
:02000E000000F0
:0400100000000000EC
:060018000CEF08F01200DD
:02001E000200DE
:10002000B34D000000010000C80000000E000000F9
:08003000F500000006000000CD
:08003800D9CFE6FFE1CFD9FFAB
:10004000060EE126C294C296C298C29AC280C282AB
:10005000C2B2FED7C290C450DE6EDD6ADECF14F0AD
:10006000DDCF15F0D89014361536D89014361536E5
:1000700014C0DEFF15C0DDFFC350E66ED950020F7D
:10008000E96EDACFEAFFE552E750EE6EED6A020E56
:10009000DBCF14F0030EDBCF15F0060ED89015322F
:1000A0001432E804FBE1020E14C0DBFF030E15C09E
:1000B000DBFF020EDBCF16F0030EDBCF17F0DE50B6
:1000C0001624146EDD501720156E040E14C0DBFFCD
:1000D000050E15C0DBFF040EDBCF14F0050EDBCFE1
:1000E00015F0153404E214503208000E155407E3DD
:1000F000310EF36E040EF3CFDBFF050EDB6A040E48
:10010000DBCF14F0050EDBCF15F0D890155004E6C8
:10011000E80E145C030E15580AE3E70EF36E040EA6
:10012000F3CFDBFF030EF36E050EF3CFDBFF040E00
:10013000DBCF14F0050EDBCF15F014C0F3FF15C0B4
:10014000F4FF060EE15C03E200D0E16AE552E16EE5
:10015000E552E7CFD9FF1200D9CFE6FFE1CFD9FFB3
:100160000E0EE126D9500C0FE96EDACFEAFF000E31
:10017000EE6E010EED6E0A0EDB6A0B0EDB6AD950D5
:100180000A0FE96EDACFEAFF310ED880EE54000E86
:10019000ED5401E2A0D0FB0EDBCFE9FFFC0EDBCF7C
:1001A000EAFFEECF14F0EFCF15F00A0EDBCF18F018
:1001B0000B0EDBCF19F0010ED89018361936E80671
:1001C000FBE10C0EDB501824E96E0D0EDB501920FC
:1001D000EA6EEECF16F0EFCF17F017501518E8AE15
:1001E00002D0153404D01450165C155017586DE326
:1001F0000A0EDBCF16F00B0EDBCF17F0010ED890F6
:1002000016361736E806FBE10C0EDB501624E96EB5
:100210000D0EDB501720EA6E640EE926000EEA226E
:10022000EECF14F0EFCF15F0FD0EDBCFE9FFFE0EA1
:10023000DBCFEAFF14C0EEFF15C0EDFFFD0EDBCFF4
:10024000E9FFFE0EDBCFEAFFEECFDEFFEDCFDDFFF5
:10025000FD0EDBCFE9FFFE0EDBCFEAFFEECF14F0A1
:10026000EFCF15F0FF0E1416000E1516020E14C077
:10027000DBFF030E15C0DBFFFD0EDBCFE9FFFE0E3B
:10028000DBCFEAFFEECF14F0EFCF15F015C014F07E
:10029000156AFF0E1416000E1516040E14C0DBFFAF
:1002A000050E15C0DBFF040EDB50D76E020EDB50CF
:1002B000D66ED650E66ED950060FE96EDACFEAFF59
:1002C000E552E750EE6EED6A06D00A0EDB2A0B0E01
:1002D00001E3DB2A54D70A0EDBCF14F00B0EDBCF81
:1002E00015F0090E145C000E155801E3C8D0050185
:1002F0008F51901162E1010EE76E0A0EDBCF14F010
:100300000B0EDBCF15F0E7501426000E152214C09B
:10031000E6FF15C0E6FFAB0E166E490E176E186AA3
:1003200016C0E6FF17C0E6FF18C0E6FFA10EE66E96
:10033000050EE66EDEEC24F0196E070EE15E195034
:10034000080EF3CFDBFF090EF4CFDBFF8C94800E99
:10035000E66EBAEC1CF0E552A10EE66E050EE66EF6
:100360000BEC1DF0E552E552C00EE66EBAEC1CF047
:10037000E552A20E146E490E156E166A14C0E6FF01
:1003800015C0E6FF16C0E6FFA10EE66E050EE66E8E
:10039000DEEC24F0176E050EE15E1750080EF3CF69
:1003A000DBFF090EF4CFDBFFA10EE66E050EE66E55
:1003B0000BEC1DF0E552E55261D0800EE66EBAEC12
:1003C0001CF0E5528E0E146E490E156E166A14C09E
:1003D000E6FF15C0E6FF16C0E6FFA10EE66E050EAD
:1003E000E66EDEEC24F0176E050EE15E1750080E87
:1003F000F3CFDBFF090EF4CFDBFFA10EE66E050E97
:10040000E66E0BEC1DF0E552E552010EE76E0A0EAA
:10041000DBCF14F00B0EDBCF15F0E7501426000EE7
:10042000152214C0E6FF15C0E6FF7C0E166E490EBD
:10043000176E186A16C0E6FF17C0E6FF18C0E6FF81
:10044000A10EE66E050EE66EDEEC24F0196E070EC8
:10045000E15E1950080EF3CFDBFF090EF4CFDBFF8E
:100460008C94C00EE66EBAEC1CF0E552A10EE66E5E
:10047000050EE66E0BEC1DF0E552E5529BD0050132
:100480008F51901136E1800EE66EBAEC1CF0E55209
:10049000A10EE66E050EE66E0BEC1DF0E552E55280
:1004A000C00EE66EBAEC1CF0E552730E146E490EE7
:1004B000156E166A14C0E6FF15C0E6FF16C0E6FF0B
:1004C000A10EE66E050EE66EDEEC24F0176E050E4C
:1004D000E15E1750080EF3CFDBFF090EF4CFDBFF10
:1004E000A10EE66E050EE66E0BEC1DF0E552E55230
:1004F00061D0800EE66EBAEC1CF0E5528E0E146EE2
:10050000490E156E166A14C0E6FF15C0E6FF16C048
:10051000E6FFA10EE66E050EE66EDEEC24F0176E29
:10052000050EE15E1750080EF3CFDBFF090EF4CF86
:10053000DBFFA10EE66E050EE66E0BEC1DF0E5523C
:10054000E552010EE76E0A0EDBCF14F00B0EDBCF87
:1005500015F0E7501426000E152214C0E6FF15C052
:10056000E6FF7C0E166E490E176E186A16C0E6FF7F
:1005700017C0E6FF18C0E6FFA10EE66E050EE66E98
:10058000DEEC24F0196E070EE15E1950080EF3CF71
:10059000DBFF090EF4CFDBFF8C94C00EE66EBAECE5
:1005A0001CF0E552A10EE66E050EE66E0BEC1DF09A
:1005B000E552E552010EF36EF46A0E0EE15C03E2C1
:1005C00000D0E16AE552E16EE552E7CFD9FF1200B3
:1005D000D9CFE6FFE1CFD9FF320EE1260E0EDB6A5E
:1005E0000F0EDB6A100EDB6A110EDB6A120EDB6A7D
:1005F000130EDB6A140EDB6A150EDB6A1E0EDB6A55
:100600001F0EDB6A200EDB6A210EDB6A160EDB6A28
:10061000170EDB6AA00EF36E180EF3CFDBFF3B0E56
:10062000F36E190EF3CFDBFFC294C296C288C29A52
:10063000C280C282C2B2FED7C290C450E66ED95008
:100640000A0FE96EDACFEAFFE552E750EE6EED6A87
:100650000A0EDBCF14F00B0EDBCF15F0D89014365A
:100660001536D890143615360A0E14C0DBFF0B0E63
:1006700015C0DBFFC350E66ED9500C0FE96EDACF20
:10068000EAFFE552E750EE6EED6A0C0EDBCF14F098
:100690000D0EDBCF15F0060ED89015321432E8049B
:1006A000FBE10C0E14C0DBFF0D0E15C0DBFF0C0EC2
:1006B000DBCF18F00D0EDBCF19F00A0EDB5018243B
:1006C000146E0B0EDB501920156E166A176A15AEE4
:1006D00002D0166817680E0E14C0DBFF0F0E15C08F
:1006E000DBFF100E16C0DBFF110E17C0DBFF0E0E76
:1006F000DBCF18F00F0EDBCF19F0100EDBCF1AF0A6
:10070000110EDBCF1BF018C006F019C007F01AC09D
:1007100008F01BC009F051EC22F0160EDBCF0CF0F4
:10072000170EDBCF0DF0180EDBCF0EF0190EDBCF5E
:100730000FF06AEC22F007C014F008C015F009C0F1
:1007400016F00AC017F00C6A0D6AE00E0E6E3F0E2E
:100750000F6E14C007F015C008F016C009F017C0DE
:100760000AF06AEC22F01A0E07C0DBFF1B0E08C06D
:10077000DBFF1C0E09C0DBFF1D0E0AC0DBFF1A0EDB
:10078000DBCF07F01B0EDBCF08F01C0EDBCF09F030
:100790001D0EDBCF0AF09BEC23F008C0DEFF09C082
:1007A000DDFF1A0EDBCF18F01B0EDBCF19F01C0E8D
:1007B000DBCF1AF01D0EDBCF1BF00C6A0D6AC80EE2
:1007C0000E6E420E0F6E18C007F019C008F01AC066
:1007D00009F01BC00AF06AEC22F007C014F008C050
:1007E00015F009C016F00AC017F0640E086E096A09
:1007F000DECF0DF0DDCF0EF06EEC23F006C020F062
:1008000007C021F020C008F021C009F03CEC22F024
:1008100007C01CF008C01DF009C01EF00AC01FF080
:100820001CC00CF01DC00DF01EC00EF01FC00FF05C
:1008300014C007F015C008F016C009F017C00AF080
:10084000D7EC22F09BEC23F0020E08C0DBFF030E76
:1008500009C0DBFF020EDBCF14F0030EDBCF15F077
:10086000D890155004E60A0E145C000E155801E3EA
:10087000D2D005018F5190116BE18C94800EE66E01
:10088000BAEC1CF0E552020EDBCFE6FF030EDBCF25
:10089000E6FFDECFE6FFDDCFE6FF620E146E490E07
:1008A000156E166A14C0E6FF15C0E6FF16C0E6FF17
:1008B000D950220FE66E000EDA20E66EDEEC24F050
:1008C000176E090EE15E1750040EF3CFDBFF050E25
:1008D000F4CFDBFFD950220FE66E000EDA20E66E71
:1008E0000BEC1DF0E552E5528C94C00EE66EBAECAE
:1008F0001CF0E552020EDBCFE6FF030EDBCFE6FF76
:10090000590E146E490E156E166A14C0E6FF15C016
:10091000E6FF16C0E6FFD950220FE66E000EDA2081
:10092000E66EDEEC24F0176E070EE15E1750080E3F
:10093000F3CFDBFF090EF4CFDBFFD950220FE66EB9
:10094000000EDA20E66E0BEC1DF0E552E55262D0A7
:10095000800EE66EBAEC1CF0E552470E146E490E9E
:10096000156E166A14C0E6FF15C0E6FF16C0E6FF56
:10097000D950220FE66E000EDA20E66EDEEC24F08F
:10098000176E050EE15E1750080EF3CFDBFF090E60
:10099000F4CFDBFFD950220FE66E000EDA20E66EB0
:1009A0000BEC1DF0E552E552C00EE66EBAEC1CF001
:1009B000E552020EDBCFE6FF030EDBCFE6FFDECF14
:1009C000E6FFDDCFE6FF320E146E490E156E166A95
:1009D00014C0E6FF15C0E6FF16C0E6FFD950220F8F
:1009E000E66E000EDA20E66EDEEC24F0176E090EDD
:1009F000E15E1750040EF3CFDBFF050EF4CFDBFFF3
:100A0000D950220FE66E000EDA20E66E0BEC1DF0D8
:100A1000E552E552D1D005018F5190116BE18C94D4
:100A2000800EE66EBAEC1CF0E552020EDBCFE6FF5C
:100A3000030EDBCFE6FFDECFE6FFDDCFE6FF200EC5
:100A4000146E490E156E166A14C0E6FF15C0E6FF57
:100A500016C0E6FFD950220FE66E000EDA20E66ED1
:100A6000DEEC24F0176E090EE15E1750040EF3CF92
:100A7000DBFF050EF4CFDBFFD950220FE66E000E30
:100A8000DA20E66E0BEC1DF0E552E5528C94C00EB8
:100A9000E66EBAEC1CF0E552020EDBCFE6FF030E69
:100AA000DBCFE6FF180E146E490E156E166A14C0E1
:100AB000E6FF15C0E6FF16C0E6FFD950220FE66E2E
:100AC000000EDA20E66EDEEC24F0176E070EE15E13
:100AD0001750080EF3CFDBFF090EF4CFDBFFD95020
:100AE000220FE66E000EDA20E66E0BEC1DF0E552EA
:100AF000E55262D0800EE66EBAEC1CF0E552470E6D
:100B0000146E490E156E166A14C0E6FF15C0E6FF96
:100B100016C0E6FFD950220FE66E000EDA20E66E10
:100B2000DEEC24F0176E050EE15E1750080EF3CFD1
:100B3000DBFF090EF4CFDBFFD950220FE66E000E6B
:100B4000DA20E66E0BEC1DF0E552E552C00EE66EC3
:100B5000BAEC1CF0E552020EDBCFE6FF030EDBCF52
:100B6000E6FFDECFE6FFDDCFE6FF040E146E490E92
:100B7000156E166A14C0E6FF15C0E6FF16C0E6FF44
:100B8000D950220FE66E000EDA20E66EDEEC24F07D
:100B9000176E090EE15E1750040EF3CFDBFF050E52
:100BA000F4CFDBFFD950220FE66E000EDA20E66E9E
:100BB0000BEC1DF0E552E5520E0EDBCF14F00F0EDC
:100BC000DBCF15F014C0F3FF15C0F4FF320EE15C6B
:100BD00003E200D0E16AE552E16EE552E7CFD9FFCA
:100BE0001200D9CFE6FFE1CFD9FF240EE126200E77
:100BF000DB6A210EDB6AA00EF36E220EF3CFDBFF61
:100C00003B0EF36E230EF3CFDBFF200EDBCF14F091
:100C1000210EDBCF15F0220EDBCF16F0230EDBCF3B
:100C200017F0FD0EDBCFE9FFFE0EDBCFEAFFEECFC4
:100C300008F0EDCF09F03CEC22F007C018F008C036
:100C400019F009C01AF00AC01BF018C00CF019C046
:100C50000DF01AC00EF01BC00FF014C007F015C045
:100C600008F016C009F017C00AF06AEC22F0180E5E
:100C700007C0DBFF190E08C0DBFF1A0E09C0DBFF3F
:100C80001B0E0AC0DBFFD950180FE96EDACFEAFF5E
:100C90001C0EEECFDBFF1D0EEECFDBFF1E0EEECFE8
:100CA000DBFF1F0EEECFDBFF1C0EDBCF07F01D0EB0
:100CB000DBCF08F01E0EDBCF09F01F0EDBCF0AF0F2
:100CC0009BEC23F008C0DEFF09C0DDFF1C0EDBCF6C
:100CD00018F01D0EDBCF19F01E0EDBCF1AF01F0E21
:100CE000DBCF1BF00C6A0D6AC80E0E6E420E0F6E43
:100CF00018C007F019C008F01AC009F01BC00AF0AC
:100D00006AEC22F007C014F008C015F009C016F014
:100D10000AC017F0640E086E096ADECF0DF0DDCF51
:100D20000EF06EEC23F006C020F007C021F020C0CA
:100D300008F021C009F03CEC22F007C01CF008C00C
:100D40001DF009C01EF00AC01FF01CC00CF01DC031
:100D50000DF01EC00EF01FC00FF014C007F015C03C
:100D600008F016C009F017C00AF0D7EC22F09BEC8F
:100D700023F0020E08C0DBFF030E09C0DBFF1C0ED0
:100D8000DBCF18F01D0EDBCF19F01E0EDBCF1AF0F3
:100D90001F0EDBCF1BF00C6A0D6A200E0E6E410E8B
:100DA0000F6E18C007F019C008F01AC009F01BC078
:100DB0000AF06AEC22F007C014F008C015F009C070
:100DC00016F00AC017F00A0E086E096ADECF0DF0A1
:100DD000DDCF0EF06EEC23F006C020F007C021F04E
:100DE00020C008F021C009F03CEC22F007C01CF044
:100DF00008C01DF009C01EF00AC01FF01CC00CF096
:100E00001DC00DF01EC00EF01FC00FF014C007F083
:100E100015C008F016C009F017C00AF0D7EC22F090
:100E20009BEC23F0060E08C0DBFF070E09C0DBFFBA
:100E3000020EDBCFE6FF030EDBCFE6FFDECFE6FFE1
:100E4000DDCFE6FFF80E146E480E156E166A14C05C
:100E5000E6FF15C0E6FF16C0E6FFD950080FE66EA4
:100E6000000EDA20E66EDEEC24F0176E090EE15E6D
:100E70001750040EF3CFDBFF050EF4CFDBFF8C948D
:100E8000800EE66EBAEC1CF0E552D950080FE66E03
:100E9000000EDA20E66E0BEC1DF0E552E552C00EB6
:100EA000E66EBAEC1CF0E552060EDBCFE6FF070E4D
:100EB000DBCFE6FFEF0E146E480E156E166A14C0F7
:100EC000E6FF15C0E6FF16C0E6FFD950080FE66E34
:100ED000000EDA20E66EDEEC24F0176E070EE15EFF
:100EE0001750040EF3CFDBFF050EF4CFDBFFD95014
:100EF000080FE66E000EDA20E66E0BEC1DF0E552F0
:100F0000E552240EE15C02E2E16AE552E16EE5524F
:060F1000E7CFD9FF12003B
:0A0F16001201000202000008D804D6
:100F20000A0000010102000109024300020100C0A1
:100F3000320904000001020201000524001001042E
:100F40002402020524060001052401000107058191
:100F50000308000209040100020A0000000705025C
:100F60000240000007058202400000040309043427
:100F7000034D006900630072006F00630068006940
:100F8000007000200054006500630068006E006F70
:100F9000006C006F0067007900200049006E00635C
:100FA000002E00340343004400430020005200534D
:100FB000002D00320033003200200045006D007526
:100FC000006C006100740069006F006E0020004436
:0F0FD0000065006D006F00280F6B0F6F0FA30FF0
:100FE000FF0EE350256E480E01D04C0EE76EE72E43
:100FF000FED7E76AE72EFED7252EF7D700001200AE
:06100000A7EF26F012002C
:021006001200D6
:061008009AEF17F0120040
:06101800AEEF17F012001C
:02101E00D9CF28
:10102000E6FFE1CFD9FFE652A09A6A6A686A706A61
:10103000020EE66EE66AE66A710EE66E0F0EE66E68
:1010400083EC25F0146E050EE15E1450160E6F6EE3
:101050009F0E6B6E7B0E696EDF6ADF50146E156A31
:101060000C0E145C000E155810E2DF50040DF3CF87
:10107000E9FFF4CFEAFF000EE926040EEA22EE6A49
:10108000EE6AEE6AEE6ADF2AE8D76D8C6E6A6D98BA
:101090006D9C68A607D068960101DF6BE46BE56B79
:1010A000E66BF7D70101010EF86FF96FFA6BFB6B76
:1010B000EC6BDF6A030EDF5C26E2EA6ADF34FE0BCC
:1010C000EA36E96ED50EE926010EEA22EE6AED6AED
:1010D000EA6ADF34FE0BEA36E96ECF0EE926010E2E
:1010E000EA22EE6AED6ADF50EA6AF00FE96E010E5D
:1010F000EA22EF6ADF50EA6AF30FE96E010EEA2294
:10110000EF6ADF2AD7D70101080ED56F040ED66F1C
:10111000160E706E0401300E026F040E036F080E7F
:10112000016F840E006F0101C96BC86BE552E55277
:10113000E7CFD9FF1200D9CFE6FFE1CFD9FFE652C2
:101140000101C85116E106D06D6A696A0101C86BD8
:10115000A19AB9D06D6A696A160E6F6E9F0E6B6E9A
:101160007B0E696E6DB602D06D86FCD70101010E53
:10117000C86FC80508E16DBA06D0686A696A6980F7
:101180006988020EC86F6850040B05E06950040BB3
:1011900002E06894CBD86DA202D0A19A94D0685096
:1011A000010B08E06950010B05E039DF0101040E75
:1011B000C86F68906850100B05E06950100B02E092
:1011C000A0D8689868AC19D069AC0FD0010EE66E53
:1011D000E66A000EE66EE66A730EE66EE66AE2EC1A
:1011E0001BF0146E060EE15E1450689C0101F6516E
:1011F00001E0F607F65101E173DB6850200B04E0D3
:101200006950200B01E064D86850020B13E069506C
:10121000020B10E0010EE66EE66A000EE66EE66A6C
:10122000E6687F0EE66EE2EC1BF0146E060EE15EE1
:1012300014506A6A040E0101E76EC819E8AE02D0C4
:10124000E73402D0E750C85D02E2A19A3CD069A61B
:1012500039D0DF6A040EDF5C35E268A630D06CCF8F
:10126000EDF10101ED51780BE842E842E842EE6F02
:101270006896EDB508D0EE51EA6AF30FE96E010EFB
:10128000EA22EF7007D0EE51EA6AF00FE96E010E24
:10129000EA22EF70EE5102E160D810D0000EE66E47
:1012A000E66AED0EE66E010EE66E720EE66EE66A18
:1012B000E2EC1BF0146E060EE15E145001D002D079
:1012C000DF2AC8D7A19AE552E552E7CFD9FF12002D
:1012D00070A015D0CBC1E9FFCCC1EAFFEF50800868
:1012E0000DE1D5C1E9FFD6C1EAFFEF50840806E160
:1012F000CBC1E9FFCCC1EAFF8C0EEF6E7090689A0B
:101300001200698468986D820101010EEC6F000E75
:10131000E66EE66AE66EE66A750EE66EE66AE2EC90
:101320001BF0146E060EE15E145012000101EC6B0E
:10133000000EE66EE66AE66EE66A740EE66EE66A31
:10134000E2EC1BF0146E060EE15E14506D9269948F
:1013500068A402D06894FCD71200D9CFE6FFE1CF91
:10136000D9FFE65201012D0EF66FFD0EED1553E18A
:101370007E0EED15E8407F0B040DF3CFCBF1F4CFDB
:10138000CCF1000ECB27040ECC23CBC1CDF1CCC1C8
:10139000CEF1CD75CBC1E9FFCCC1EAFFEF503C0BDC
:1013A000E842E8420D0835E1DF6A080EDF5C23E21F
:1013B000CBC1E9FFCCC1EAFF020EE926000EEA220A
:1013C000EE50EFCFEAFFE96EEF50E66EDF50EA6ACB
:1013D000300FE96E040EEA22E552E750EF6ECBC102
:1013E000E9FFCCC1EAFF020EE926000EEA22EE2A4E
:1013F000EF22DF2ADAD7CBC1E9FFCCC1EAFF020E28
:10140000E926000EEA22300EEE6E040EED6E0DD8C7
:1014100001D03AD805D0FD0EED15040801E15AD8E7
:10142000E552E552E7CFD9FF12000101DB6BF76B04
:10143000FA6BFB6BEF6BDC6BD5C1E9FFD6C1EAFF42
:10144000EF9ED575D5C1E9FFD6C1EAFFEF9ED575F0
:10145000CDC1E9FFCEC1EAFFEF9EDF6BE06BE16B30
:10146000E46BE56BE66B90D8000EE66EE66AE66E1E
:10147000E66A030EE66EE66AE2EC1BF0146E060EF8
:10148000E15E1450C9EF0DF0020E0101DC5D03E1D5
:101490008CEC0EF01ED0DC6BEF511AE1CDC1E9FFF0
:1014A000CEC1EAFFEE52080EEF6ECDC1E9FFCEC10C
:1014B000EAFF020EE926000EEA22300EEE6E040E5E
:1014C000ED6ECDC1E9FFCEC1EAFF8C0EEF6E01D00B
:1014D000EF6B1200D9CFE6FFE1CFD9FFE652D5C1BD
:1014E000E9FFD6C1EAFFEF50400B01E0010EDF6ECD
:1014F0000101D575080EC85D09E132C46EFF6E505A
:1015000003E0100EC86F02D0040EC86FDC0528E19E
:10151000D5C1E9FFD6C1EAFF020EE926000EEA2294
:10152000380EEE6E040EED6E95DB020E0101DB5DF2
:1015300007E1D5C1E9FFD6C1EAFF840EEF6E0FD0F7
:10154000DF5007E1D5C1E9FFD6C1EAFFC80EEF6E53
:1015500006D0D5C1E9FFD6C1EAFF880EEF6E0FD0E5
:10156000E4AF0CD0E751E81107E005D0E8C1FAFF7D
:101570000101E751F96EFADF0101E49FDC6BE552EE
:10158000E552E7CFD9FF120004013051600BE84269
:10159000E842E842E842E842000901E059D031510E
:1015A0000C0A55E00B0A44E00C0A36E0010A27E079
:1015B0000B0A23E0020A21E0030A1DE0080A11E0F9
:1015C000010A0CE00F0A08E0030A01E040D0010123
:1015D000DF8F080EC86F3CD014DA3AD02CEC0FF035
:1015E00037D00101C90EDD6F010EDE6FDF81010E04
:1015F000E06FDF8F2DD065DA2BD02BD829D0345176
:101600000101DD6FDE6BCA0EDD27010EDE23DF81F7
:10161000010EE06FDF8F1CD00101DF8F0401345118
:10162000EA6ACA0FE96E010EEA2232C4EFFF10D057
:10163000000EE66EE66AE66EE66A020EE66EE66AA0
:10164000E2EC1BF0146E060EE15E145001D000D0E7
:101650001200D9CFE6FFE1CFD9FF050EE126040144
:10166000320510E130511F0B00090CE10101DF8F41
:10167000030E0401315D04E10101010EEB6F02D0A4
:101680000101EB6B0401325101E020D130511F0BFD
:10169000020801E01BD134510F0B000901E116D102
:1016A00034510F0B020801E211D1200E0101C85D77
:1016B00001E00CD1DF8F040134BF1AD034510F0B7D
:1016C000E96EEA6AD890E936EA36CF0EE926010ECD
:1016D000EA22EECFDEFFEDCFDDFF34510F0BEA6AD9
:1016E000F30FE96E010EEA22020EEFCFDBFF19D0F5
:1016F00034510F0BE96EEA6AD890E936EA36D50E16
:10170000E926010EEA22EECFDEFFEDCFDDFF3451F8
:101710000F0BEA6AF00FE96E010EEA22020EEFCF1C
:10172000DBFFD950020FE96EDACFEAFFEF50010B71
:1017300003E1000EDF9401D0DF8434BF10D03451B8
:101740000F0BE96EEA6AD890E936EA36CF0EE92641
:10175000010EEA22DECFEEFFDDCFEDFF0FD03451D8
:101760000F0BE96EEA6AD890E936EA36D50EE9261B
:10177000010EEA22DECFEEFFDDCFEDFF030E315D7D
:1017800023E1DECFE9FFDDCFEAFFEF50800B13E06E
:1017900034BF09D034510F0BEA6AF30FE96E010E22
:1017A000EA22EF8208D034510F0BEA6AF00FE96E9B
:1017B000010EEA22EF82840E146EDECFE9FFDDCF48
:1017C000EAFF1450EF1282D0DF74DECFE9FFDDCFE5
:1017D000EAFFEF50800B1BE0DECFE9FFDDCFEAFF31
:1017E000EF9EDECFE9FFDDCFEAFFEF8C020EE66E63
:1017F000E66ADECFE6FFDDCFE6FF050EE66EE66ABF
:10180000E2EC1BF0146E060EE15E145005D0DECF44
:10181000E9FFDDCFEAFFEF8CDF74D950020FE96EEC
:10182000DACFEAFFEF50020B07E1DECFE9FFDDCFB1
:10183000EAFFEF50800B2DE0040134BF09D0345192
:101840000F0BEA6AF30FE96E010EEA22EF9208D05D
:1018500034510F0BEA6AF00FE96E010EEA22EF92A3
:101860003B0E146EDECFE9FFDDCFEAFF1450EF161A
:10187000020EE66EE66ADECFE6FFDDCFE6FF050E7E
:10188000E66EE66AE2EC1BF0146E060EE15E1450A2
:1018900008D03B0E146EDECFE9FFDDCFEAFF145017
:1018A000EF16040134510F0B156A700F146E0F0EF2
:1018B0001522030E14C0DBFF040E15C0DBFF030E60
:1018C000DBCFE9FF040EDBCFEAFFEF90050EE15C12
:1018D00002E2E16AE552E16EE552E7CFD9FF12007C
:1018E0000101F8514DE1010EF86FF95149E1010E86
:1018F000F96F020EDC5D0DE1D5C1E9FFD6C1EAFF4B
:10190000EE52EF6AD5C1E9FFD6C1EAFFC80EEF6E0D
:1019100037D0DC0535E1EF6BCBC1E9FFCCC1EAFF85
:10192000EE52080EEF6ECBC1E9FFCCC1EAFF020E0A
:10193000E926000EEA22300EEE6E040EED6ECBC1EB
:10194000E9FFCCC1EAFF840EEF6E010EEF6FCDC14F
:10195000E9FFCEC1EAFFEE52080EEF6ECDC1E9FFFE
:10196000CEC1EAFF020EE926000EEA22300EEE6E2C
:10197000040EED6ECDC1E9FFCEC1EAFF800EEF6E21
:1019800012000101FA6BFB6B020EDC5D1AE1CDC1A6
:10199000E9FFCEC1EAFFEE52080EEF6ECDC1E9FFBE
:1019A000CEC1EAFF020EE926000EEA22380EEE6EE4
:1019B000040EED6ECDC1E9FFCEC1EAFFC80EEF6E99
:1019C0001FD0E0510401365D0101E1510401375996
:1019D00004E236C4E0F137C4E1F13CD9D5C1E9FFF6
:1019E000D6C1EAFF020EE926000EEA22380EEE6E9C
:1019F000040EED6ED5C1E9FFD6C1EAFFC80EEF6E49
:101A00001200800E0401305D5BE10101C00EDF6F4A
:101A100004013351030A34E0010A0EE0030A03E033
:101A20000101DF6B4DD00101160EDD6F0F0EDE6F71
:101A3000120EE06FE16B44D03251F66EF76AD89027
:101A4000F636F736D70EF6260F0EF7220900F5CF39
:101A5000DDF10A00F5CFDEF1020E0101F76ADD25A6
:101A6000F66EDE51F7220800F5CFE0F1030EF76ABB
:101A7000DD25F66EDE51F7220800F5CFE1F120D02A
:101A8000030E325D1AE23251F66EF76AD890F636DE
:101A9000F736D90EF6260F0EF7220900F5CFDDF145
:101AA0000A00F5CFDEF1DDC1F6FFDEC1F7FF080069
:101AB000F5500101E06FE16B02D00101DF6B00D056
:101AC0001200D9CFE6FFE1CFD9FF020EE1260401D3
:101AD000386B396B30511F0B020A12E0030A0DE01C
:101AE000010A01E042D00101DF8F040138810101C8
:101AF000EB0502E10401388338D00101DF8F35D0D6
:101B00000101DF8F040134BF10D034510F0BE96E97
:101B1000EA6AD890E936EA36CF0EE926010EEA22C3
:101B2000EECFDEFFEDCFDDFF0FD034510F0BE96EAE
:101B3000EA6AD890E936EA36D50EE926010EEA229D
:101B4000EECFDEFFEDCFDDFFDECFE9FFDDCFEAFF39
:101B5000EF50800B09E0DECFE9FFDDCFEAFFEF5069
:101B6000040B02E0010E386F00D00101DFAF07D097
:101B7000380EDD6F040EDE6FDF81020EE06F020EA5
:101B8000E15C02E2E16AE552E16EE552E7CFD9FF9E
:101B900012006D980101DFBF2BD0E4AF09D0020E17
:101BA000DC6FFB5101E1EDDE0101F96BF86B1FD039
:101BB000CDC1E9FFCEC1EAFFEE52080EEF6ECDC1F6
:101BC000E9FFCEC1EAFF020EE926000EEA22300E3E
:101BD000EE6E040EED6ECDC1E9FFCEC1EAFF8C0EB4
:101BE000EF6ED5C1E9FFD6C1EAFF840EEF6E31D0AA
:101BF000040130AF0DD00101010EDC6FFA5101E19B
:101C0000C0DE0101F96BF86BF75101E169DE21D00B
:101C10000101020EDC6FCDC1E9FFCEC1EAFFEE5239
:101C2000080EEF6ECDC1E9FFCEC1EAFF020EE92634
:101C3000000EEA22300EEE6E040EED6ECDC1E9FF0D
:101C4000CEC1EAFF840EEF6EF96BF86BF75101E13C
:101C500047DE1200D9CFE6FFE1CFD9FFE652080EEA
:101C6000DF6E0101E05D000EE1590BE2E0C1DFFF34
:101C7000DB5103E1010EDB6F04D0DB0502E1020E54
:101C8000DB6FDF50146E156A1450E05DE06F155085
:101C9000E159E16FD5C1E9FFD6C1EAFFEE52DFCFCE
:101CA000EFFF380EE96F040EEA6FDFB119D0DF5095
:101CB00016E0DDC1F6FFDEC1F7FFDD2B000EDE23EF
:101CC0000800F550E66EE9C1E9FFEAC1EAFFE92B39
:101CD000000EEA23E552E750EF6EDF06E8D717D093
:101CE000DF5015E0DDC1E9FFDEC1EAFFDD2B000EAC
:101CF000DE23EF50E66EE9C1E9FFEAC1EAFFE92B16
:101D0000000EEA23E552E750EF6EDF06E9D7E55211
:101D1000E552E7CFD9FF1200D9CFE6FFE1CFD9FFD7
:101D2000020EE126CBC1E9FFCCC1EAFFEE52EFCFB4
:101D3000DFFFDFCF14F014500101E55D000EE6591E
:101D400002E2E5C1DFFFDF50146E156A1450E55D55
:101D5000E56F1550E659E66F010EDB6ADF50F36E52
:101D6000010EDBCFF4FFF350F45C16E2010EDB5002
:101D7000EA6A380FE96E040EEA22EF50E66EE2C11D
:101D8000E9FFE3C1EAFFE22B000EE323E552E7504F
:101D9000EF6E010EDB2AE2D7000ED880E555000E6B
:101DA000E65528E2CDC1E9FFCEC1EAFFEE52080EAA
:101DB000EF6ECDC1E9FFCEC1EAFF020EE926000EAB
:101DC000EA22380EEE6E040EED6ECBC1E9FFCCC1F7
:101DD000EAFFEF50400B07E1CDC1E9FFCEC1EAFFBA
:101DE000C80EEF6E06D0CDC1E9FFCEC1EAFF880E66
:101DF000EF6E28D0CDC1E9FFCEC1EAFFEE52080E4A
:101E0000EF6ECDC1E9FFCEC1EAFF020EE926000E5A
:101E1000EA22300EEE6E040EED6ECDC1E9FFCEC1AA
:101E2000EAFF840EEF6EE751E81107E005D0E8C144
:101E3000FAFF0101E751F96EFADF0101E49FF75162
:101E400001E14EDD020EE15C02E2E16AE552E16E83
:101E5000E552E7CFD9FF1200D9CFE6FFE1CFD9FF96
:101E6000E6520101DF8F020EE66EE66AE66A710E47
:101E7000E66E0F0EE66E83EC25F0146E050EE15E45
:101E80001450DF6ADF50146E156A0C0E145C000EDD
:101E9000155810E2DF50040DF3CFE9FFF4CFEAFF4D
:101EA000000EE926040EEA22EE6AEE6AEE6AEE6A97
:101EB000DF2AE8D76D8CDF6A030EDF5C10E2DF50AB
:101EC000EA6AF00FE96E010EEA22EF6ADF50EA6A71
:101ED000F30FE96E010EEA22EF6ADF2AEDD7010E59
:101EE000E66EE66AE66ACA0EE66E010EE66E83EC00
:101EF00025F0146E050EE15E14506D9C0101080E74
:101F0000D56F040ED66F000ECB6F040ECC6FCBC115
:101F1000CDF1CCC1CEF132C4C9F1C95103E1100EEB
:101F2000C86F13D0010EE66EE66AC90EE66E010EAA
:101F3000E66E010EE66EE66AE2EC1BF0146E060E2B
:101F4000E15E14500101200EC86FE552E552E7CF63
:101F5000D9FF1200D9CFE6FFE1CFD9FF020EE1266B
:101F6000000EDE6E040EDD6EFD0EDB50E824166EF4
:101F7000FE0EDB50040DF3501624040DF3CF14F0C5
:101F8000F4CF15F0D9CFE9FFDACFEAFF1450EE26EF
:101F90001550ED22DECFE9FFDDCFEAFFEF9EFD0E0B
:101FA000DB500FE1FE0EEA6ADB34FE0BEA36E96E27
:101FB000CF0EE926010EEA22DECFEEFFDDCFEDFFE8
:101FC0000ED0FE0EEA6ADB34FE0BEA36E96ED50E61
:101FD000E926010EEA22DECFEEFFDDCFEDFFDECFF8
:101FE000E9FFDDCFEAFFEF9CDECFE9FFDDCFEAFFBF
:101FF000040EE926000EEA22EF8C020EE15C02E2FA
:10200000E16AE552E16EE552E7CFD9FF1200D9CF80
:10201000E6FFE1CFD9FF020EE126FD0EDBA407D0DB
:10202000E66AFE0EDBCFE6FF95DFE552E552FD0ED8
:10203000DBA208D0010EE66EFE0EDBCFE6FF8ADFE4
:10204000E552E552FE0EDB50156A700F146E0F0E4E
:10205000152214C0DEFF15C0DDFFDECFE9FFDDCFA6
:10206000EAFFFD0EDBCFEFFF020EE15C02E2E16A68
:10207000E552E16EE552E7CFD9FF1200D9CFE6FF76
:10208000E1CFD9FF020EE126FE0EDB5020E1CDC1EB
:10209000E9FFCEC1EAFFEE52080EEF6ECDC1E9FFB7
:1020A000CEC1EAFF020EE926000EEA22300EEE6EE5
:1020B000040EED6ECDC1E9FFCEC1EAFF8C0EEF6ECE
:1020C000D5C1E9FFD6C1EAFF840EEF6E3DD0FD0E0B
:1020D000DB50E824166EFE0EDB50040DF350162480
:1020E000040DF3CF14F0F4CF15F0000E1426040EF7
:1020F000152214C0DEFF15C0DDFF840E146EDECF86
:10210000E9FFDDCFEAFF1450EF12FD0EDB50E824AB
:10211000166EFE0EDB50040DF3501624010F040D55
:10212000F3CF14F0F4CF15F0000E1426040E152290
:1021300014C0DEFF15C0DDFF840E146EDECFE9FF94
:10214000DDCFEAFF1450EF12020EE15C02E2E16A19
:10215000E552E16EE552E7CFD9FF1200D9CFE6FF95
:10216000E1CFD9FF020EE126FD0EDB500FE0FE0E9F
:10217000EA6ADB34FE0BEA36E96ED50EE926010E7B
:10218000EA22EECFDEFFEDCFDDFF0ED0FE0EEA6AD3
:10219000DB34FE0BEA36E96ECF0EE926010EEA22A9
:1021A000EECFDEFFEDCFDDFFD9CFE9FFDACFEAFFDB
:1021B000EE50ED1003E1F36AF46A49D0DECFE9FF97
:1021C000DDCFEAFF020EE926000EEA22FB0EDBCF8E
:1021D000EEFFFC0EDBCFEDFFDECFE9FFDDCFEAFF48
:1021E000EE52FA0EDBCFEFFF400E146EDECFE9FFAA
:1021F000DDCFEAFF1450EF16880E146EDECFE9FF34
:10220000DDCFEAFF1450EF12FD0EDB500CE0FE0EA6
:10221000EA6ADB34FE0BEA36E96ED50EE926010EDA
:10222000EA22EF740BD0FE0EEA6ADB34FE0BEA36CC
:10223000E96ECF0EE926010EEA22EF74DECF14F02C
:10224000DDCF15F014C0F3FF15C0F4FF00D0020E6F
:10225000E15C02E2E16AE552E16EE552E7CFD9FFC7
:102260001200D9CFE6FFE1CFD9FF6DA84ED0FE0E08
:10227000EA6ADB34FE0BEA36E96ED50EE926010E7A
:10228000EA22EE50EFCFEAFFE96E400EEE16EE6A5C
:10229000EE6AEE6AFE0EEA6ADB34FE0BEA36E96E9F
:1022A000D50EE926010EEA22EE50EFCFEAFFE96EE5
:1022B000EE7CFE0EEA6ADB34FE0BEA36E96ED50EE2
:1022C000E926010EEA22EF74400E146EFE0EEA6A51
:1022D000DB34FE0BEA36E96ED50EE926010EEA2262
:1022E000EE50EFCFEAFFE96E1450EF16FE0EEA6AE9
:1022F000DB34FE0BEA36E96ED50EE926010EEA2242
:10230000EE50EFCFEAFFE96EEF7CE552E7CFD9FF61
:022310001200B9
:0E231200C5EC16F0FB0EDBCFF3FFDB06F3503D
:1023200000090AE013EC17F0FA0E7EEC17F0F3E167
:10233000151CF1E1010E01D0000EF4EF16F0C5EC12
:1023400016F03B0EE12402E3E168E652E16E010E75
:10235000DB6A020EDB6AF90EDBCFF6FFFA0EDBCF8B
:10236000F7FFFB0EDBCFF8FF0800F550DF6EDF5004
:1023700002E118EF16F0250EDF5C02E00BEF16F01D
:10238000030EDB6A040EDB6A050EDB6A060EDB6AEF
:10239000070EDB6A2DEC16F02D0EDF5C0CE02B0E29
:1023A000DF5C09E0200EDF5C06E0230EDF5C03E06B
:1023B000300EDF5C1AE1DF50300A14E0130A0FE040
:1023C000030A0AE00B0A05E0060AE4E1030EDB80DB
:1023D000E1D7030EDB82DED7030EDB84DBD7030EEF
:1023E000DB86D8D7030EDB88D5D72A0EDF5C1BE14E
:1023F00029EC16F077EC16F010E0030EDB8008688D
:102400000968130EDBCF0DF0140EDBCF0EF06EEC6F
:1024100023F0040E06C0DBFF03D0130E60EC16F0B1
:102420002DEC16F00BD0090EDB6ACEEC16F003E0B3
:1024300042EC17F0FAD7090E60EC16F0030EDBB091
:10244000DB982E0EDF5C1BE12DEC16F02A0EDF5C14
:102450000BE129EC16F077EC16F003E1130EB2EC69
:1024600016F02DEC16F00BD0090EDB6ACEEC16F050
:1024700003E042EC17F0FAD7090EB2EC16F0680E42
:10248000DF5C07E12DEC16F0680EDF5C1DE1030E4A
:1024900018D0740EDF5C17E07A0EDF5C14E0480E93
:1024A000DF5C06E0540EDF5C03E05A0EDF5C02E105
:1024B000020E07D06C0EDF5C03E06A0EDF5C04E105
:1024C000010E05EC17F0C9DBDF506E0A01E17FD386
:1024D0001E0A01E192D1200A01E18FD13F0A01E1F8
:1024E00049D11A0A01E146D10D0A01E143D1200A7E
:1024F00001E140D13A0A01E13DD1200A01E13AD19E
:10250000260A01E135D10D0A01E132D11A0A01E1B1
:10251000D9D0200A4AE0300A1FE0460A0EE0250A18
:1025200001E083D3D950F90FE96EFF0EDA20EA6E8D
:10253000010EEE5E000EEE5AEE5A13EC17F0250E69
:10254000E66E95DB03E1151C01E169D30FEC17F092
:1025500001E26BD3DB2A69D3080EDB6A040EDB5081
:10256000010806E2040EDB04D7EC16F0DB508BDB2F
:10257000080EDB5009E0030EDB50010B05E172DBB6
:1025800001E04DD3080EDB6A64DBEFCFDFFF87ECA1
:1025900017F003E1151C01E142D30FEC17F001E342
:1025A000DB2A60DB01E141D33AD3070EDB5002089E
:1025B0000FE153EC17F0030E1AEC17F00E0EEECFEE
:1025C000DBFF0F0EEECFDBFF100EEECFDBFF20D0D8
:1025D000F70EDBCF17F0F80EDBCF18F0020E175E08
:1025E000000E185AF70E17C0DBFFF80E18C0DBFFFD
:1025F00017C0E9FF18C0EAFF0AEC17F0166A0E0EC2
:1026000014C0DBFF0F0E15C0DBFF100E16C0DBFF82
:102610000E0EDBCFE6FF0F0EDBCFE6FF100EDBCF9B
:10262000E6FFABEC25F0E552E552E552130E07C08C
:10263000DBFF140E08C0DBFF060EDB5005E0130EB7
:102640004EEC17F001E26ADB72EC17F002E2130EB7
:1026500037DB35EC17F006E0040E4EEC17F002E223
:10266000050E2EDB030EDBB005D0FCDA01E0D7D27D
:10267000080EDB6A090EDB6A0E0EDBCFF6FF0F0ECB
:10268000DBCFF7FF100EDBCFF8FF0800F550DF6E51
:10269000DF5014E078EC17F011E287EC17F003E15B
:1026A000151C01E1BCD2BBDB01E3DB2A090EDB2AEE
:1026B000D9500E0FE96E000ECBDBE7D7D3DA01E17C
:1026C000B4D2ADD2C6DA110EEECFDBFF120EEDCFD3
:1026D000DBFF110EDBCFE6FF120EDBCFE6FF9DEC3A
:1026E00025F0E552E552130EF3CFDBFF140EF4CFC5
:1026F000DBFF060EDB5004E0130ED0DB01E20EDB45
:1027000072EC17F002E2130EDBDAAFDB05E0040E29
:10271000C5DB02E2050ED4DA030EDBB005D0A2DA87
:1027200001E07DD2080EDB6A090EDB6A110EDBCFF9
:10273000E9FF120EDBCFEAFFEFCFDFFFDF5014E03F
:10274000D7DB12E2E4DB03E1151C01E168D267DBB1
:1027500001E3DB2A090EDB2A110EDB2ADBCFE9FFBE
:10276000120EE8E3DB2AE6D77DDA01E15ED257D22A
:10277000030EDB8E070EDB0410E195DB040E5ADB43
:102780000A0EEECFDBFF0B0EEECFDBFF0C0EEECF13
:10279000DBFF0D0EEECFDBFF6CD0070EDB50030826
:1027A0002CE1030EDBAE0DD0B2DA020E76DAEFCFFB
:1027B00014F0156A166A176A14AE39D015681668CF
:1027C00035D0F70EDBCF15F0F80EDBCF16F0020E8A
:1027D000155E000E165AF70E15C0DBFFF80E16C078
:1027E000DBFF15C0E9FF16C0EAFFEFCF14F00A0EB9
:1027F00014C0DBFF0B0EDB6A38D0070EDB5002087B
:1028000009E1030EDBAE04D059DB16AE10D00ED0BA
:1028100055DB0DD0030EDBAE12D079DA020E3DDAB5
:10282000F9DA166A176A15AE02D016681768E2DA86
:102830000C0E16C0DBFF0D0E17C0DBFF1AD0F70E13
:10284000DBCF16F0F80EDBCF17F0020E165E000E8F
:10285000175AF70E16C0DBFFF80E17C0DBFF16C0C5
:10286000E9FF17C0EAFFD6DAC5DA0C0EDB6A0D0EF7
:10287000DB6A060EDB5005E1010EF36E050EF3CFA9
:10288000DBFF150EDB6A160EDB6AD950370F146EAC
:10289000000EDA20156E390E14C0DBFF3A0E15C09B
:1028A000DBFF380EDB6A080EDB6A0A0EAEDADF5099
:1028B000780A12E0200A10E0280A0CE0200A0AE058
:1028C0003F0A06E00D0A02E0200A08E1020E05D0E8
:1028D000080E03D0080EDF26100E97DA030EDBBEBB
:1028E00002D0DB92DB94DB50800B24E08ADAD890B4
:1028F000030EEB50000A08E6000EEE5C000EEE58E8
:10290000000EEE58000EEE5815E213DA0B680C6854
:102910000D680E6812EC26F00A0E02C0DBFF0B0EEB
:1029200003C0DBFF0C0E04C0DBFF0D0E05C0DBFF98
:102930002D0E08D0030EDBA202D02B0E03D0DBA499
:1029400008D0200EF36E170EF3CFDBFF150EDB2A37
:1029500002D0170EDB6A050EDB5003E1B7D901E1A7
:1029600089D0A20E146E4D0E156E000E166E070E57
:10297000DBCF17F0186A196A1A6A17C00BF018C073
:102980000CF019C00DF01AC00EF0D3D94AEC26F0A5
:1029900014500224F36E15500320F46E16500420D8
:1029A000F86EF4CFF7FFF3CFF6FF0800090EF5CF6E
:1029B000DBFF580EDF5C0FE1610EF36E090E7BD971
:1029C0000AE3200E146E090EDBCFE7FF1450E75E1A
:1029D000090EE7CFDBFF070EDBCF14F0156A166A8E
:1029E000176A0FDA14C00BF015C00CF016C00DF00A
:1029F00017C00EF0EECF06F0EECF07F0EECF08F0E6
:102A0000EFCF09F04AEC26F009C0EDFF08C0EDFF5A
:102A100007C0EDFF06C0EFFF390EDBCFE9FFDB0695
:102A20003A0EDBCFEAFF01E2DB06090EDBCFEFFF58
:102A3000150EDB2A4BD995E1030EDBA61DD06F0ED8
:102A4000DF5C06E1C1D918E3150EDB285BDA14D090
:102A5000780EDF5C09E0580EDF5C06E0620EDF5C9A
:102A600003E0420EDF5C08E1020EF36E160EF3CFB8
:102A7000DBFF02D0150EDB6A030EDB50100B0EE0FD
:102A8000040EDBCF14F0050EDB50D880145406E2A0
:102A9000060EDB5003E1040EDB5034DA95D90AE26E
:102AA000050EDBCFE7FF150EDB50E75E050EE7CF27
:102AB000DBFF02D0050EDB6A040EDBCF14F0160E2E
:102AC00045D9D880145414E2160EDBCFE6FF150E5C
:102AD000DBCFE6FF040EDBCFE6FF050EDB50E55251
:102AE000E75CE552D880E754E552D880E7545FD9D7
:102AF000030EDB50010B0BE1080EDB5008E0B2D8EF
:102B000001E08DD0080EDB50BED8080EDB6A170E30
:102B1000DB5007E088D9170EF1D903E1151C01E15C
:102B20007ED0160EDB5016E07ED9300EE66E9FD8B2
:102B300002E1151C74E077D9DFCFE6FFD0EC25F079
:102B4000E552E552E552F4CF15F00001F31C02E125
:102B5000151C65E0050EDBCF14F0160EDB50D88097
:102B6000145409E2050EDBCFE7FF160EDB50E75EDB
:102B7000050EE7CFDBFF300EE66E050ECBD94FE139
:102B8000390EDB2ADBCFE9FF3A0E01E3DB2ADBCF8C
:102B9000EAFF090EEFCFDBFFDB500EE044D9090E50
:102BA000ADD902E1151C3BE0390EDB2ADBCFE9FF92
:102BB0003A0EEDE3DB2AEBD755D831E1160EDBCF29
:102BC000E6FF080EC3D8E552E7245DD82ED0070EE5
:102BD000DB50030A1CE0010A14E0030A07E07BD97A
:102BE000DBCFEEFF020EDBCFEDFF1FD0F5D8196A69
:102BF00017AE02D0186819682CD8BCD819C0EEFFDF
:102C000014D0EAD817BE186824D8B4D80ED063D927
:102C1000DBCFEFFF0AD07BD905E1151C03E1F36898
:102C2000F46810D0FCD801E3DB2A79D9B4EF11F0B5
:102C3000010EDBCF14F0020EDBCF15F014C0F3FF52
:102C400015C0F4FF3B0EE15C02E2E16AE552E16E81
:102C5000CBD029D9020E1AEF17F061D90800F55030
:102C6000DF6E1200200EE66E080E8AEF17F0D0EC31
:102C700025F0E552E552E552F3CF14F0F4CF15F00C
:102C80000001F31C1200146E156AD950010F4DD9C2
:102C90001450EE261550ED221200185E000E195A3F
:102CA000F70E18C0DBFFF80E19C0DBFF18C0E9FFF4
:102CB00019C0EAFF1200DBCFF4FFF350F45C1200FE
:102CC000DB50E76E040EE7CFDBFF12000A0EDBCF0E
:102CD00014F00B0EDBCF15F00C0EDBCF16F00D0E43
:102CE000DBCF17F014501510161017101200130E2A
:102CF000EECFDBFF140EEDCFDBFF130EDBCF14F0B6
:102D0000140EDBCF15F00001800E15141200F70E23
:102D1000DBCF18F0F80EDBCF19F01200050EDB50F8
:102D2000E66ED950130F01D9E552E750EE6EED6A09
:102D300012000A0EDBCF06F00B0EDBCF07F00C0EF5
:102D4000DBCF08F00D0EDBCF09F01200DBCFE6FF82
:102D5000150EDBCFE6FF050EDB50E552E724E5520A
:102D6000E7241200DB50CED8010EF36E060EF3CF2F
:102D7000DBFF1200EE50EFCFEAFFE96E16C0EEFF68
:102D800017C0EEFF18C0EEFF1200D9CFE6FFDACF72
:102D9000E6FFE1CFD9FFE2CFDAFF1200DFCFE6FF97
:102DA000E66A85EC26F0E552E552F3501200E76E34
:102DB000080EE7CFDBFF1200EECF14F0EECF15F0D8
:102DC000EFCF16F0176A1200050EDBCF14F0150EC8
:102DD000DB50D88014541200010EDBCF16F0020E27
:102DE000DBCF17F0186A1200E552E5CFDAFFE7CF24
:102DF000D9FF12000A0E14C0DBFF0B0E15C0DBFF5B
:102E00001200D9500A0F95EF17F0F36E070EF3CFAB
:102E1000DBFF1200EECF14F0EFCF15F01200010E21
:102E2000DB2A020E1200FC0EDBCFE6FFFD0EDBCF2D
:102E3000E6FF1200145E000E155AF70E14C0DBFFF9
:102E4000F80E15C0DBFF14C0E9FF15C0EAFF120041
:102E5000DA20EA6EEF2AEECFF6FF000EEF22EECF79
:102E6000F7FFEF22EECFF8FF1200040EDBCFE6FFF4
:102E7000130EDB50E552E75C9ADFDB5004DF060EF1
:102E8000DB501200090EDB500A0DF350DF24D00F87
:102E9000E76E090EE7CFDBFF2DEF16F0DB50F36E88
:102EA000050E5BEF16F0F70EDBCF14F0F80EDBCF5C
:102EB00015F01200DFCFE6FF37EF16F028DF030E24
:102EC000ECDEDCEF16F089EC11F0E552E552E5524C
:102ED000E55200091200BDDEEE50EFCFEAFFE96EC9
:102EE000010E1200130EDB50F36E040E5BEF16F0B2
:102EF000040EDB50F36E090E5BEF16F0DBCFE6FF3E
:102F000037EF16F0E76E050EE7CFDBFF12008BDF21
:102F10005AEF17F0DBCFE6FF86DF63EF17F0D950EB
:102F2000F90FE96EFF0E28EF17F0E96E000EDA20B8
:042F3000EA6E120033
:0C2F3400DACFE4FFE2CFDAFFE652F294BD
:102F40000001E051D66EE1C022F0236A2250D76E14
:102F50008D708B70E552E5CFDAFF1100D8CFE4FF1A
:102F6000E0CFE4FFE46EDACFE4FFE2CFDAFFE6522F
:102F7000E552E5CFDAFFE550E5CFE0FFE5CFD8FF3A
:102F80001000D9CFE6FFE1CFD9FF640EE126DE6A5B
:102F9000DD6A020EDB6A030EDB6A040EDB6A050ED5
:102FA000DB6A0A0EDB6A0B0EDB6A0C0EDB6A0D0EA7
:102FB000DB6AC00EF36E0E0EF3CFDBFF3F0EF36E37
:102FC0000F0EF3CFDBFF120EDB6A130EDB6AD95054
:102FD000240FE96EDACFEAFF510EEE6E460EEE6E6A
:102FE000490EEE6E200EEE6E540EEE6E4D0EEE6E2F
:102FF000540EEE6E440EEE6E200EEE6E460EEE6E2B
:10300000690EEE6E720EEE6E6D0EEE6E770EEE6E59
:10301000610EEE6E720EEE6E650EEE6E200EEE6EB0
:10302000560EEE6E650EEE6E720EEE6E730EEE6E58
:10303000690EEE6E6F0EEE6E6E0EEE6E200EEE6E82
:10304000310EEE6E2E0EEE6E300EEE6EEE6E200E29
:10305000EE6EEE6EEE6EEE6EEE6EEE6EEE6EEE6E90
:10306000EE6EEE6EEE6EEE6EEE6EEE6EEE6EEE6E80
:10307000EE6EEE6EEE6AEE6AEE6AEE6AEE6AEE6A88
:10308000EE6AEE6AEE6AEE6AEE6AEE6AEE6AEE6A80
:10309000EE6AEE6A0001E00EE26F000EE36FD950B7
:1030A000060F146EDACF15F0080E14C0DBFF090E00
:1030B00015C0DBFFE06BE16B5CDA81B405D0010E7B
:1030C0000001E76FE86B03D00001E76BE86B9BEC56
:1030D00008F081B2F8D0D950120FE96EDACFEAFFCA
:1030E000EE50ED1001E093D0010EF36E120EF3CF0F
:1030F000DBFF130EDB6A0001E751E8115AE1E60E2F
:10310000146E480E156E166A14C0E6FF15C0E6FF71
:1031100016C0E6FFD950140FE66E000EDA20E66EF8
:10312000DEEC24F0176E050EE15E1750100EF3CFA3
:10313000DBFF110EF4CFDBFF8C94800EE66EBAEC51
:103140001CF0E552D950140FE66E000EDA20E66E40
:103150000BEC1DF0E552E552C00EE66EBAEC1CF029
:10316000E552D50E146E480E156E166A14C0E6FFB1
:1031700015C0E6FF16C0E6FFD950140FE66E000E2C
:10318000DA20E66EDEEC24F0176E050EE15E1750D5
:10319000100EF3CFDBFF110EF4CFDBFFD950140F6D
:1031A000E66E000EDA20E66E0BEC1DF0E552E552FD
:1031B0002DD0C40E146E480E156E166A14C0E6FFAC
:1031C00015C0E6FF16C0E6FFD950140FE66E000EDC
:1031D000DA20E66EDEEC24F0176E050EE15E175085
:1031E000100EF3CFDBFF110EF4CFDBFF8C94800EBB
:1031F000E66EBAEC1CF0E552D950140FE66E000EE4
:10320000DA20E66E0BEC1DF0E552E5525BD081AAA8
:103210002DD0C00EE66EBAEC1CF0E552B10E146E65
:10322000480E156E166A14C0E6FF15C0E6FF16C0FC
:10323000E6FFD950140FE66E000EDA20E66EDEECE3
:1032400024F0176E050EE15E1750100EF3CFDBFF72
:10325000110EF4CFDBFFD950140FE66E000EDA200A
:10326000E66E0BEC1DF0E552E5522CD0C00EE66E7A
:10327000BAEC1CF0E552A00E146E480E156E166ADC
:1032800014C0E6FF15C0E6FF16C0E6FFD950140FC4
:10329000E66E000EDA20E66EDEEC24F0176E050E08
:1032A000E15E1750100EF3CFDBFF110EF4CFDBFF02
:1032B000D950140FE66E000EDA20E66E0BEC1DF00E
:1032C000E552E5524AD181B03AD0120EDB6A130EB4
:1032D000DB6AD950020FE96EDACFEAFFEE50ED104B
:1032E0000BE1010EF36E020EF3CFDBFF030EDB6A80
:1032F000D59E0A0EDE6EDD6AD9CFE9FFDACFEAFF8E
:103300000A0EEE1801E1ED5015E1E8EC02F0060EB0
:10331000F3CFDBFF070EF4CFDBFF8D808B80010E38
:10332000F36E020EF3CFDBFF030EDB6AD59EDE6A7F
:10333000DD6A04D0DF2A010E01E3DB2A0ED1D95069
:10334000020FE96EDACFEAFF010EEE1801E1ED504F
:1033500042E1020EDB6A030EDB6AD58E1CEC00F044
:10336000060EF3CFDBFF070EF4CFDBFF080EDBCF3B
:10337000E6FF090EDBCFE6FFE2C0E6FFE3C0E6FFB3
:10338000ACEC00F0E552E552E552E552F3CF14F013
:10339000F4CF15F014C008F015C009F03CEC22F091
:1033A0000C0E07C0DBFF0D0E08C0DBFF0E0E09C0C0
:1033B000DBFF0F0E0AC0DBFF060EDBCF08F0070EA7
:1033C000DBCF09F0040E08C0DBFF050E09C0DBFFF0
:1033D0000A0EDE6EDD6AD950120FE96EDACFEAFF0F
:1033E000010EEE1801E1ED5042E1120EDB6A130E00
:1033F000DB6AD58E1CEC00F0060EF3CFDBFF070E68
:10340000F4CFDBFF080EDBCFE6FF090EDBCFE6FFD4
:10341000E2C0E6FFE3C0E6FFACEC00F0E552E552A7
:10342000E552E552F3CF14F0F4CF15F014C008F0D4
:1034300015C009F03CEC22F00C0E07C0DBFF0D0EAE
:1034400008C0DBFF0E0E09C0DBFF0F0E0AC0DBFF5A
:10345000060EDBCF08F0070EDBCF09F0040E08C024
:10346000DBFF050E09C0DBFF0A0EDE6EDD6AD9CF79
:10347000E9FFDACFEAFF0A0EEE1801E1ED5069E14B
:103480001CEC00F0060EF3CFDBFF070EF4CFDBFFE2
:10349000DE6ADD6A040EDBCF16F0050EDBCF17F017
:1034A000060EDB50165C146E070EDB501758156EB7
:1034B000153404E214500A08000E155417E3040EE4
:1034C000DBCF1AF0050EDBCF1BF0060EDB501A5CCB
:1034D000186E070EDB501B58196ED880195004E780
:1034E000F60E185CFF0E195801E332D0080EDBCF40
:1034F000E6FF090EDBCFE6FFE2C0E6FFE3C0E6FF32
:10350000ACEC00F0E552E552E552E552F3CF14F091
:10351000F4CF15F014C008F015C009F03CEC22F00F
:103520000C0E07C0DBFF0D0E08C0DBFF0E0E09C03E
:10353000DBFF0F0E0AC0DBFF060EDBCF08F0070E25
:10354000DBCF09F0040E08C0DBFF050E09C0DBFF6E
:1035500004D0DF2A010E01E3DB2A45D8B8D5640E7A
:10356000E15C02E2E16AE552E16EE552E7CFD9FFA4
:1035700012000F0EC11202D80FEF08F00001E66B27
:10358000E56B010EE46F8C6A956A8D6A966A8B6AA8
:10359000946A93809382F19E39EC1CF0928092821F
:1035A000928492869288928AC290C294C296C2985D
:1035B000C29AC19AC198C190C192C194C186C09E5D
:1035C000C086C098C09AC090C082C084D58ED59C59
:1035D000D59AD598D596D584D582D580F28EF29499
:1035E000F28AF1841200D9CFE6FFE1CFD9FF020EB3
:1035F000E126200E0101E76EC819E8AE02D0E734DB
:1036000002D0E750C85D03E36D50020B01E05FD0CC
:103610000501B2515AE1400EE66EA00EE66E000EB4
:10362000E66E97EC20F0E552E552E552DF6EDF5092
:103630004CE0010EDB6ADF50F36E010EDBCFF4FFCE
:10364000F350F45C37E2010EDB50EA6AA00FE96E3A
:10365000000EEA22EF500A0A16E0070A14E0010EF3
:10366000DB50EA6AA00FE96E000EEA22EF28E66E50
:10367000010EDB50EA6A600FE96E000EEA22E552A5
:10368000E750EF6E14D0010EDB50EA6AA00FE96E2E
:10369000000EEA22EF50E66E010EDB50EA6A600F80
:1036A000E96E000EEA22E552E750EF6E00D0010EFF
:1036B000DB2AC1D7DFCFE6FF600EE66E000EE66EB6
:1036C000F8EC20F0E552E552E55294EC21F0020EC0
:1036D000E15C02E2E16AE552E16EE552E7CFD9FF33
:1036E00012000001F951FA1104E1100EF96F270ED2
:1036F000FA6FF907000EFA5B6DA20AD0F951FA11C0
:1037000006E18C708CA002D08C8201D08C922ED0DD
:103710000101C85103E18C908C9228D0C80503E1C7
:103720008C808C8223D0020EC85D03E18C808C9249
:103730001DD0040EC85D03E18C908C8217D0100E52
:10374000C85D07E10001F951FA1102E18C708C9219
:103750000DD0200EC85D0AE10001F951FA1106E111
:103760008C708CA002D08C9201D08C82120012003E
:10377000120012001200CCEF1FF012001DEF20F01B
:103780000101EB051EE10101EC051BE1F1DF6D928A
:103790000101EC6B0001100EE96F0E0EEA6FE907F4
:1037A000000EEA5BE951EA11FAE16D84080EE96F57
:1037B000070EEA6FE907000EEA5BE951EA11FAE148
:1037C0006D941200D9CFE6FFE1CFD9FFFD0EDBCF1C
:1037D00008F0FE0EDBCF09F0050E081801E10950D4
:1037E00039E0E868081802E17F0E091831E0030E9D
:1037F000081801E109502AE0020E081801E10950F9
:1038000023E0010E081801E109501CE0740E0818AD
:1038100001E1095015E0750E081801E109500EE0AC
:10382000730E081801E1095007E0720E081801E153
:10383000095001E010D00FD09CDF0DD098DF0BD0E5
:1038400097DF09D09BDF07D098DF05D094DF03D046
:1038500091DF01D000D0010E00D0E552E7CFD9FFB3
:02386000120054
:0E3862008C86320EE66EC3EC26F0E5528C9694
:103870001200C80EE66E6EEC26F0E552C80EE66E3B
:103880006EEC26F0E552C80EE66E6EEC26F0E552C0
:10389000C80EE66E6EEC26F0E552C80EE66E6EECD3
:1038A00026F0E552C80EE66E6EEC26F0E552C80E24
:1038B000E66E6EEC26F0E552C80EE66E6EEC26F073
:1038C000E552C80EE66E6EEC26F0E552C80EE66EC6
:1038D0006EEC26F0E552C80EE66E6EEC26F0E55270
:1038E000C80EE66E6EEC26F0E552180EE66E6EEC33
:1038F00026F0E5528C968C948C888C8A8C9C8C9EBD
:10390000B0DF060EE66E6EEC26F0E5528C888C8AEF
:103910008C9C8C9EA6DF180EE66EF0EC07F0E5524C
:103920008C888C8A8C9C8C9E9CDF180EE66EF0EC4A
:1039300007F0E5528C988C8A8C9C8C9E92DF060E48
:10394000E66E6EEC26F0E552280EE66E13D8E552D0
:10395000080EE66E0FD8E5520C0EE66E0BD8E55257
:10396000010EE66E07D8E552060EE66E03D8E55264
:1039700031EF1CF0D9CFE6FFE1CFD9FF8C988C9ABC
:103980008C9C8C9EFE0EDBAE02D08C8E01D08C9E69
:10399000DBAC02D08C8C01D08C9CDBAA02D08C8A50
:1039A00001D08C9ADBA802D08C8801D08C9859DF8A
:1039B000320EE66EC3EC26F0E552FE0EDBA602D018
:1039C0008C8E01D08C9EDBA402D08C8C01D08C9C80
:1039D000DBA202D08C8A01D08C9ADBA002D08C882A
:1039E00001D08C983EDF320EE66EC3EC26F0E55235
:1039F000E552E7CFD9FF1200D9CFE6FFE1CFD9FFDB
:103A00008C84FE0EDBCFE6FFB5DFE5528C94E552E9
:103A1000E7CFD9FF1200D9CFE6FFE1CFD9FF8C84E1
:103A2000FD0EDBCFE9FFFE0EDBCFEAFFEF500EE02D
:103A3000FD0EDBCFE9FFDB2AFE0EDBCFEAFF01E361
:103A4000DB2AEF50E66E96DFE552EAD78C94E5521A
:103A5000E7CFD9FF1200D9CFE6FFE1CFD9FF040E9F
:103A6000E126020EDB6A030EDB6A8C94020EDBCFCA
:103A700014F0030EDBCF15F0D890155004E62D0E90
:103A8000145C000E155801E37DD2DE6ADD6ADECFDC
:103A900014F0DDCF15F0020EDBCF16F0030EDBCFF6
:103AA00017F017501518E8AE02D0153404D0145092
:103AB000165C1550175801E248D2D9CFE9FFDACF8A
:103AC000EAFFEE50ED1017E18C94C70EE66E52DF60
:103AD000E552020EDBCF14F0030EDBCF15F0FD0E26
:103AE000DB501424E96EFE0EDB501520EA6EEF5019
:103AF000E66E82DFE552D9CFE9FFDACFEAFF010EA9
:103B0000EE1801E1ED501AE18C94C60EE66E32DF3C
:103B1000E552020EDBCF14F0030EDBCF15F0FD0EE5
:103B2000DB501424E96EFE0EDB501520EA6EE90628
:103B3000000EEA5AEF50E66E5FDFE552D9CFE9FF9B
:103B4000DACFEAFF020EEE1801E1ED501BE18C9492
:103B5000C50EE66E0FDFE552020EDBCF14F0030E4A
:103B6000DBCF15F0FD0EDB501424E96EFE0EDB50AA
:103B70001520EA6E020EE95E000EEA5AEF50E66E7C
:103B80003BDFE552D9CFE9FFDACFEAFF030EEE18AB
:103B900001E1ED501BE18C94C40EE66EEBDEE552C4
:103BA000020EDBCF14F0030EDBCF15F0FD0EDB5061
:103BB0001424E96EFE0EDB501520EA6E030EE95E5A
:103BC000000EEA5AEF50E66E17DFE552D9CFE9FF53
:103BD000DACFEAFF040EEE1801E1ED501BE18C9400
:103BE000C30EE66EC7DEE552020EDBCF14F0030E05
:103BF000DBCF15F0FD0EDB501424E96EFE0EDB501A
:103C00001520EA6E040EE95E000EEA5AEF50E66EE9
:103C1000F3DEE552D9CFE9FFDACFEAFF050EEE1861
:103C200001E1ED501BE18C94C20EE66EA3DEE5527D
:103C3000020EDBCF14F0030EDBCF15F0FD0EDB50D0
:103C40001424E96EFE0EDB501520EA6E050EE95EC7
:103C5000000EEA5AEF50E66ECFDEE552D9CFE9FF0B
:103C6000DACFEAFF060EEE1801E1ED501BE18C946D
:103C7000C10EE66E7FDEE552020EDBCF14F0030EBE
:103C8000DBCF15F0FD0EDB501424E96EFE0EDB5089
:103C90001520EA6E060EE95E000EEA5AEF50E66E57
:103CA000ABDEE552D9CFE9FFDACFEAFF070EEE1817
:103CB00001E1ED501BE18C94C00EE66E5BDEE55237
:103CC000020EDBCF14F0030EDBCF15F0FD0EDB5040
:103CD0001424E96EFE0EDB501520EA6E070EE95E35
:103CE000000EEA5AEF50E66E87DEE552D9CFE9FFC3
:103CF000DACFEAFF080EEE1801E1ED501BE18C94DB
:103D0000870EE66E37DEE552020EDBCF14F0030EAF
:103D1000DBCF15F0FD0EDB501424E96EFE0EDB50F8
:103D20001520EA6E080EE95E000EEA5AEF50E66EC4
:103D300063DEE552D9CFE9FFDACFEAFF090EEE18CC
:103D400001E1ED501BE18C94860EE66E13DEE55228
:103D5000020EDBCF14F0030EDBCF15F0FD0EDB50AF
:103D60001424E96EFE0EDB501520EA6E090EE95EA2
:103D7000000EEA5AEF50E66E3FDEE552D9CFE9FF7A
:103D8000DACFEAFF0A0EEE1801E1ED501BE18C9448
:103D9000850EE66EEFDDE552020EDBCF14F0030E6A
:103DA000DBCF15F0FD0EDB501424E96EFE0EDB5068
:103DB0001520EA6E0A0EE95E000EEA5AEF50E66E32
:103DC0001BDEE552D9CFE9FFDACFEAFF0B0EEE1882
:103DD00001E1ED501BE18C94840EE66ECBDDE552E3
:103DE000020EDBCF14F0030EDBCF15F0FD0EDB501F
:103DF0001424E96EFE0EDB501520EA6E0B0EE95E10
:103E0000000EEA5AEF50E66EF7DDE552D9CFE9FF32
:103E1000DACFEAFF0C0EEE1801E1ED501BE18C94B5
:103E2000830EE66EA7DDE552020EDBCF14F0030E23
:103E3000DBCF15F0FD0EDB501424E96EFE0EDB50D7
:103E40001520EA6E0C0EE95E000EEA5AEF50E66E9F
:103E5000D3DDE552D9CFE9FFDACFEAFF0D0EEE1838
:103E600001E1ED501BE18C94820EE66E83DDE5529C
:103E7000020EDBCF14F0030EDBCF15F0FD0EDB508E
:103E80001424E96EFE0EDB501520EA6E0D0EE95E7D
:103E9000000EEA5AEF50E66EAFDDE552D9CFE9FFEA
:103EA000DACFEAFF0E0EEE1801E1ED501BE18C9423
:103EB000810EE66E5FDDE552020EDBCF14F0030EDD
:103EC000DBCF15F0FD0EDB501424E96EFE0EDB5047
:103ED0001520EA6E0E0EE95E000EEA5AEF50E66E0D
:103EE0008BDDE552D9CFE9FFDACFEAFF0F0EEE18EE
:103EF00001E1ED501BE18C94800EE66E3BDDE55256
:103F0000020EDBCF14F0030EDBCF15F0FD0EDB50FD
:103F10001424E96EFE0EDB501520EA6E0F0EE95EEA
:103F2000000EEA5AEF50E66E67DDE552D9CFE9FFA1
:103F3000DACFEAFF100EEE1801E1ED5001E105D0F5
:103F4000DF2A010E01E3DB2AA2D50C0E086E096AF6
:103F5000DECF0DF0DDCF0EF06EEC23F006C014F0D6
:103F600007C015F0FF0ED8801456000E15561450D9
:103F7000E66E6EEC26F0E552020EDB2A030E01E33C
:103F8000DB2A74D5040EE15C02E2E16AE552E16EDF
:083F9000E552E7CFD9FF120052
:083F9800040130511F0B010868
:103FA00001E04AD03051600BE842E842E842E84282
:103FB000E842010801E040D0345103E0340501E05B
:103FC0003BD03151220A33E0030A26E0010A17E010
:103FD000210A0EE0010A01E02FD00101C20EDD6FBF
:103FE000050EDE6F080EE06FE16BDF81DF8F24D0FE
:103FF0000101C20EDD6F050EDE6FDF8F1DD036C4EE
:10400000E5F137C4E6F10101880EE26F050EE36FBA
:10401000E76BE86BE48F10D00101880EDD6F050EB1
:10402000DE6F070EE06FE16BC10EDF6F05D032C4AB
:10403000BDF50101DF8F00D012000501886B4B0E2A
:10404000896F8A6B8B6B8C6B8D6B080E8E6F050185
:10405000B16B1A0EE66E010EE66E07EC10F0E5523B
:10406000E5521E0EE66E020EE66E07EC10F0E5520B
:10407000E552400EE66E080EE66E050EE66EE66A46
:10408000020EE66EAEEC10F0146E050EE15E1450FA
:10409000F3CFB9F5F4CFBAF50501BB6BBC6BB26BCE
:1040A0001200D9CFE6FFE1CFD9FFFD0EDBCF08F03C
:1040B000FE0EDBCF09F0050E081801E1095002E001
:1040C000000E31D0FB0EDBCF14F0FC0EDBCF15F071
:1040D0000501B951141802E1BA51151813E1400E47
:1040E000E66E080EE66E050EE66EE66A020EE66EF7
:1040F000AEEC10F0146E050EE15E1450F3CFB9F57E
:10410000F4CFBAF5FB0EDBCF14F0FC0EDBCF15F0CD
:104110000501BB51141802E1BC51151802E1B26B44
:10412000B76B010E00D0E552E7CFD9FF1200D9CF0F
:10413000E6FFE1CFD9FF0501B16BB951BA1102E138
:10414000000E08D0B9C5E9FFBAC5EAFFEF50800BF1
:1041500001E0010E000945E1FC0EDBCF14F0B9C50A
:10416000E9FFBAC5EAFFEE52EF50D880145408E2D6
:10417000B9C5E9FFBAC5EAFFEE52FC0EEFCFDBFF8F
:10418000B16BFC0EDB50B15D19E2B151EA6A080F68
:10419000E96E050EEA22EF50E66EB151E76EFD0EB4
:1041A000DBCFE9FFFE0EDBCFEAFFE750E926000E8A
:1041B000EA22E552E750EF6EB12BE3D7400EE66EF0
:1041C000080EE66E050EE66EE66A020EE66EAEECD0
:1041D00010F0146E050EE15E1450F3CFB9F5F4CF74
:1041E000BAF50501B15100D0E552E7CFD9FF120071
:1041F000D9CFE6FFE1CFD9FF0501B2510CE1FD0EA9
:10420000DBCFB3F5FE0EDBCFB4F5FC0EDBCFB7F59D
:10421000010EB86FB26FE552E7CFD9FF1200D9CFC8
:10422000E6FFE1CFD9FF030EE1260501B25101E01F
:104230002ED0DF6AFD0EDBCF08F0FE0EDBCF09F0DB
:10424000DE5208C0DEFF09C0DDFFDD52DF2ADF508D
:10425000146E156AFF0E141801E1155001E10BD020
:10426000010EDBCFE9FFDB2A020EDBCFEAFF01E321
:10427000DB2AEF50EBE1FD0EDBCFB3F5FE0EDBCF1B
:10428000B4F5DFCFB7F50501010EB86FB26F030EBD
:10429000E15C02E2E16AE552E16EE552E7CFD9FF67
:1042A0001200D9CFE6FFE1CFD9FF030EE1260501C9
:1042B000B25101E02FD0DF6AFD0EDBCF08F0FE0E19
:1042C000DBCF09F0DE5208C0DEFF09C0DDFFDD52A2
:1042D000DF2ADF50146E156AFF0E141801E1155025
:1042E00001E10CD0010EDBCFF6FFDB2A020EDBCFA3
:1042F000F7FF01E3DB2A0800F550EAE1FD0EDBCF12
:10430000B3F5FE0EDBCFB4F5DFCFB7F50501B86B23
:10431000010EB26F030EE15C02E2E16AE552E16E6A
:10432000E552E7CFD9FF1200D9CFE6FFE1CFD9FFA1
:10433000020EE1260501BB51BC1102E1000E08D0BE
:10434000BBC5E9FFBCC5EAFFEF50800B01E0010EE1
:10435000000901E085D0030EB25D01E1B26BB251FC
:1043600001E17ED0020EB25D16E1E66A000EE66E55
:10437000E66A010EE66E020EE66EAEEC10F0146E0A
:10438000050EE15E1450F3CFBBF5F4CFBCF505018B
:10439000030EB26F65D0B20563E1400E146E156A6C
:1043A000B751145C000E155803E2400EDF6E02D0C8
:1043B000B7C5DFFFDF50B75DB76F480EB56F050EAD
:1043C000B66F010EDFCFDBFFB85117E1010EDB50F6
:1043D00013E0B3C5F6FFB4C5F7FF0800F550B5C547
:1043E000E9FFB6C5EAFFEF6EB52B000EB623B32B7F
:1043F000B423010EDB06EAD715D0010EDB5012E024
:10440000B3C5E9FFB4C5EAFFEF50B5C5E9FFB6C5CE
:10441000EAFFEF6EB52B000EB623B32BB423010ECB
:10442000DB06EBD7B75108E1400EDF5C03E1020E7B
:10443000B26F02D0030EB26FDFCFE6FF480EE66E1A
:10444000050EE66E010EE66E020EE66EAEEC10F0A4
:10445000146E050EE15E1450F3CFBBF5F4CFBCF53E
:10446000020EE15C02E2E16AE552E16EE552E7CF5D
:04447000D9FF12005E
:0C447400019E08D0019E09AE05D0086C26
:10448000091EE86A0922018E09C003F008C002F083
:10449000136A126A8E0E046E056AE6EF23F0019E1F
:1044A0000CD0019E09AE09D0066C071E081E091E1D
:1044B000E86A072208220922018E09C003F008C019
:1044C00002F007C013F006C012F09E0E046E056ADB
:1044D000E6EF23F0016A22EC24F03AEC24F001B676
:1044E000CAEF23F001A205D001B8CAEF23F0D1EF43
:1044F00023F001AA05D001B0CAEF23F0D1EF23F0D9
:1045000001B002D001A802D0DDEF23F0056A0F5000
:104510000A24046EE86A05227E0E045EE86A055AE3
:10452000126A136A026A036A0E500902F4CF03F09A
:10453000F3CF02F00D500902F3501326F45002227B
:10454000000E03220E500802F3501326F4500222EC
:10455000000E03220C500902F3501226F4501322CD
:10456000000E022203220D500802F3501226F450CE
:104570001322000E022203220E500702F3501226CD
:10458000F4501322000E022203220C500802F450B1
:104590001226000E1322022203220D500702F450AD
:1045A0001226000E132202220322E6EF23F00F7ED2
:1045B000016A22EC24F03AEC24F001B6CAEF23F0B1
:1045C00001A20AD001AA03D001BECAEF23F001A4C0
:1045D000D6EF23F0D3EF23F001AA05D001ACD6EF3C
:1045E00023F0D3EF23F001A00AD001A808D001BE28
:1045F00004D001A402D0DFEF23F0E3EF23F0126A2E
:10460000056A0F500A5C116E10E307C013F008C072
:1046100002F009C003F00AC010F00CC007F00DC092
:1046200008F00EC009F0013A09D00CC013F00DC01B
:1046300002F00EC003F00FC010F0116C019E01BC1F
:10464000018E10C004F001B012EF24F01A0E1160B8
:1046500012EF24F0046A0A6A01A408D0076C081E4D
:10466000091E0A1EE86A082209220A2201AC08D0A3
:10467000136C021E031E041EE86A02220322042297
:10468000066A115207E00A3409320832073206324C
:10469000112EF9D707501326085002220950032281
:1046A0000A50042206C012F0019E04AE0BD0126C18
:1046B000131E021E031E041EE86A13220222032296
:1046C0000422018E04A006D0D880033202321332B5
:1046D0001232102A10C004F0E6EF23F009C013F0E4
:1046E00008C012F008500D02F4CF07F0F3CF06F027
:1046F00009500E02F4CF09F0F3CF08F00D02F35089
:104700000726F4500822E86A092212500E02F350DC
:104710000726F4500822E86A09220EAE94EF23F02F
:104720001250085E1350095A13AE000C0D50085E6B
:104730000E50095A000C016A22EC24F001B6A5EFD4
:1047400023F001A20ED001B405D07F0E096EFF0E3A
:10475000086E1FD0800E096E086A1BD0096A086AAD
:1047600018D001B0FBD78F0E0A60EDD77E0E0A6419
:10477000F5D78E0E0A5C05E0D890093208320A2A75
:10478000F8D701A406D0086C091EE86A092209AE10
:10479000E5D712007F0E0A6EFF0E096E086E076ED7
:1047A00012007F0E01BEFF0E0A6E02D07F0E0A6E4F
:1047B000800E096E086A076AF3D701AE04D0800E36
:1047C0000A6E096AF7D70A6A096AF4D70350021019
:1047D00013101210F8E005BEF0D703BE0CD0045041
:1047E0000510EBE0D8901236133602360336040675
:1047F000D8A00506F2D70550D4E10428D2E012AEC5
:1048000011D07F0E121402E113A00CD0132AE86A13
:104810000222032207E3D880033202321332042A31
:104820000428BFE00450C9E013C007F002C008F03C
:104830000334096E04300A6E09320A9E01BE0A8EE4
:10484000D0EF23F009360A3602E30184017E06E147
:1048500001800A6A096A086A076A12000A2803E0E6
:10486000D88009321200D890093202E10182120088
:10487000018612000E360F3602E3018C017E06E13E
:1048800001880F6A0E6A0D6A0C6A12000F2803E095
:10489000D8800E321200D8900E32EAE1018A12005E
:1048A0002020202020204C4F572020202020202076
:1048B0000020202020202048494748202020202078
:1048C000202020002020204D4F56494520474154AC
:1048D00045202020002047415445313233202020FC
:1048E0002020202020002020204D4F564945002523
:1048F00069487A2020202000202025692E25692063
:104900002020200020202020202025692E2569201D
:104910002020202020202000256941202020200068
:1049200020202020202025692E202020202020202B
:10493000200020202020202025692E3025692020DD
:1049400020202020202000202020204443204D6FC4
:10495000646520202020202000302569412020206F
:10496000200020202020202025692E20202020200B
:1049700020200030487A20202020200020202020E5
:104980002025692E30487A20202020202000202059
:104990002050756C7365204D6F64652020202020A9
:1049A0002000487A202020202020002020202020C5
:0B49B00025692E30487A2020202000CE
:0449BC00D9CFE6FF6A
:1049C000DACFE6FFE1CFD9FFE2CFDAFFE652E652D7
:1049D000E652E652D950F90F146EFF0EDA20156E2A
:1049E000020E14C0DBFF030E15C0DBFF020EDBCF8F
:1049F000E6FF030EDBCFE6FFF90EDBCFE6FFFA0E94
:104A0000DBCFE6FFFB0EDBCFE6FFD950FC0FE66EF7
:104A1000FF0EDA20E66E9FEC11F0146E070EE15CDB
:104A200002E2E16AE552E16E1450F3CFDEFFF4CF0B
:104A3000DDFFFC0EDBCFE9FFFD0EDBCFEAFFEF6A07
:104A4000DECF14F0DDCF15F014C0F3FF15C0F4FF76
:104A5000040EE15C02E2E16AE552E16EE552E5CF67
:084A6000DAFFE7CFD9FF1200D5
:084A68001E0EF66E000EF76E43
:104A7000000EF86E00010900F550F06F0900F550C6
:104A8000F16F03E1F06701D03DD00900F550EB6F05
:104A90000900F550EC6F0900F550ED6F09000900B1
:104AA000F550E96E0900F550EA6E090009000900A9
:104AB000F550EE6F0900F550EF6F09000900F6CFD1
:104AC000F2F0F7CFF3F0F8CFF4F0EBC0F6FFECC064
:104AD000F7FFEDC0F8FF0001EE5302E1EF5307E0EE
:104AE0000900F550EE6EEE07F8E2EF07F9D7F2C0D5
:104AF000F6FFF3C0F7FFF4C0F8FF0001F007000E67
:064B0000F15BBFD71200BB
:0A4B0600FE0EE3CFE9FFFF0EE3CF40
:104B1000EAFFE9CFF3FFEACFF4FFFB0EE35003E136
:104B2000FC0EE35009E0FB0EE30602E2FC0EE30696
:104B3000FD0EE350EE6EF1D71200FE0EE3CFE9FF5B
:104B4000FF0EE3CFEAFFF36AF46AEE5203E0F34AA2
:104B5000F42AFBD71200FF0EE3CFF8FFE552FF0E59
:104B6000E3CFF7FFE552FF0EE3CFF6FFE552E66A2B
:104B7000E66AE66A0900F55209E0FD0EE32A05E15E
:104B8000FE0EE32A02E1FF0EE32AF4D7FD0EE3CF87
:104B900007F0FE0EE3CF08F0FF0EE3CF09F012009E
:104BA000D9CFE6FFDACFE6FFE1CFD9FFE2CFDAFFD8
:104BB000FB0EDBCF14F0FC0EDBCF15F00001800EF6
:104BC00015141AE1FB0EDBCFE9FFFC0EDBCFEAFF89
:104BD000EECFF3FFEDCFF4FFEE2A000EEF22F3CF7E
:104BE000E9FFF4CFEAFFFD0EDBCFEFFFEF50156AD0
:104BF000F36E15C0F4FF10D0FB0EDB50FE0806E18B
:104C0000FD0EDBCFE6FFB5EC26F005D0FD0EDBCFC9
:104C1000E6FF03EC08F0E552E552E5CFDAFFE7CF17
:044C2000D9FF1200A6
:0C4C240006500B02F3CF02F0F4CF03F0B7
:104C30000C02F3500326000EF420046E06500D0201
:104C4000F3500426000EF420056E06500E02F350B9
:104C5000052607500B02F3500326F4500422000EE1
:104C6000052207500C02F3500426F4500522075089
:104C70000D02F350052608500B02F3500426F450A1
:104C8000052208500C02F350052609500B02F35080
:044C900005261200E3
:0C4C9400056A046A036A026A200EE76EDB
:104CA000D8900636073608360936023603360436FB
:104CB00005360B50025C0C5003580D5004580E5032
:104CC000055809E30B50025E0C50035A0D50045A6C
:0C4CD0000E50055A062AE72EE4D7120009
:044CDC00FF0EE35094
:104CE000256EEF0E01D0F30EE76EE72E75EF26F07E
:104CF0000C0E246EE76AE72E7BEF26F0242E7AEF67
:0A4D000026F0252E73EF26F01200B6
:064D0A00F36AF46AFF0EDB
:104D1000E124E96EFF0EE220EA6EED6607D02F0E69
:0E4D2000EF6404D03A0EEF6001D0F32A1200C7
:024D2E00000E75
:104D3000F36E00EE00F0080E01D81200EA6002D017
:0E4D4000EE6AFCD7F350E9601200EE6AFCD771
:024D4E0013EE62
:104D500000F023EE00F0F86A019C34EC25F003EC3F
:0A4D600000F0C1EC17F0FBD71200C1
:064D6A00FF0EE350ACBA9D
:104D700004D0AF6AAB8EAC8A949CACA2FED7AD6E69
:064D8000F36EF46A12005C
:0A4D8600FF0EE350256E1B0E00D057
:104D900001D0200EE76EE72EFED7252EFAD700D0E1
:024DA0001200FF
:0E4DA20030313233343536373839616263646C
:034DB00065660035
:0D4DB3009600A500B400C300D200E100F09E
:104DC00000FF000E011D012C013B01540163017223
:104DD00001810190019F01AE01BD01CC01DB01EA1F
:104DE00001F9010802170226023502440253026249
:104DF00002710280028F029E02AD02BC02CB02DA77
:104E000002E902F8020703160325033403430352A1
:104E1000036103700301046FA437D27AE11CE9B087
:104E2000EDBDF0EBF28EF4D3F5D8F6ADF75FF8F503
:104E3000F876F9E5F947FA9DFAEAFA2EFB6CFBA43D
:104E4000FBD6FB05FC2FFC56FC7AFC9CFCBBFCD87B
:104E5000FCF3FC0CFD23FD3AFD4FFD62FD75FD8664
:104E6000FD97FDA7FDB6FDC4FDD2FDDFFDEBFDF70F
:0B4E7000FD02FE0DFE18FE22FE2BFED0
:020000040030CA
:0100000024DB
:010001000EF0
:010002003FBE
:010003001EDE
:010005008179
:010006008178
:010008000FE8
:01000900C036
:01000A000FE6
:01000B00E014
:01000C000FE4
:01000D0040B2
:00000001FF
