:020000040000FA
:0600000013EF24F01200D2
:020006001200E6
:0600080004EF08F01200F5
:060018000CEF08F01200DD
:02001E000300DD
:10002000284A000000060000C800000060490000E7
:1000300000020000C80000008B4800000001000022
:04004000D5000000E7
:0C0044005EEC05F0FB0EDBCFF3FFDB06EB
:10005000F35000090AE0ACEC05F0FA0E17EC06F0DC
:10006000F3E1151CF1E1010E01D0000E8DEF05F05A
:100070005EEC05F03B0EE12402E3E168E652E16E3E
:10008000010EDB6A020EDB6AF90EDBCFF6FFFA0E19
:10009000DBCFF7FFFB0EDBCFF8FF0800F550DF6E7C
:1000A000DF5002E1B1EF04F0250EDF5C02E0A4EFC7
:1000B00004F0030EDB6A040EDB6A050EDB6A060E33
:1000C000DB6A070EDB6AC6EC04F02D0EDF5C0CE089
:1000D0002B0EDF5C09E0200EDF5C06E0230EDF5C08
:1000E00003E0300EDF5C1AE1DF50300A14E0130A3F
:1000F0000FE0030A0AE00B0A05E0060AE4E1030E3A
:10010000DB80E1D7030EDB82DED7030EDB84DBD797
:10011000030EDB86D8D7030EDB88D5D72A0EDF5C2B
:100120001BE1C2EC04F010EC05F010E0030EDB80E4
:1001300008680968130EDBCF0DF0140EDBCF0EF04C
:10014000FAEC20F0040E06C0DBFF03D0130EF9EC2E
:1001500004F0C6EC04F00BD0090EDB6A67EC05F086
:1001600003E0DBEC05F0FAD7090EF9EC04F0030E1E
:10017000DBB0DB982E0EDF5C1BE1C6EC04F02A0E30
:10018000DF5C0BE1C2EC04F010EC05F003E1130EB0
:100190004BEC05F0C6EC04F00BD0090EDB6A67EC03
:1001A00005F003E0DBEC05F0FAD7090E4BEC05F0A7
:1001B000680EDF5C07E1C6EC04F0680EDF5C1DE151
:1001C000030E18D0740EDF5C17E07A0EDF5C14E0CB
:1001D000480EDF5C06E0540EDF5C03E05A0EDF5C85
:1001E00002E1020E07D06C0EDF5C03E06A0EDF5CFA
:1001F00004E1010E9EEC05F0C9DBDF506E0A01E15F
:100200007FD31E0A01E192D1200A01E18FD13F0A7A
:1002100001E149D11A0A01E146D10D0A01E143D1B8
:10022000200A01E140D13A0A01E13DD1200A01E171
:100230003AD1260A01E135D10D0A01E132D11A0A7B
:1002400001E1D9D0200A4AE0300A1FE0460A0EE058
:10025000250A01E083D3D950F90FE96EFF0EDA20A9
:10026000EA6E010EEE5E000EEE5AEE5AACEC05F0B0
:10027000250EE66E95DB03E1151C01E169D3A8ECC0
:1002800005F001E26BD3DB2A69D3080EDB6A040EAA
:10029000DB50010806E2040EDB0470EC05F0DB50D5
:1002A0008BDB080EDB5009E0030EDB50010B05E190
:1002B00072DB01E04DD3080EDB6A64DBEFCFDFFFBA
:1002C00020EC06F003E1151C01E142D3A8EC05F097
:1002D00001E3DB2A60DB01E141D33AD3070EDB50B7
:1002E00002080FE1ECEC05F0030EB3EC05F00E0E86
:1002F000EECFDBFF0F0EEECFDBFF100EEECFDBFFFE
:1003000020D0F70EDBCF17F0F80EDBCF18F0020E7F
:10031000175E000E185AF70E17C0DBFFF80E18C054
:10032000DBFF17C0E9FF18C0EAFFA3EC05F0166A6F
:100330000E0E14C0DBFF0F0E15C0DBFF100E16C033
:10034000DBFF0E0EDBCFE6FF0F0EDBCFE6FF100E5E
:10035000DBCFE6FFA9EC22F0E552E552E552130EA1
:1003600007C0DBFF140E08C0DBFF060EDB5005E004
:10037000130EE7EC05F001E26ADB0BEC06F002E29B
:10038000130E37DBCEEC05F006E0040EE7EC05F0CB
:1003900002E2050E2EDB030EDBB005D0FCDA01E035
:1003A000D7D2080EDB6A090EDB6A0E0EDBCFF6FF32
:1003B0000F0EDBCFF7FF100EDBCFF8FF0800F55074
:1003C000DF6EDF5014E011EC06F011E220EC06F0D5
:1003D00003E1151C01E1BCD2BBDB01E3DB2A090E02
:1003E000DB2AD9500E0FE96E000ECBDBE7D7D3DA4C
:1003F00001E1B4D2ADD2C6DA110EEECFDBFF120EA0
:10040000EDCFDBFF110EDBCFE6FF120EDBCFE6FFF9
:100410009BEC22F0E552E552130EF3CFDBFF140EF6
:10042000F4CFDBFF060EDB5004E0130ED0DB01E25D
:100430000EDB0BEC06F002E2130EDBDAAFDB05E0BD
:10044000040EC5DB02E2050ED4DA030EDBB005D0E4
:10045000A2DA01E07DD2080EDB6A090EDB6A110E1A
:10046000DBCFE9FF120EDBCFEAFFEFCFDFFFDF507C
:1004700014E0D7DB12E2E4DB03E1151C01E168D2F2
:1004800067DB01E3DB2A090EDB2A110EDB2ADBCF57
:10049000E9FF120EE8E3DB2AE6D77DDA01E15ED25E
:1004A00057D2030EDB8E070EDB0410E195DB040E42
:1004B0005ADB0A0EEECFDBFF0B0EEECFDBFF0C0E8E
:1004C000EECFDBFF0D0EEECFDBFF6CD0070EDB5067
:1004D00003082CE1030EDBAE0DD0B2DA020E76DAA1
:1004E000EFCF14F0156A166A176A14AE39D0156882
:1004F000166835D0F70EDBCF15F0F80EDBCF16F00F
:10050000020E155E000E165AF70E15C0DBFFF80E30
:1005100016C0DBFF15C0E9FF16C0EAFFEFCF14F0ED
:100520000A0E14C0DBFF0B0EDB6A38D0070EDB505F
:10053000020809E1030EDBAE04D059DB16AE10D081
:100540000ED055DB0DD0030EDBAE12D079DA020EE1
:100550003DDAF9DA166A176A15AE02D0166817681E
:10056000E2DA0C0E16C0DBFF0D0E17C0DBFF1AD04F
:10057000F70EDBCF16F0F80EDBCF17F0020E165E8B
:10058000000E175AF70E16C0DBFFF80E17C0DBFF80
:1005900016C0E9FF17C0EAFFD6DAC5DA0C0EDB6A2F
:1005A0000D0EDB6A060EDB5005E1010EF36E050E43
:1005B000F3CFDBFF150EDB6A160EDB6AD950370F5F
:1005C000146E000EDA20156E390E14C0DBFF3A0EE1
:1005D00015C0DBFF380EDB6A080EDB6A0A0EAEDAE6
:1005E000DF50780A12E0200A10E0280A0CE0200A06
:1005F0000AE03F0A06E00D0A02E0200A08E1020EC6
:1006000005D0080E03D0080EDF26100E97DA030E71
:10061000DBBE02D0DB92DB94DB50800B24E08ADA75
:10062000D890030EEB50000A08E6000EEE5C000EB8
:10063000EE58000EEE58000EEE5815E213DA0B6875
:100640000C680D680E6858EC23F00A0E02C0DBFF40
:100650000B0E03C0DBFF0C0E04C0DBFF0D0E05C04C
:10066000DBFF2D0E08D0030EDBA202D02B0E03D031
:10067000DBA408D0200EF36E170EF3CFDBFF150EB0
:10068000DB2A02D0170EDB6A050EDB5003E1B7D977
:1006900001E189D07A0E146E480E156E000E166EAA
:1006A000070EDBCF17F0186A196A1A6A17C00BF029
:1006B00018C00CF019C00DF01AC00EF0D3D990EC90
:1006C00023F014500224F36E15500320F46E1650DC
:1006D0000420F86EF4CFF7FFF3CFF6FF0800090E01
:1006E000F5CFDBFF580EDF5C0FE1610EF36E090EF4
:1006F0007BD90AE3200E146E090EDBCFE7FF1450FE
:10070000E75E090EE7CFDBFF070EDBCF14F0156ABB
:10071000166A176A0FDA14C00BF015C00CF016C079
:100720000DF017C00EF0EECF06F0EECF07F0EECFD3
:1007300008F0EFCF09F090EC23F009C0EDFF08C0FE
:10074000EDFF07C0EDFF06C0EFFF390EDBCFE9FF7D
:10075000DB063A0EDBCFEAFF01E2DB06090EDBCF58
:10076000EFFF150EDB2A4BD995E1030EDBA61DD05A
:100770006F0EDF5C06E1C1D918E3150EDB285BDAEA
:1007800014D0780EDF5C09E0580EDF5C06E0620EE4
:10079000DF5C03E0420EDF5C08E1020EF36E160E32
:1007A000F3CFDBFF02D0150EDB6A030EDB50100B1C
:1007B0000EE0040EDBCF14F0050EDB50D88014548D
:1007C00006E2060EDB5003E1040EDB5034DA95D965
:1007D0000AE2050EDBCFE7FF150EDB50E75E050EE4
:1007E000E7CFDBFF02D0050EDB6A040EDBCF14F08F
:1007F000160E45D9D880145414E2160EDBCFE6FF4E
:10080000150EDBCFE6FF040EDBCFE6FF050EDB5057
:10081000E552E75CE552D880E754E552D880E754CA
:100820005FD9030EDB50010B0BE1080EDB5008E033
:10083000B2D801E08DD0080EDB50BED8080EDB6ABE
:10084000170EDB5007E088D9170EF1D903E1151C0C
:1008500001E17ED0160EDB5016E07ED9300EE66E3A
:100860009FD802E1151C74E077D9DFCFE6FF16ECC4
:1008700023F0E552E552E552F4CF15F00001F31CE8
:1008800002E1151C65E0050EDBCF14F0160EDB50FF
:10089000D880145409E2050EDBCFE7FF160EDB50BB
:1008A000E75E050EE7CFDBFF300EE66E050ECBD917
:1008B0004FE1390EDB2ADBCFE9FF3A0E01E3DB2AF9
:1008C000DBCFEAFF090EEFCFDBFFDB500EE044D9B0
:1008D000090EADD902E1151C3BE0390EDB2ADBCF56
:1008E000E9FF3A0EEDE3DB2AEBD755D831E1160EDE
:1008F000DBCFE6FF080EC3D8E552E7245DD82ED043
:10090000070EDB50030A1CE0010A14E0030A07E0AB
:100910007BD9DBCFEEFF020EDBCFEDFF1FD0F5D88A
:10092000196A17AE02D0186819682CD8BCD819C03B
:10093000EEFF14D0EAD817BE186824D8B4D80ED069
:1009400063D9DBCFEFFF0AD07BD905E1151C03E1AA
:10095000F368F46810D0FCD801E3DB2A79D94DEFB5
:1009600000F0010EDBCF14F0020EDBCF15F014C047
:10097000F3FF15C0F4FF3B0EE15C02E2E16AE552D1
:10098000E16ECBD029D9020EB3EF05F061D9080092
:10099000F550DF6E1200200EE66E080E23EF06F013
:1009A00016EC23F0E552E552E552F3CF14F0F4CF04
:1009B00015F00001F31C1200146E156AD950010FD6
:1009C0004DD91450EE261550ED221200185E000E7F
:1009D000195AF70E18C0DBFFF80E19C0DBFF18C05C
:1009E000E9FF19C0EAFF1200DBCFF4FFF350F45C1B
:1009F0001200DB50E76E040EE7CFDBFF12000A0E99
:100A0000DBCF14F00B0EDBCF15F00C0EDBCF16F0A6
:100A10000D0EDBCF17F01450151016101710120022
:100A2000130EEECFDBFF140EEDCFDBFF130EDBCF8B
:100A300014F0140EDBCF15F00001800E1514120017
:100A4000F70EDBCF18F0F80EDBCF19F01200050E11
:100A5000DB50E66ED950130F01D9E552E750EE6E28
:100A6000ED6A12000A0EDBCF06F00B0EDBCF07F0AB
:100A70000C0EDBCF08F00D0EDBCF09F01200DBCF40
:100A8000E6FF150EDBCFE6FF050EDB50E552E7244F
:100A9000E552E7241200DB50CED8010EF36E060EAD
:100AA000F3CFDBFF1200EE50EFCFEAFFE96E16C086
:100AB000EEFF17C0EEFF18C0EEFF1200D9CFE6FF21
:100AC000DACFE6FFE1CFD9FFE2CFDAFF1200DFCFC6
:100AD000E6FFE66AE1EC23F0E552E552F35012003E
:100AE000E76E080EE7CFDBFF1200EECF14F0EECF7B
:100AF00015F0EFCF16F0176A1200050EDBCF14F0D9
:100B0000150EDB50D88014541200010EDBCF16F006
:100B1000020EDBCF17F0186A1200E552E5CFDAFFBC
:100B2000E7CFD9FF12000A0E14C0DBFF0B0E15C071
:100B3000DBFF1200D9500A0F2EEF06F0F36E070EFE
:100B4000F3CFDBFF1200EECF14F0EFCF15F0120061
:100B5000010EDB2A020E1200FC0EDBCFE6FFFD0EBB
:100B6000DBCFE6FF1200145E000E155AF70E14C01C
:100B7000DBFFF80E15C0DBFF14C0E9FF15C0EAFF6C
:100B80001200DA20EA6EEF2AEECFF6FF000EEF2217
:100B9000EECFF7FFEF22EECFF8FF1200040EDBCF0F
:100BA000E6FF130EDB50E552E75C9ADFDB5004DF13
:100BB000060EDB501200090EDB500A0DF350DF2445
:100BC000D00FE76E090EE7CFDBFFC6EF04F0DB5076
:100BD000F36E050EF4EF04F0F70EDBCF14F0F80E11
:100BE000DBCF15F01200DFCFE6FFD0EF04F028DFF7
:100BF000030EECDE75EF05F022EC00F0E552E55255
:100C0000E552E55200091200BDDEEE50EFCFEAFFDB
:100C1000E96E010E1200130EDB50F36E040EF4EFBA
:100C200004F0040EDB50F36E090EF4EF04F0DBCF9A
:100C3000E6FFD0EF04F0E76E050EE7CFDBFF120012
:100C40008BDFF3EF05F0DBCFE6FF86DFFCEF05F08F
:100C5000D950F90FE96EFF0EC1EF05F0E96E000EF5
:060C6000DA20EA6E12002A
:0A0C66000101CF0EEE6F450EEF6F97
:100C7000C60EF06F450EF16FBD0EF26F450EF36FAD
:100C80009C0EF46F450EF56FF90EF66F450EF76F7B
:100C9000D80EF86F450EF96F230EFA6F460EFB6FF4
:100CA000020EFC6F460EFD6F1200D9CFE6FFE1CFBA
:100CB000D9FF010E0101CE6FCF6B0101CC6BCD6B63
:100CC0000101D06BD16BCAC114F0CBC115F0030E7A
:100CD000D89014361536E806FBE1C00E1424010145
:100CE000D26FFD0EDBCFE9FFFE0EDBCFEAFFB00EC9
:100CF000EE6EED0EED6E800EE66ECAC1E6FFCBC164
:100D0000E6FF020E0101EA6ACA25E96ECB51EA222A
:100D1000D890E936EA36EE0EE926010EEA22EECF49
:100D2000E6FFEFCFE6FF6CEC13F0146E050EE15E0C
:100D300014500101010ECA1901E1CB511DE1C00E91
:100D4000E66ECAC1E6FFCBC1E6FF8150200B01E091
:100D5000010EE96EEA6AD890E936EA36EE0EE92627
:100D6000010EEA22EECFE6FFEFCFE6FF6CEC13F0C8
:100D7000146E050EE15E14508150200B02E08B8052
:100D800001D08B908150200B01E0010E146E156A8A
:100D900014C0F3FF15C0F4FF00D0E552E7CFD9FF30
:100DA0001200D9CFE6FFE1CFD9FF0101CE6BCF6BA7
:100DB000010E0101CC6FCD6B0101D06BD16BCAC1AB
:100DC00014F0CBC115F0050E1502F3CF15F0140287
:100DD000F3CF14F0F4501526C00E14240101D26F85
:100DE0008D808B80800EE66ECAC1E6FFCBC1E6FF28
:100DF000060E0101EA6ACA25E96ECB51EA22D890B3
:100E0000E936EA36EE0EE926010EEA22EECFE6FFDB
:100E1000EFCFE6FF6CEC13F0146E050EE15E14509C
:100E2000FD0EDBCFE9FFFE0EDBCFEAFFB00EEE6E6C
:100E3000ED0EED6EE552E7CFD9FF12000101CC6B4C
:100E4000CD6B0101CE6BCF6B010E0101D06FD16B69
:100E5000800EE66ECAC1E6FFCBC1E6FF040E0101BB
:100E6000EA6ACA25E96ECB51EA22D890E936EA3619
:100E7000EE0EE926010EEA22EECFE6FFEFCFE6FF07
:100E80006CEC13F0146E050EE15E14501200D9CF15
:100E9000E6FFE1CFD9FFFD0EDBCF14F0FE0EDBCF76
:100EA00015F08150200B01E0010E166E176A1650E6
:100EB000141802E11750151829E00101010ECA1992
:100EC00001E1CB511DE1C00EE66ECAC1E6FFCBC108
:100ED000E6FF8150200B01E0010EE96EEA6AD8902E
:100EE000E936EA36EE0EE926010EEA22EECFE6FFFB
:100EF000EFCFE6FF6CEC13F0146E050EE15E1450BC
:100F00008150200B02E08B8001D08B908150200B10
:100F100001E0010E146E156A14C0F3FF15C0F4FF52
:0A0F200000D0E552E7CFD9FF120020
:060F2A00120100020200AA
:100F30000008D8040A000001010200010902430070
:100F4000020100C032090400000102020100052470
:100F500000100104240202052406000105240100FA
:100F6000010705810308000209040100020A0000CC
:100F7000000705020240000007058202400000044D
:100F800003090434034D006900630072006F0063BD
:100F9000006800690070002000540065006300686C
:100FA000006E006F006C006F006700790020004940
:100FB000006E0063002E0034034300440043002011
:100FC00000520053002D0032003300320020004553
:100FD000006D0075006C006100740069006F006EA8
:100FE000002000440065006D006F003C0F7F0F8300
:030FF0000FB70F29
:0610000013EF24F01200C2
:021006001200D6
:061008001DEF1AF01200BA
:06101800BEEF1AF0120009
:02101E00D9CF28
:10102000E6FFE1CFD9FFE652A09A6A6A686A706A61
:10103000020EE66EE66AE66A710EE66E0F0EE66E68
:1010400081EC22F0146E050EE15E1450160E6F6EE8
:101050009F0E6B6E7B0E696EDF6ADF50146E156A31
:101060000C0E145C000E155810E2DF50040DF3CF87
:10107000E9FFF4CFEAFF000EE926040EEA22EE6A49
:10108000EE6AEE6AEE6ADF2AE8D76D8C6E6A6D98BA
:101090006D9C68A607D068960201DF6BE46BE56B78
:1010A000E66BF7D70201010EF86FF96FFA6BFB6B75
:1010B000EC6BDF6A030EDF5C26E2EA6ADF34FE0BCC
:1010C000EA36E96ED50EE926020EEA22EE6AED6AEC
:1010D000EA6ADF34FE0BEA36E96ECF0EE926020E2D
:1010E000EA22EE6AED6ADF50EA6AF00FE96E020E5C
:1010F000EA22EF6ADF50EA6AF30FE96E020EEA2293
:10110000EF6ADF2AD7D70201080ED56F040ED66F1B
:10111000160E706E0401300E026F040E036F080E7F
:10112000016F840E006F0201C96BC86BE552E55276
:10113000E7CFD9FF1200D9CFE6FFE1CFD9FFE652C2
:101140000201C85116E106D06D6A696A0201C86BD6
:10115000A19AB9D06D6A696A160E6F6E9F0E6B6E9A
:101160007B0E696E6DB602D06D86FCD70201010E52
:10117000C86FC80508E16DBA06D0686A696A6980F7
:101180006988020EC86F6850040B05E06950040BB3
:1011900002E06894CBD86DA202D0A19A94D0685096
:1011A000010B08E06950010B05E039DF0201040E74
:1011B000C86F68906850100B05E06950100B02E092
:1011C000A0D8689868AC19D069AC0FD0010EE66E53
:1011D000E66A000EE66EE66A730EE66EE66A24ECD8
:1011E0001DF0146E060EE15E1450689C0201F6516B
:1011F00001E0F607F65101E173DB6850200B04E0D3
:101200006950200B01E064D86850020B13E069506C
:10121000020B10E0010EE66EE66A000EE66EE66A6C
:10122000E6687F0EE66E24EC1DF0146E060EE15E9D
:1012300014506A6A040E0201E76EC819E8AE02D0C3
:10124000E73402D0E750C85D02E2A19A3CD069A61B
:1012500039D0DF6A040EDF5C35E268A630D06CCF8F
:10126000EDF20201ED51780BE842E842E842EE6F00
:101270006896EDB508D0EE51EA6AF30FE96E020EFA
:10128000EA22EF7007D0EE51EA6AF00FE96E020E23
:10129000EA22EF70EE5102E160D810D0000EE66E47
:1012A000E66AED0EE66E020EE66E720EE66EE66A17
:1012B00024EC1DF0146E060EE15E145001D002D035
:1012C000DF2AC8D7A19AE552E552E7CFD9FF12002D
:1012D00070A015D0CBC2E9FFCCC2EAFFEF50800866
:1012E0000DE1D5C2E9FFD6C2EAFFEF50840806E15E
:1012F000CBC2E9FFCCC2EAFF8C0EEF6E7090689A09
:101300001200698468986D820201010EEC6F000E74
:10131000E66EE66AE66EE66A750EE66EE66A24EC4E
:101320001DF0146E060EE15E145012000201EC6B0B
:10133000000EE66EE66AE66EE66A740EE66EE66A31
:1013400024EC1DF0146E060EE15E14506D9269944B
:1013500068A402D06894FCD71200D9CFE6FFE1CF91
:10136000D9FFE65202012D0EF66FFD0EED1553E189
:101370007E0EED15E8407F0B040DF3CFCBF2F4CFDA
:10138000CCF2000ECB27040ECC23CBC2CDF2CCC2C4
:10139000CEF2CD75CBC2E9FFCCC2EAFFEF503C0BD9
:1013A000E842E8420D0835E1DF6A080EDF5C23E21F
:1013B000CBC2E9FFCCC2EAFF020EE926000EEA2208
:1013C000EE50EFCFEAFFE96EEF50E66EDF50EA6ACB
:1013D000300FE96E040EEA22E552E750EF6ECBC201
:1013E000E9FFCCC2EAFF020EE926000EEA22EE2A4D
:1013F000EF22DF2ADAD7CBC2E9FFCCC2EAFF020E26
:10140000E926000EEA22300EEE6E040EED6E0DD8C7
:1014100001D03AD805D0FD0EED15040801E15AD8E7
:10142000E552E552E7CFD9FF12000201DB6BF76B03
:10143000FA6BFB6BEF6BDC6BD5C2E9FFD6C2EAFF40
:10144000EF9ED575D5C2E9FFD6C2EAFFEF9ED575EE
:10145000CDC2E9FFCEC2EAFFEF9EDF6BE06BE16B2E
:10146000E46BE56BE66B90D8000EE66EE66AE66E1E
:10147000E66A030EE66EE66A24EC1DF0146E060EB4
:10148000E15E1450C9EF0DF0020E0201DC5D03E1D4
:101490008CEC0EF01ED0DC6BEF511AE1CDC2E9FFEF
:1014A000CEC2EAFFEE52080EEF6ECDC2E9FFCEC209
:1014B000EAFF020EE926000EEA22300EEE6E040E5E
:1014C000ED6ECDC2E9FFCEC2EAFF8C0EEF6E01D009
:1014D000EF6B1200D9CFE6FFE1CFD9FFE652D5C2BC
:1014E000E9FFD6C2EAFFEF50400B01E0010EDF6ECC
:1014F0000201D575080EC85D09E132C46EFF6E5059
:1015000003E0100EC86F02D0040EC86FDC0528E19E
:10151000D5C2E9FFD6C2EAFF020EE926000EEA2292
:10152000380EEE6E040EED6E95DB020E0201DB5DF1
:1015300007E1D5C2E9FFD6C2EAFF840EEF6E0FD0F5
:10154000DF5007E1D5C2E9FFD6C2EAFFC80EEF6E51
:1015500006D0D5C2E9FFD6C2EAFF880EEF6E0FD0E3
:10156000E4AF0CD0E751E81107E005D0E8C2FAFF7C
:101570000201E751F96EFADF0201E49FDC6BE552EC
:10158000E552E7CFD9FF120004013051600BE84269
:10159000E842E842E842E842000901E059D031510E
:1015A0000C0A55E00B0A44E00C0A36E0010A27E079
:1015B0000B0A23E0020A21E0030A1DE0080A11E0F9
:1015C000010A0CE00F0A08E0030A01E040D0020122
:1015D000DF8F080EC86F3CD014DA3AD02CEC0FF035
:1015E00037D00201C90EDD6F020EDE6FDF81010E02
:1015F000E06FDF8F2DD065DA2BD02BD829D0345176
:101600000201DD6FDE6BCA0EDD27020EDE23DF81F5
:10161000010EE06FDF8F1CD00201DF8F0401345117
:10162000EA6ACA0FE96E020EEA2232C4EFFF10D056
:10163000000EE66EE66AE66EE66A020EE66EE66AA0
:1016400024EC1DF0146E060EE15E145001D000D0A3
:101650001200D9CFE6FFE1CFD9FF050EE126040144
:10166000320510E130511F0B00090CE10201DF8F40
:10167000030E0401315D04E10201010EEB6F02D0A3
:101680000201EB6B0401325101E020D130511F0BFC
:10169000020801E01BD134510F0B000901E116D102
:1016A00034510F0B020801E211D1200E0201C85D76
:1016B00001E00CD1DF8F040134BF1AD034510F0B7D
:1016C000E96EEA6AD890E936EA36CF0EE926020ECC
:1016D000EA22EECFDEFFEDCFDDFF34510F0BEA6AD9
:1016E000F30FE96E020EEA22020EEFCFDBFF19D0F4
:1016F00034510F0BE96EEA6AD890E936EA36D50E16
:10170000E926020EEA22EECFDEFFEDCFDDFF3451F7
:101710000F0BEA6AF00FE96E020EEA22020EEFCF1B
:10172000DBFFD950020FE96EDACFEAFFEF50010B71
:1017300003E1000EDF9401D0DF8434BF10D03451B8
:101740000F0BE96EEA6AD890E936EA36CF0EE92641
:10175000020EEA22DECFEEFFDDCFEDFF0FD03451D7
:101760000F0BE96EEA6AD890E936EA36D50EE9261B
:10177000020EEA22DECFEEFFDDCFEDFF030E315D7C
:1017800023E1DECFE9FFDDCFEAFFEF50800B13E06E
:1017900034BF09D034510F0BEA6AF30FE96E020E21
:1017A000EA22EF8208D034510F0BEA6AF00FE96E9B
:1017B000020EEA22EF82840E146EDECFE9FFDDCF47
:1017C000EAFF1450EF1282D0DF74DECFE9FFDDCFE5
:1017D000EAFFEF50800B1BE0DECFE9FFDDCFEAFF31
:1017E000EF9EDECFE9FFDDCFEAFFEF8C020EE66E63
:1017F000E66ADECFE6FFDDCFE6FF050EE66EE66ABF
:1018000024EC1DF0146E060EE15E145005D0DECF00
:10181000E9FFDDCFEAFFEF8CDF74D950020FE96EEC
:10182000DACFEAFFEF50020B07E1DECFE9FFDDCFB1
:10183000EAFFEF50800B2DE0040134BF09D0345192
:101840000F0BEA6AF30FE96E020EEA22EF9208D05C
:1018500034510F0BEA6AF00FE96E020EEA22EF92A2
:101860003B0E146EDECFE9FFDDCFEAFF1450EF161A
:10187000020EE66EE66ADECFE6FFDDCFE6FF050E7E
:10188000E66EE66A24EC1DF0146E060EE15E14505E
:1018900008D03B0E146EDECFE9FFDDCFEAFF145017
:1018A000EF16040134510F0B156A700F146E0F0EF2
:1018B0001522030E14C0DBFF040E15C0DBFF030E60
:1018C000DBCFE9FF040EDBCFEAFFEF90050EE15C12
:1018D00002E2E16AE552E16EE552E7CFD9FF12007C
:1018E0000201F8514DE1010EF86FF95149E1010E85
:1018F000F96F020EDC5D0DE1D5C2E9FFD6C2EAFF49
:10190000EE52EF6AD5C2E9FFD6C2EAFFC80EEF6E0B
:1019100037D0DC0535E1EF6BCBC2E9FFCCC2EAFF83
:10192000EE52080EEF6ECBC2E9FFCCC2EAFF020E08
:10193000E926000EEA22300EEE6E040EED6ECBC2EA
:10194000E9FFCCC2EAFF840EEF6E010EEF6FCDC24D
:10195000E9FFCEC2EAFFEE52080EEF6ECDC2E9FFFC
:10196000CEC2EAFF020EE926000EEA22300EEE6E2B
:10197000040EED6ECDC2E9FFCEC2EAFF800EEF6E1F
:1019800012000201FA6BFB6B020EDC5D1AE1CDC2A4
:10199000E9FFCEC2EAFFEE52080EEF6ECDC2E9FFBC
:1019A000CEC2EAFF020EE926000EEA22380EEE6EE3
:1019B000040EED6ECDC2E9FFCEC2EAFFC80EEF6E97
:1019C0001FD0E0510401365D0201E1510401375995
:1019D00004E236C4E0F237C4E1F23CD9D5C2E9FFF3
:1019E000D6C2EAFF020EE926000EEA22380EEE6E9B
:1019F000040EED6ED5C2E9FFD6C2EAFFC80EEF6E47
:101A00001200800E0401305D5BE10201C00EDF6F49
:101A100004013351030A34E0010A0EE0030A03E033
:101A20000201DF6B4DD002012A0EDD6F0F0EDE6F5B
:101A3000120EE06FE16B44D03251F66EF76AD89027
:101A4000F636F736EB0EF6260F0EF7220900F5CF25
:101A5000DDF20A00F5CFDEF2020E0201F76ADD25A3
:101A6000F66EDE51F7220800F5CFE0F2030EF76ABA
:101A7000DD25F66EDE51F7220800F5CFE1F220D029
:101A8000030E325D1AE23251F66EF76AD890F636DE
:101A9000F736ED0EF6260F0EF7220900F5CFDDF230
:101AA0000A00F5CFDEF2DDC2F6FFDEC2F7FF080066
:101AB000F5500201E06FE16B02D00201DF6B00D054
:101AC0001200D9CFE6FFE1CFD9FF020EE1260401D3
:101AD000386B396B30511F0B020A12E0030A0DE01C
:101AE000010A01E042D00201DF8F040138810201C6
:101AF000EB0502E10401388338D00201DF8F35D0D5
:101B00000201DF8F040134BF10D034510F0BE96E96
:101B1000EA6AD890E936EA36CF0EE926020EEA22C2
:101B2000EECFDEFFEDCFDDFF0FD034510F0BE96EAE
:101B3000EA6AD890E936EA36D50EE926020EEA229C
:101B4000EECFDEFFEDCFDDFFDECFE9FFDDCFEAFF39
:101B5000EF50800B09E0DECFE9FFDDCFEAFFEF5069
:101B6000040B02E0010E386F00D00201DFAF07D096
:101B7000380EDD6F040EDE6FDF81020EE06F020EA5
:101B8000E15C02E2E16AE552E16EE552E7CFD9FF9E
:101B900012006D980201DFBF2BD0E4AF09D0020E16
:101BA000DC6FFB5101E1EDDE0201F96BF86B1FD038
:101BB000CDC2E9FFCEC2EAFFEE52080EEF6ECDC2F3
:101BC000E9FFCEC2EAFF020EE926000EEA22300E3D
:101BD000EE6E040EED6ECDC2E9FFCEC2EAFF8C0EB2
:101BE000EF6ED5C2E9FFD6C2EAFF840EEF6E31D0A8
:101BF000040130AF0DD00201010EDC6FFA5101E19A
:101C0000C0DE0201F96BF86BF75101E169DE21D00A
:101C10000201020EDC6FCDC2E9FFCEC2EAFFEE5236
:101C2000080EEF6ECDC2E9FFCEC2EAFF020EE92632
:101C3000000EEA22300EEE6E040EED6ECDC2E9FF0C
:101C4000CEC2EAFF840EEF6EF96BF86BF75101E13B
:101C500047DE1200D9CFE6FFE1CFD9FFE652080EEA
:101C6000DF6E0201E05D000EE1590BE2E0C2DFFF32
:101C7000DB5103E1010EDB6F04D0DB0502E1020E54
:101C8000DB6FDF50146E156A1450E05DE06F155085
:101C9000E159E16FD5C2E9FFD6C2EAFFEE52DFCFCC
:101CA000EFFF380EE96F040EEA6FDFB119D0DF5095
:101CB00016E0DDC2F6FFDEC2F7FFDD2B000EDE23ED
:101CC0000800F550E66EE9C2E9FFEAC2EAFFE92B37
:101CD000000EEA23E552E750EF6EDF06E8D717D093
:101CE000DF5015E0DDC2E9FFDEC2EAFFDD2B000EAA
:101CF000DE23EF50E66EE9C2E9FFEAC2EAFFE92B14
:101D0000000EEA23E552E750EF6EDF06E9D7E55211
:101D1000E552E7CFD9FF1200D9CFE6FFE1CFD9FFD7
:101D2000020EE126CBC2E9FFCCC2EAFFEE52EFCFB2
:101D3000DFFFDFCF14F014500201E55D000EE6591D
:101D400002E2E5C2DFFFDF50146E156A1450E55D54
:101D5000E56F1550E659E66F010EDB6ADF50F36E52
:101D6000010EDBCFF4FFF350F45C16E2010EDB5002
:101D7000EA6A380FE96E040EEA22EF50E66EE2C21C
:101D8000E9FFE3C2EAFFE22B000EE323E552E7504E
:101D9000EF6E010EDB2AE2D7000ED880E555000E6B
:101DA000E65528E2CDC2E9FFCEC2EAFFEE52080EA8
:101DB000EF6ECDC2E9FFCEC2EAFF020EE926000EA9
:101DC000EA22380EEE6E040EED6ECBC2E9FFCCC2F5
:101DD000EAFFEF50400B07E1CDC2E9FFCEC2EAFFB8
:101DE000C80EEF6E06D0CDC2E9FFCEC2EAFF880E64
:101DF000EF6E28D0CDC2E9FFCEC2EAFFEE52080E48
:101E0000EF6ECDC2E9FFCEC2EAFF020EE926000E58
:101E1000EA22300EEE6E040EED6ECDC2E9FFCEC2A8
:101E2000EAFF840EEF6EE751E81107E005D0E8C243
:101E3000FAFF0201E751F96EFADF0201E49FF75160
:101E400001E14EDD020EE15C02E2E16AE552E16E83
:101E5000E552E7CFD9FF1200D9CFE6FFE1CFD9FF96
:101E6000E6520201DF8F020EE66EE66AE66A710E46
:101E7000E66E0F0EE66E81EC22F0146E050EE15E4A
:101E80001450DF6ADF50146E156A0C0E145C000EDD
:101E9000155810E2DF50040DF3CFE9FFF4CFEAFF4D
:101EA000000EE926040EEA22EE6AEE6AEE6AEE6A97
:101EB000DF2AE8D76D8CDF6A030EDF5C10E2DF50AB
:101EC000EA6AF00FE96E020EEA22EF6ADF50EA6A70
:101ED000F30FE96E020EEA22EF6ADF2AEDD7010E58
:101EE000E66EE66AE66ACA0EE66E020EE66E81EC01
:101EF00022F0146E050EE15E14506D9C0201080E76
:101F0000D56F040ED66F000ECB6F040ECC6FCBC214
:101F1000CDF2CCC2CEF232C4C9F2C95103E1100EE7
:101F2000C86F13D0010EE66EE66AC90EE66E020EA9
:101F3000E66E010EE66EE66A24EC1DF0146E060EE7
:101F4000E15E14500201200EC86FE552E552E7CF62
:101F5000D9FF1200D9CFE6FFE1CFD9FF020EE1266B
:101F6000000EDE6E040EDD6EFD0EDB50E824166EF4
:101F7000FE0EDB50040DF3501624040DF3CF14F0C5
:101F8000F4CF15F0D9CFE9FFDACFEAFF1450EE26EF
:101F90001550ED22DECFE9FFDDCFEAFFEF9EFD0E0B
:101FA000DB500FE1FE0EEA6ADB34FE0BEA36E96E27
:101FB000CF0EE926020EEA22DECFEEFFDDCFEDFFE7
:101FC0000ED0FE0EEA6ADB34FE0BEA36E96ED50E61
:101FD000E926020EEA22DECFEEFFDDCFEDFFDECFF7
:101FE000E9FFDDCFEAFFEF9CDECFE9FFDDCFEAFFBF
:101FF000040EE926000EEA22EF8C020EE15C02E2FA
:10200000E16AE552E16EE552E7CFD9FF1200D9CF80
:10201000E6FFE1CFD9FF020EE126FD0EDBA407D0DB
:10202000E66AFE0EDBCFE6FF95DFE552E552FD0ED8
:10203000DBA208D0010EE66EFE0EDBCFE6FF8ADFE4
:10204000E552E552FE0EDB50156A700F146E0F0E4E
:10205000152214C0DEFF15C0DDFFDECFE9FFDDCFA6
:10206000EAFFFD0EDBCFEFFF020EE15C02E2E16A68
:10207000E552E16EE552E7CFD9FF1200D9CFE6FF76
:10208000E1CFD9FF020EE126FE0EDB5020E1CDC2EA
:10209000E9FFCEC2EAFFEE52080EEF6ECDC2E9FFB5
:1020A000CEC2EAFF020EE926000EEA22300EEE6EE4
:1020B000040EED6ECDC2E9FFCEC2EAFF8C0EEF6ECC
:1020C000D5C2E9FFD6C2EAFF840EEF6E3DD0FD0E09
:1020D000DB50E824166EFE0EDB50040DF350162480
:1020E000040DF3CF14F0F4CF15F0000E1426040EF7
:1020F000152214C0DEFF15C0DDFF840E146EDECF86
:10210000E9FFDDCFEAFF1450EF12FD0EDB50E824AB
:10211000166EFE0EDB50040DF3501624010F040D55
:10212000F3CF14F0F4CF15F0000E1426040E152290
:1021300014C0DEFF15C0DDFF840E146EDECFE9FF94
:10214000DDCFEAFF1450EF12020EE15C02E2E16A19
:10215000E552E16EE552E7CFD9FF1200D9CFE6FF95
:10216000E1CFD9FF020EE126FD0EDB500FE0FE0E9F
:10217000EA6ADB34FE0BEA36E96ED50EE926020E7A
:10218000EA22EECFDEFFEDCFDDFF0ED0FE0EEA6AD3
:10219000DB34FE0BEA36E96ECF0EE926020EEA22A8
:1021A000EECFDEFFEDCFDDFFD9CFE9FFDACFEAFFDB
:1021B000EE50ED1003E1F36AF46A49D0DECFE9FF97
:1021C000DDCFEAFF020EE926000EEA22FB0EDBCF8E
:1021D000EEFFFC0EDBCFEDFFDECFE9FFDDCFEAFF48
:1021E000EE52FA0EDBCFEFFF400E146EDECFE9FFAA
:1021F000DDCFEAFF1450EF16880E146EDECFE9FF34
:10220000DDCFEAFF1450EF12FD0EDB500CE0FE0EA6
:10221000EA6ADB34FE0BEA36E96ED50EE926020ED9
:10222000EA22EF740BD0FE0EEA6ADB34FE0BEA36CC
:10223000E96ECF0EE926020EEA22EF74DECF14F02B
:10224000DDCF15F014C0F3FF15C0F4FF00D0020E6F
:10225000E15C02E2E16AE552E16EE552E7CFD9FFC7
:102260001200D9CFE6FFE1CFD9FF6DA84ED0FE0E08
:10227000EA6ADB34FE0BEA36E96ED50EE926020E79
:10228000EA22EE50EFCFEAFFE96E400EEE16EE6A5C
:10229000EE6AEE6AFE0EEA6ADB34FE0BEA36E96E9F
:1022A000D50EE926020EEA22EE50EFCFEAFFE96EE4
:1022B000EE7CFE0EEA6ADB34FE0BEA36E96ED50EE2
:1022C000E926020EEA22EF74400E146EFE0EEA6A50
:1022D000DB34FE0BEA36E96ED50EE926020EEA2261
:1022E000EE50EFCFEAFFE96E1450EF16FE0EEA6AE9
:1022F000DB34FE0BEA36E96ED50EE926020EEA2241
:10230000EE50EFCFEAFFE96EEF7CE552E7CFD9FF61
:022310001200B9
:0E2312008C86320EE66E2FEC24F0E5528C968F
:102320001200C80EE66EB4EC23F0E552C80EE66E5D
:10233000B4EC23F0E552C80EE66EB4EC23F0E5529F
:10234000C80EE66EB4EC23F0E552C80EE66EB4ECAF
:1023500023F0E552C80EE66EB4EC23F0E552C80E49
:10236000E66EB4EC23F0E552C80EE66EB4EC23F052
:10237000E552C80EE66EB4EC23F0E552C80EE66EE8
:10238000B4EC23F0E552C80EE66EB4EC23F0E5524F
:10239000C80EE66EB4EC23F0E552180EE66EB4EC0F
:1023A00023F0E5528C968C948C888C8A8C9C8C9E25
:1023B000B0DF060EE66EB4EC23F0E5528C888C8A12
:1023C0008C9C8C9EA6DF180EE66EF3EC23F0E55293
:1023D0008C888C8A8C9C8C9E9CDF180EE66EF3ECAD
:1023E00023F0E5528C988C8A8C9C8C9E92DF060E92
:1023F000E66EB4EC23F0E552280EE66E13D8E552F3
:10240000080EE66E0FD8E5520C0EE66E0BD8E552BC
:10241000010EE66E07D8E552060EE66E03D8E552C9
:1024200089EF11F0D9CFE6FFE1CFD9FF8C988C9AD4
:102430008C9C8C9EFE0EDBAE02D08C8E01D08C9ECE
:10244000DBAC02D08C8C01D08C9CDBAA02D08C8AB5
:1024500001D08C9ADBA802D08C8801D08C9859DFEF
:10246000320EE66E2FEC24F0E552FE0EDBA602D013
:102470008C8E01D08C9EDBA402D08C8C01D08C9CE5
:10248000DBA202D08C8A01D08C9ADBA002D08C888F
:1024900001D08C983EDF320EE66E2FEC24F0E55230
:1024A000E552E7CFD9FF1200D9CFE6FFE1CFD9FF40
:1024B0008C84FE0EDBCFE6FFB5DFE5528C94E5524F
:1024C000E7CFD9FF1200D9CFE6FFE1CFD9FF020E47
:1024D000E126DE6ADD6A8C94D59EFA0EDBCFE6FF3C
:1024E000A1DFE552D950FB0FE96EFF0EDA20EA6E4C
:1024F000010EEE1801E1ED5024E18C84FD0EDBCFDE
:10250000E9FFFE0EDBCFEAFFEF5019E0FA0EDB2AFF
:10251000DB50900806E18C94C00EE66E83DFE55236
:102520008C84FD0EDBCFE9FFDB2AFE0EDBCFEAFF5A
:1025300001E3DB2AEF50E66E75DFE552DFD78C94BE
:1025400023D08C84FD0EDBCFE9FFFE0EDBCFEAFF4C
:10255000EF5019E0FA0EDB2ADB50880806E18C9474
:10256000C00EE66E5FDFE5528C84FD0EDBCFE9FF27
:10257000DB2AFE0EDBCFEAFF01E3DB2AEF50E66E3B
:1025800051DFE552DFD78C94D58E020EE15C02E27A
:10259000E16AE552E16EE552E7CFD9FF1200D9CFEB
:1025A000E6FFE1CFD9FF080EE126FD0EDBCF14F0E8
:1025B000FE0EDBCF15F0040ED89014361536E80663
:1025C000FBE1100E1426000E1522060E14C0DBFFD0
:1025D000070E15C0DBFF800EF36E020EF3CFDBFF9C
:1025E000030EDB6AFD0EDBCF14F0FE0EDBCF15F021
:1025F000030ED89014361536E806FBE1080E1426B3
:10260000000E1522800E1426000E1522040E14C092
:10261000DBFF050E15C0DBFFD59E8C94020EDBCFD1
:10262000E6FF00DFE5528C84D950FD0FE96EFF0E06
:10263000DA20EA6E010EEE1801E1ED5042E1D9CF49
:10264000E9FFDACFEAFFEE50ED1002E0000E01D014
:10265000010EDECF14F0DDCF15F0060EDBCF16F045
:10266000070EDBCF17F015501718E8AE02D017345D
:1026700004D01650145C1750155823E2020EDB2AC2
:10268000030E01E3DB2A020EDBCF14F0030EDBCFD7
:1026900015F0040EDB50141803E1050EDB5015187D
:1026A00007E18C94020EDBCFE6FFBCDEE5528C84A2
:1026B000200EE66EB7DEE552DF2A010E01E3DB2ACB
:1026C000C8D7D58E080EE15C02E2E16AE552E16E00
:1026D000E552E7CFD9FF1200D9CFE6FFE1CFD9FF0E
:1026E000020EE126DE6ADD6AD59E8C94FA0EDBCFFF
:1026F000E6FF98DEE552D950FB0FE96EFF0EDA20B7
:10270000EA6E010EEE1801E1ED5026E18C84FD0E1B
:10271000DBCFF6FFFE0EDBCFF7FF0800F5501AE027
:10272000FA0EDB2ADB50900806E18C94C00EE66EB0
:1027300079DEE5528C84FD0EDBCFF6FFDB2AFE0E40
:10274000DBCFF7FF01E3DB2A0800F550E66E6ADE17
:10275000E552DDD78C9425D08C84FD0EDBCFF6FFBF
:10276000FE0EDBCFF7FF0800F5501AE0FA0EDB2A69
:10277000DB50880806E18C94C00EE66E53DEE5520D
:102780008C84FD0EDBCFF6FFDB2AFE0EDBCFF7FFDE
:1027900001E3DB2A0800F550E66E44DEE552DDD7A2
:1027A0008C94D58E020EE15C02E2E16AE552E16EA4
:1027B000E552E7CFD9FF1200D9CFE6FFE1CFD9FF2D
:1027C000040EE126020EDB6A030EDB6A8C94020E15
:1027D000DBCF14F0030EDBCF15F0D890155004E6D4
:1027E0002D0E145C000E155801E37FD2DE6ADD6AFF
:1027F000DECF14F0DDCF15F0020EDBCF16F0030EA6
:10280000DBCF17F017501518E8AE02D0153404D0FE
:102810001450165C1550175801E24AD2D9CFE9FF7F
:10282000DACFEAFFEE50ED1017E18C94C70EE66E9A
:10283000F9DDE552020EDBCF14F0030EDBCF15F00D
:10284000FD0EDB501424E96EFE0EDB501520EA6EFF
:10285000EF50E66E29DEE552D9CFE9FFDACFEAFF85
:10286000010EEE1801E1ED501AE18C94C60EE66EF1
:10287000D9DDE552020EDBCF14F0030EDBCF15F0ED
:10288000FD0EDB501424E96EFE0EDB501520EA6EBF
:10289000E906000EEA5AEF50E66E06DEE552D9CFA1
:1028A000E9FFDACFEAFF020EEE1801E1ED501BE17D
:1028B0008C94C50EE66EB6DDE552020EDBCF14F049
:1028C000030EDBCF15F0FD0EDB501424E96EFE0E77
:1028D000DB501520EA6E020EE95E000EEA5AEF5058
:1028E000E66EE2DDE552D9CFE9FFDACFEAFF030E6B
:1028F000EE1801E1ED501BE18C94C40EE66E92DD02
:10290000E552020EDBCF14F0030EDBCF15F0FD0E07
:10291000DB501424E96EFE0EDB501520EA6E030E28
:10292000E95E000EEA5AEF50E66EBEDDE552D9CF01
:10293000E9FFDACFEAFF040EEE1801E1ED501BE1EA
:102940008C94C30EE66E6EDDE552020EDBCF14F002
:10295000030EDBCF15F0FD0EDB501424E96EFE0EE6
:10296000DB501520EA6E040EE95E000EEA5AEF50C5
:10297000E66E9ADDE552D9CFE9FFDACFEAFF050E20
:10298000EE1801E1ED501BE18C94C20EE66E4ADDBB
:10299000E552020EDBCF14F0030EDBCF15F0FD0E77
:1029A000DB501424E96EFE0EDB501520EA6E050E96
:1029B000E95E000EEA5AEF50E66E76DDE552D9CFB9
:1029C000E9FFDACFEAFF060EEE1801E1ED501BE158
:1029D0008C94C10EE66E26DDE552020EDBCF14F0BC
:1029E000030EDBCF15F0FD0EDB501424E96EFE0E56
:1029F000DB501520EA6E060EE95E000EEA5AEF5033
:102A0000E66E52DDE552D9CFE9FFDACFEAFF070ED5
:102A1000EE1801E1ED501BE18C94C00EE66E02DD74
:102A2000E552020EDBCF14F0030EDBCF15F0FD0EE6
:102A3000DB501424E96EFE0EDB501520EA6E070E03
:102A4000E95E000EEA5AEF50E66E2EDDE552D9CF70
:102A5000E9FFDACFEAFF080EEE1801E1ED501BE1C5
:102A60008C94870EE66EDEDCE552020EDBCF14F0AE
:102A7000030EDBCF15F0FD0EDB501424E96EFE0EC5
:102A8000DB501520EA6E080EE95E000EEA5AEF50A0
:102A9000E66E0ADDE552D9CFE9FFDACFEAFF090E8B
:102AA000EE1801E1ED501BE18C94860EE66EBADC67
:102AB000E552020EDBCF14F0030EDBCF15F0FD0E56
:102AC000DB501424E96EFE0EDB501520EA6E090E71
:102AD000E95E000EEA5AEF50E66EE6DCE552D9CF29
:102AE000E9FFDACFEAFF0A0EEE1801E1ED501BE133
:102AF0008C94850EE66E96DCE552020EDBCF14F068
:102B0000030EDBCF15F0FD0EDB501424E96EFE0E34
:102B1000DB501520EA6E0A0EE95E000EEA5AEF500D
:102B2000E66EC2DCE552D9CFE9FFDACFEAFF0B0E41
:102B3000EE1801E1ED501BE18C94840EE66E72DC20
:102B4000E552020EDBCF14F0030EDBCF15F0FD0EC5
:102B5000DB501424E96EFE0EDB501520EA6E0B0EDE
:102B6000E95E000EEA5AEF50E66E9EDCE552D9CFE0
:102B7000E9FFDACFEAFF0C0EEE1801E1ED501BE1A0
:102B80008C94830EE66E4EDCE552020EDBCF14F021
:102B9000030EDBCF15F0FD0EDB501424E96EFE0EA4
:102BA000DB501520EA6E0C0EE95E000EEA5AEF507B
:102BB000E66E7ADCE552D9CFE9FFDACFEAFF0D0EF7
:102BC000EE1801E1ED501BE18C94820EE66E2ADCDA
:102BD000E552020EDBCF14F0030EDBCF15F0FD0E35
:102BE000DB501424E96EFE0EDB501520EA6E0D0E4C
:102BF000E95E000EEA5AEF50E66E56DCE552D9CF98
:102C0000E9FFDACFEAFF0E0EEE1801E1ED501CE10C
:102C10008C94810EE66E12EC12F0E552020EDBCFC0
:102C200014F0030EDBCF15F0FD0EDB501424E96E1B
:102C3000FE0EDB501520EA6E0E0EE95E000EEA5A1B
:102C4000EF50E66E31DCE552D9CFE9FFDACFEAFF8B
:102C50000F0EEE1801E1ED501CE18C94800EE66E33
:102C600012EC12F0E552020EDBCF14F0030EDBCFB4
:102C700015F0FD0EDB501424E96EFE0EDB5015201E
:102C8000EA6E0F0EE95E000EEA5AEF50E66E0CDCBB
:102C9000E552D9CFE9FFDACFEAFF100EEE1801E1D5
:102CA000ED5001E105D0DF2A010E01E3DB2AA0D5BA
:102CB0000C0E086E096ADECF0DF0DDCF0EF0FAECD7
:102CC00020F006C014F007C015F0FF0ED88014568F
:102CD000000E15561450E66EB4EC23F0E552020EC9
:102CE000DB2A030E01E3DB2A72D5040EE15C02E26B
:0E2CF000E16AE552E16EE552E7CFD9FF12002E
:022CFE00D9CF2C
:102D0000E6FFE1CFD9FF060EE126C294C296C29833
:102D1000C29AC280C282C2B2FED7C290C450DE6ED6
:102D2000DD6ADECF14F0DDCF15F0D89014361536FD
:102D3000D8901436153614C0DEFF15C0DDFFC35021
:102D4000E66ED950020FE96EDACFEAFFE552E7509E
:102D5000EE6EED6A020EDBCF14F0030EDBCF15F042
:102D6000060ED89015321432E804FBE1020E14C0AE
:102D7000DBFF030E15C0DBFF020EDBCF16F0030EE8
:102D8000DBCF17F0DE501624146EDD501720156EC1
:102D9000040E14C0DBFF050E15C0DBFF040EDBCFF5
:102DA00014F0050EDBCF15F0153404E21450320890
:102DB000000E155407E3310EF36E040EF3CFDBFF64
:102DC000050EDB6A040EDBCF14F0050EDBCF15F029
:102DD000D890155004E6E80E145C030E15580AE36B
:102DE000E70EF36E040EF3CFDBFF030EF36E050E5A
:102DF000F3CFDBFF040EDBCF14F0050EDBCF15F0B5
:102E000014C0F3FF15C0F4FF060EE15C03E200D02E
:102E1000E16AE552E16EE552E7CFD9FF1200D9CF62
:102E2000E6FFE1CFD9FF0E0EE126D9500C0FE96E77
:102E3000DACFEAFF000EEE6E060EED6E0A0EDB6ACA
:102E40000B0EDB6AD9500A0FE96EDACFEAFF310EBA
:102E5000D880EE54000EED5401E2A0D0FB0EDBCF83
:102E6000E9FFFC0EDBCFEAFFEECF14F0EFCF15F059
:102E70000A0EDBCF18F00B0EDBCF19F0010ED89045
:102E800018361936E806FBE10C0EDB501824E96E03
:102E90000D0EDB501920EA6EEECF16F0EFCF17F0D3
:102EA00017501518E8AE02D0153404D01450165C33
:102EB000155017586DE30A0EDBCF16F00B0EDBCF63
:102EC00017F0010ED89016361736E806FBE10C0E07
:102ED000DB501624E96E0D0EDB501720EA6E640EEF
:102EE000E926000EEA22EECF14F0EFCF15F0FD0E2A
:102EF000DBCFE9FFFE0EDBCFEAFF14C0EEFF15C00B
:102F0000EDFFFD0EDBCFE9FFFE0EDBCFEAFFEECFDC
:102F1000DEFFEDCFDDFFFD0EDBCFE9FFFE0EDBCFE9
:102F2000EAFFEECF14F0EFCF15F0FF0E1416000EEF
:102F30001516020E14C0DBFF030E15C0DBFFFD0EDD
:102F4000DBCFE9FFFE0EDBCFEAFFEECF14F0EFCFD1
:102F500015F015C014F0156AFF0E1416000E1516A4
:102F6000040E14C0DBFF050E15C0DBFF040EDB50A2
:102F7000D76E020EDB50D66ED650E66ED950060FD5
:102F8000E96EDACFEAFFE552E750EE6EED6A06D061
:102F90000A0EDB2A0B0E01E3DB2A54D7D9500A0FA5
:102FA000E96EDACFEAFF310EEE1801E1ED500AE1E9
:102FB000E70EF36E0A0EF3CFDBFF030EF36E0B0E7C
:102FC000F3CFDBFF0101CA51CB113CE1010EE76EEB
:102FD0000A0EDBCF14F00B0EDBCF15F0E7501426F2
:102FE000000E152214C0E6FF15C0E6FFBA0E166EDD
:102FF000470E176E186A16C0E6FF17C0E6FF18C026
:10300000E6FFD80EE66E060EE66EDCEC21F0196ED9
:10301000070EE15E1950080EF3CFDBFF090EF4CF67
:10302000DBFFC00EE66ECAC1E6FFCBC1E6FFD80EDD
:10303000E66E060EE66E63EC12F0146E050EE15EAF
:1030400014503BD0010EE76E0A0EDBCF14F00B0ECE
:10305000DBCF15F0E7501426000E152214C0E6FF52
:1030600015C0E6FFA70E166E470E176E186A16C03B
:10307000E6FF17C0E6FF18C0E6FFD80EE66E060EA4
:10308000E66EDCEC21F0196E070EE15E1950080EB9
:10309000F3CFDBFF090EF4CFDBFFC00EE66ECAC133
:1030A000E6FFCBC1E6FFD80EE66E060EE66E63ECD9
:1030B00012F0146E050EE15E1450010EF36EF46A08
:1030C0000E0EE15C03E200D0E16AE552E16EE552EA
:1030D000E7CFD9FF1200D9CFE6FFE1CFD9FF080E25
:1030E000E126040EDB6A050EDB6A060EDB6A070EBC
:1030F000DB6AC294C296C288C29AC280C282C2B23D
:10310000FED7C290C450DE6EDD6ADECF14F0DDCF94
:1031100015F0D89014361536D8901436153614C0DC
:10312000DEFF15C0DDFFC350E66ED950020FE96E19
:10313000DACFEAFFE552E750EE6EED6A020EDBCF22
:1031400014F0030EDBCF15F0060ED89015321432B2
:10315000E804FBE1020E14C0DBFF030E15C0DBFF29
:10316000020EDBCF18F0030EDBCF19F0DE5018246F
:10317000146EDD501920156E166A176A15AE02D04E
:1031800016681768040E14C0DBFF050E15C0DBFFC0
:10319000060E16C0DBFF070E17C0DBFF040EDBCFE9
:1031A00014F0050EDBCF15F014C0F3FF15C0F4FFCB
:1031B000080EE15C03E200D0E16AE552E16EE552FF
:1031C000E7CFD9FF1200D9CFE6FFE1CFD9FF0C0E30
:1031D000E126040EDB6A050EDB6AA00EF36E060E16
:1031E000F3CFDBFF3B0EF36E070EF3CFDBFFFD0EDD
:1031F000DBCF08F0FE0EDBCF09F0E3EC1FF0080E8A
:1032000007C0DBFF090E08C0DBFF0A0E09C0DBFFA9
:103210000B0E0AC0DBFF040EDBCF07F0050EDBCF81
:1032200008F0060EDBCF09F0070EDBCF0AF0080E20
:10323000DBCF0CF0090EDBCF0DF00A0EDBCF0EF06A
:103240000B0EDBCF0FF0F6EC1FF007C0DEFF08C05F
:10325000DEFF09C0DEFF0AC0DDFFDD52DD52D9CF3F
:10326000E9FFDACFEAFFEECF14F0EECF15F0EECFA4
:1032700016F0EFCF17F00C6A0D6A0E6A400E0F6E53
:1032800014C007F015C008F016C009F017C00AF006
:10329000F6EC1FF007C0DEFF08C0DEFF09C0DEFF4E
:1032A0000AC0DDFFDD52DD52DECF06F0DECF07F0D3
:1032B000DECF08F0DDCF09F0DD52DD520C0EE15C0F
:1032C00003E200D0E16AE552E16EE552E7CFD9FFB3
:1032D0001200D9CFE6FFE1CFD9FF080EE126FB0EA1
:1032E000DBCF07F0FC0EDBCF08F0FD0EDBCF09F0E3
:1032F000FE0EDBCF0AF027EC21F008C0DEFF09C08C
:10330000DDFFFB0EDBCF18F0FC0EDBCF19F0FD0E5E
:10331000DBCF1AF0FE0EDBCF1BF00C6A0D6AC80E75
:103320000E6E420E0F6E18C007F019C008F01AC0DA
:1033300009F01BC00AF0F6EC1FF007C014F008C03B
:1033400015F009C016F00AC017F0640E086E096A7D
:10335000DECF0DF0DDCF0EF0FAEC20F006C020F04D
:1033600007C021F020C008F021C009F0E3EC1FF0F5
:1033700007C01CF008C01DF009C01EF00AC01FF0F5
:103380001CC00CF01DC00DF01EC00EF01FC00FF0D1
:1033900014C007F015C008F016C009F017C00AF0F5
:1033A00063EC20F027EC21F0020E08C0DBFF030ED7
:1033B00009C0DBFF020EDBCFE6FF030EDBCFE6FF2B
:1033C000DECFE6FFDDCFE6FF960E146E470E156EDC
:1033D000166A14C0E6FF15C0E6FF16C0E6FFE80E49
:1033E000E66E060EE66EDCEC21F0176E090EE15E6D
:1033F0001750040EF3CFDBFF050EF4CFDBFFD950DF
:10340000060FE96EDACFEAFFE80EEE6E060EED6EFD
:10341000060EDBCF14F0070EDBCF15F014C0F3FF60
:1034200015C0F4FF080EE15C03E200D0E16AE5524A
:0A343000E16EE552E7CFD9FF12006C
:06343A00DACFE4FFE2CF4F
:10344000DAFFE9CFE4FFEACFE4FFF6CFE4FFF7CFFE
:10345000E4FFF5CFE4FFF3CFE4FFF4CFE4FFFACFCE
:10346000E4FF00EE00F0140EE80403E3EECFE4FF07
:10347000FBD700EE14F00E0EE80403E3EECFE4FFFA
:10348000FBD7E6520101010ECE1901E1CF5105E053
:10349000010ECC1901E1CD5142E1F2940001EA5153
:1034A000D66EEBC022F0236A2250D76E6BEC18F078
:1034B000F3CFC8F1F4CFC9F1C8C1E6FFC9C1E6FF37
:1034C000E3EC18F0E552E55206C0EEF007C0EFF06D
:1034D00008C0F0F009C0F1F0EEC0E6FFEFC0E6FF73
:1034E000F0C0E6FFF1C0E6FF69EC19F0E552E552E5
:1034F000E552E552F3CFE8F0F4CFE9F0D2C1E6FFB0
:10350000CAC1E6FFCBC1E6FFE8C0E6FFE9C0E6FFBF
:1035100063EC12F0226E050EE15E22500BD0F294A5
:103520000001EA51D66EEBC022F0236A2250D76E1A
:103530008D708B70E55200EE21F00E0EE80403E36F
:10354000E5CFEDFFFBD700EE13F0140EE80403E324
:10355000E5CFEDFFFBD7E5CFFAFFE5CFF4FFE5CFF1
:10356000F3FFE5CFF5FFE5CFF7FFE5CFF6FFE5CFBA
:10357000EAFFE5CFE9FFE5CFDAFF1100D8CFE4FF9E
:10358000E0CFE4FFE46EDACFE4FFE2CFDAFFE65209
:10359000E552E5CFDAFFE550E5CFE0FFE5CFD8FF14
:1035A0001000D9CFE6FFE1CFD9FF0E0EE126DE6A8B
:1035B000DD6A060EDB6A070EDB6A080EDB6A090E9F
:1035C000DB6A0A0EDB6A0B0EDB6A0001EA0EEC6FA7
:1035D000000EED6FD950020F146EDACF15F0040E05
:1035E00014C0DBFF050E15C0DBFFB00EEA6FED0E59
:1035F000EB6FF6D82FD9F3CFCAF1F4CFCBF133EC80
:1036000006F0D58E9BEC08F081B223D00101CE519B
:10361000CF110EE1ECC0E6FFEDC0E6FF55EC06F081
:10362000E552E5520C0EF3CFDBFF0D0EF4CFDBFFBE
:103630000C0EDBCFE6FF0D0EDBCFE6FF47EC07F00D
:10364000E552E5520C0EF3CFDBFF0D0EF4CFDBFF9E
:10365000BBD081B00DD00101CC51CD1108E1ECC03F
:10366000E6FFEDC0E6FFD1EC06F0E552E552ACD046
:103670000101D051D11139E11EEC07F07FEC16F0B9
:10368000020EF3CFDBFF030EF4CFDBFF040EDBCF24
:10369000E6FF050EDBCFE6FFECC0E6FFEDC0E6FF80
:1036A0000FEC17F0E552E552E552E552F3CF14F076
:1036B000F4CF15F014C008F015C009F0E3EC1FF0CA
:1036C000060E07C0DBFF070E08C0DBFF080E09C0AF
:1036D000DBFF090E0AC0DBFF020EDBCFDEFFDBCF14
:1036E000DDFF0A0EDB6A0B0EDB6AD9500A0FE96EAA
:1036F000DACFEAFF0A0EEE1801E1ED5060E17FEC4F
:1037000016F0020EF3CFDBFF030EF4CFDBFF0A0E41
:10371000DB6A0B0EDB6ADECF16F0DDCF17F0020E90
:10372000DB50165C146E030EDB501758156E153403
:1037300004E214500A08000E155415E3DECF1AF007
:10374000DDCF1BF0020EDB501A5C186E030EDB504F
:103750001B58196ED880195004E7F60E185CFF0E3E
:10376000195801E32BD0040EDBCFE6FF050EDBCFAB
:10377000E6FFECC0E6FFEDC0E6FF0FEC17F0E55208
:10378000E552E552E552F3CF14F0F4CF15F014C032
:1037900008F015C009F0E3EC1FF0060E07C0DBFFD0
:1037A000070E08C0DBFF080E09C0DBFF090E0AC0C8
:1037B000DBFF020EDBCFDEFFDBCFDDFF05D00A0E25
:1037C000DB2A0B0E01E3DB2A50D81CD70E0EE15C7E
:1037D00002E2E16AE552E16EE552E7CFD9FF12005D
:1037E0000F0EC11202D80FEF08F00001F46BF36B5B
:1037F000010EF26F8C6A956A8D6A966A8B6A946A7A
:1038000093809382F19E91EC11F092809282928447
:1038100092869288928AC290C294C296C298C29AA4
:10382000C19AC198C190C192C194C186C09EC08600
:10383000C098C09AC090C082C084D58ED59CD59ABD
:10384000D598D596D584D582D580F28EF294F28A19
:10385000F184120081B405D0010EF36EF46A04D035
:1038600003D0F36AF46A00D01200D9CFE6FFE1CFAB
:10387000D9FF020EE126200E0201E76EC819E8AE5C
:1038800002D0E73402D0E750C85D03E36D50020B6D
:1038900001E05FD00101D6515AE1400EE66EA00E64
:1038A000E66E000EE66E3EEC1EF0E552E552E55285
:1038B000DF6EDF504CE0010EDB6ADF50F36E010E6D
:1038C000DBCFF4FFF350F45C37E2010EDB50EA6A21
:1038D000A00FE96E000EEA22EF500A0A16E0070A6E
:1038E00014E0010EDB50EA6AA00FE96E000EEA2236
:1038F000EF28E66E010EDB50EA6A600FE96E000EFB
:10390000EA22E552E750EF6E14D0010EDB50EA6A6E
:10391000A00FE96E000EEA22EF50E66E010EDB50BA
:10392000EA6A600FE96E000EEA22E552E750EF6E98
:1039300000D0010EDB2AC1D7DFCFE6FF600EE66EB6
:10394000000EE66E9FEC1EF0E552E552E5523BECB0
:103950001FF0020EE15C02E2E16AE552E16EE5521F
:10396000E7CFD9FF12000101D351D41104E1100EA9
:10397000D36F270ED46FD307000ED45B6DA20AD08D
:10398000D351D41106E18C708CA002D08C8201D06E
:103990008C922ED00201C85103E18C908C9228D0D9
:1039A000C80503E18C808C8223D0020EC85D03E140
:1039B0008C808C921DD0040EC85D03E18C908C82AB
:1039C00017D0100EC85D07E10101D351D41102E1F7
:1039D0008C708C920DD0200EC85D0AE10101D3518C
:1039E000D41106E18C708CA002D08C9201D08C8214
:1039F0001200120012001200120073EF1DF01200EC
:103A0000C4EF1DF00201EB051EE10201EC051BE114
:103A1000F1DF6D920201EC6B0001100EF56F0E0EDE
:103A2000F66FF507000EF65BF551F611FAE16D84BD
:103A3000080EF56F070EF66FF507000EF65BF551F1
:103A4000F611FAE16D941200D9CFE6FFE1CFD9FF6C
:103A5000FD0EDBCF08F0FE0EDBCF09F0050E0818D7
:103A600001E1095039E0E868081802E17F0E091801
:103A700031E0030E081801E109502AE0020E08188F
:103A800001E1095023E0010E081801E109501CE092
:103A9000740E081801E1095015E0750E081801E1CF
:103AA00009500EE0730E081801E1095007E0720E8C
:103AB000081801E1095001E010D00FD09CDF0DD0B3
:103AC00098DF0BD097DF09D09BDF07D098DF05D0B8
:103AD00094DF03D091DF01D000D0010E00D0E55279
:063AE000E7CFD9FF120040
:0A3AE600040130511F0B010801E03C
:103AF0004AD03051600BE842E842E842E842E842EE
:103B0000010801E040D0345103E0340501E03BD02E
:103B10003151220A33E0030A26E0010A17E0210AA4
:103B20000EE0010A01E02FD00201E60EDD6F010E6A
:103B3000DE6F080EE06FE16BDF81DF8F24D00201C2
:103B4000E60EDD6F010EDE6FDF8F1DD036C4E5F2AD
:103B500037C4E6F20201880EE26F050EE36FE76BF1
:103B6000E86BE48F10D00201880EDD6F050EDE6F6A
:103B7000070EE06FE16BC10EDF6F05D032C4E1F1DB
:103B80000201DF8F00D012000501886B4B0E896F98
:103B90008A6B8B6B8C6B8D6B080E8E6F0101D56BF6
:103BA0001A0EE66E010EE66E07EC10F0E552E552D5
:103BB0001E0EE66E020EE66E07EC10F0E552E552C0
:103BC000400EE66E080EE66E050EE66EE66A020E22
:103BD000E66EAEEC10F0146E050EE15E1450F3CFFD
:103BE000DDF1F4CFDEF10101DF6BE06BD66B12008B
:103BF000D9CFE6FFE1CFD9FFFD0EDBCF08F0FE0EF7
:103C0000DBCF09F0050E081801E1095002E0000EB3
:103C100031D0FB0EDBCF14F0FC0EDBCF15F0010131
:103C2000DD51141802E1DE51151813E1400EE66E65
:103C3000080EE66E050EE66EE66A020EE66EAEEC65
:103C400010F0146E050EE15E1450F3CFDDF1F4CFE9
:103C5000DEF1FB0EDBCF14F0FC0EDBCF15F0010123
:103C6000DF51141802E1E051151802E1D66BDB6B4D
:103C7000010E00D0E552E7CFD9FF1200D9CFE6FF01
:103C8000E1CFD9FF0101D56BDD51DE1102E1000E5C
:103C900008D0DDC1E9FFDEC1EAFFEF50800B01E093
:103CA000010E000945E1FC0EDBCF14F0DDC1E9FF98
:103CB000DEC1EAFFEE52EF50D880145408E2DDC1B5
:103CC000E9FFDEC1EAFFEE52FC0EEFCFDBFFD56B62
:103CD000FC0EDB50D55D19E2D551EA6A080FE96E9A
:103CE000050EEA22EF50E66ED551E76EFD0EDBCFF2
:103CF000E9FFFE0EDBCFEAFFE750E926000EEA22DD
:103D0000E552E750EF6ED52BE3D7400EE66E080E76
:103D1000E66E050EE66EE66A020EE66EAEEC10F09A
:103D2000146E050EE15E1450F3CFDDF1F4CFDEF139
:103D30000101D55100D0E552E7CFD9FF1200D9CF0C
:103D4000E6FFE1CFD9FF0101D6510CE1FD0EDBCF3B
:103D5000D7F1FE0EDBCFD8F1FC0EDBCFDBF1010E8D
:103D6000DC6FD66FE552E7CFD9FF1200D9CFE6FF5F
:103D7000E1CFD9FF030EE1260101D65101E02ED09B
:103D8000DF6AFD0EDBCF08F0FE0EDBCF09F0DE525E
:103D900008C0DEFF09C0DDFFDD52DF2ADF50146EF0
:103DA000156AFF0E141801E1155001E10BD0010E48
:103DB000DBCFE9FFDB2A020EDBCFEAFF01E3DB2AE0
:103DC000EF50EBE1FD0EDBCFD7F1FE0EDBCFD8F1EC
:103DD000DFCFDBF10101010EDC6FD66F030EE15C7A
:103DE00002E2E16AE552E16EE552E7CFD9FF120047
:103DF000D9CFE6FFE1CFD9FF030EE1260101D6516D
:103E000001E02FD0DF6AFD0EDBCF08F0FE0EDBCF26
:103E100009F0DE5208C0DEFF09C0DDFFDD52DF2AF7
:103E2000DF50146E156AFF0E141801E1155001E100
:103E30000CD0010EDBCFF6FFDB2A020EDBCFF7FF43
:103E400001E3DB2A0800F550EAE1FD0EDBCFD7F1F4
:103E5000FE0EDBCFD8F1DFCFDBF10101DC6B010E11
:103E6000D66F030EE15C02E2E16AE552E16EE552D3
:103E7000E7CFD9FF1200D9CFE6FFE1CFD9FF020E7D
:103E8000E1260101DF51E01102E1000E08D0DFC19F
:103E9000E9FFE0C1EAFFEF50800B01E0010E0009ED
:103EA00001E085D0030ED65D01E1D66BD65101E16C
:103EB0007ED0020ED65D16E1E66A000EE66EE66A78
:103EC000010EE66E020EE66EAEEC10F0146E050EFC
:103ED000E15E1450F3CFDFF1F4CFE0F10101030E06
:103EE000D66F65D0D60563E1400E146E156ADB51BE
:103EF000145C000E155803E2400EDF6E02D0DBC1E9
:103F0000DFFFDF50DB5DDB6F480ED96F050EDA6F28
:103F1000010EDFCFDBFFDC5117E1010EDB5013E0B8
:103F2000D7C1F6FFD8C1F7FF0800F550D9C1E9FFA6
:103F3000DAC1EAFFEF6ED92B000EDA23D72BD82394
:103F4000010EDB06EAD715D0010EDB5012E0D7C117
:103F5000E9FFD8C1EAFFEF50D9C1E9FFDAC1EAFFB2
:103F6000EF6ED92B000EDA23D72BD823010EDB06F8
:103F7000EBD7DB5108E1400EDF5C03E1020ED66FA8
:103F800002D0030ED66FDFCFE6FF480EE66E050EB9
:103F9000E66E010EE66E020EE66EAEEC10F0146EEA
:103FA000050EE15E1450F3CFDFF1F4CFE0F1020E25
:103FB000E15C02E2E16AE552E16EE552E7CFD9FF4A
:023FC0001200ED
:0E3FC200019E08D0019E09AE05D0086C091EB4
:103FD000E86A0922018E09C003F008C002F0136AE2
:103FE000126A8E0E046E056A72EF21F0016AAEEC61
:103FF00021F0C6EC21F001B656EF21F001A205D068
:1040000001B856EF21F05DEF21F001AA05D001B013
:1040100056EF21F05DEF21F001B002D001A802D0EF
:1040200069EF21F0056A0F500A24046EE86A052240
:104030007E0E045EE86A055A126A136A026A036A0F
:104040000E500902F4CF03F0F3CF02F00D50090235
:10405000F3501326F4500222000E03220E500802E1
:10406000F3501326F4500222000E03220C500902D2
:10407000F3501226F4501322000E022203220D5098
:104080000802F3501226F4501322000E02220322DB
:104090000E500702F3501226F4501322000E022293
:1040A00003220C500802F4501226000E13220222A2
:1040B00003220D500702F4501226000E1322022292
:1040C000032272EF21F00F7E016AAEEC21F0C6EC04
:1040D00021F001B656EF21F001A20AD001AA03D0C7
:1040E00001BE56EF21F001A462EF21F05FEF21F055
:1040F00001AA05D001AC62EF21F05FEF21F001A031
:104100000AD001A808D001BE04D001A402D06BEFF0
:1041100021F06FEF21F0126A056A0F500A5C116EF0
:1041200010E307C013F008C002F009C003F00AC092
:1041300010F00CC007F00DC008F00EC009F0013AF5
:1041400009D00CC013F00DC002F00EC003F00FC078
:1041500010F0116C019E01BC018E10C004F001B082
:104160009EEF21F01A0E11609EEF21F0046A0A6A98
:1041700001A408D0076C081E091E0A1EE86A08225E
:1041800009220A2201AC08D0136C021E031E041E71
:10419000E86A022203220422066A115207E00A3466
:1041A0000932083207320632112EF9D7075013268A
:1041B00008500222095003220A50042206C012F0BD
:1041C000019E04AE0BD0126C131E021E031E041EB1
:1041D000E86A1322022203220422018E04A006D0E0
:1041E000D8800332023213321232102A10C004F087
:1041F00072EF21F009C013F008C012F008500D0250
:10420000F4CF07F0F3CF06F009500E02F4CF09F017
:10421000F3CF08F00D02F3500726F4500822E86AA5
:10422000092212500E02F3500726F4500822E86AC1
:1042300009220EAE20EF21F01250085E1350095AE9
:1042400013AE000C0D50085E0E50095A000C016AA6
:10425000AEEC21F001B631EF21F001A20ED001B495
:1042600005D07F0E096EFF0E086E1FD0800E096EFE
:10427000086A1BD0096A086A18D001B0FBD78F0EF4
:104280000A60EDD77E0E0A64F5D78E0E0A5C05E053
:10429000D890093208320A2AF8D701A406D0086C4F
:1042A000091EE86A092209AEE5D712007F0E0A6EE0
:1042B000FF0E096E086E076E12007F0E01BEFF0E24
:1042C0000A6E02D07F0E0A6E800E096E086A076AB7
:1042D000F3D701AE04D0800E0A6E096AF7D70A6AD6
:1042E000096AF4D70350021013101210F8E005BE4B
:1042F000F0D703BE0CD004500510EBE0D890123676
:104300001336023603360406D8A00506F2D7055048
:10431000D4E10428D2E012AE11D07F0E121402E1D3
:1043200013A00CD0132AE86A0222032207E3D880E4
:10433000033202321332042A0428BFE00450C9E0D9
:1043400013C007F002C008F00334096E04300A6E8F
:1043500009320A9E01BE0A8E5CEF21F009360A3648
:1043600002E30184017E06E101800A6A096A086AA3
:10437000076A12000A2803E0D88009321200D89098
:10438000093202E101821200018612000E360F3658
:1043900002E3018C017E06E101880F6A0E6A0D6A54
:1043A0000C6A12000F2803E0D8800E321200D89059
:0843B0000E32EAE1018A12005D
:0843B800D9CFE6FFDACFE6FFE2
:1043C000E1CFD9FFE2CFDAFFE652E652E652E652FB
:1043D000D950F90F146EFF0EDA20156E020E14C0BC
:1043E000DBFF030E15C0DBFF020EDBCFE6FF030E83
:1043F000DBCFE6FFF90EDBCFE6FFFA0EDBCFE6FF01
:10440000FB0EDBCFE6FFD950FC0FE66EFF0EDA2085
:10441000E66E38EC00F0146E070EE15C02E2E16A31
:10442000E552E16E1450F3CFDEFFF4CFDDFFFC0E5A
:10443000DBCFE9FFFD0EDBCFEAFFEF6ADECF14F042
:10444000DDCF15F014C0F3FF15C0F4FF040EE15CDE
:1044500002E2E16AE552E16EE552E5CFDAFFE7CF2D
:04446000D9FF12006E
:0C4464001E0EF66E000EF76E000EF86ED5
:1044700005010900F550946F0900F550956F03E1AF
:10448000946701D03DD00900F5508F6F0900F550B9
:10449000906F0900F550916F09000900F550E96E21
:1044A0000900F550EA6E090009000900F550926F05
:1044B0000900F550936F09000900F6CF96F5F7CF84
:1044C00097F5F8CF98F58FC5F6FF90C5F7FF91C522
:1044D000F8FF0501925302E1935307E00900F550FC
:1044E000EE6E9207F8E29307F9D796C5F6FF97C5E7
:1044F000F7FF98C5F8FF05019407000E955BBFD73D
:024500001200A7
:0E450200FE0EE3CFE9FFFF0EE3CFEAFFE9CFA5
:10451000F3FFEACFF4FFFB0EE35003E1FC0EE350A0
:1045200009E0FB0EE30602E2FC0EE306FD0EE3509B
:10453000EE6EF1D71200FE0EE3CFE9FFFF0EE3CFE0
:10454000EAFFF36AF46AEE5203E0F34AF42AFBD777
:104550001200FF0EE3CFF8FFE552FF0EE3CFF7FFA7
:10456000E552FF0EE3CFF6FFE552E66AE66AE66A39
:104570000900F55209E0FD0EE32A05E1FE0EE32AEB
:1045800002E1FF0EE32AF4D7FD0EE3CF07F0FE0EA3
:0C459000E3CF08F0FF0EE3CF09F01200AB
:04459C002020204D6E
:1045A0004F564945204741544520202020202020B7
:1045B000202020202020202020202020004D4720C7
:1045C00020202020000E4869676820202020004C11
:1045D0006F7720202020200020202050756C7365EC
:1045E000204D6F64652020202020202020202020C6
:1045F00020202020202000000050756C73652020B2
:104600000084202020204443204D6F64652020201A
:10461000202020202020202020202020202020209A
:0C46200020200044432020202020200007
:04462C00D9CFE6FFFD
:10463000DACFE6FFE1CFD9FFE2CFDAFFFB0EDBCF27
:1046400014F0FC0EDBCF15F00001800E15141AE1FA
:10465000FB0EDBCFE9FFFC0EDBCFEAFFEECFF3FF73
:10466000EDCFF4FFEE2A000EEF22F3CFE9FFF4CFF7
:10467000EAFFFD0EDBCFEFFFEF50156AF36E15C0BA
:10468000F4FF10D0FB0EDB50FE0806E1FD0EDBCF81
:10469000E6FF21EC24F005D0FD0EDBCFE6FF03ECB6
:1046A00008F0E552E552E5CFDAFFE7CFD9FF120077
:1046B00006500B02F3CF02F0F4CF03F00C02F350DC
:1046C0000326000EF420046E06500D02F35004265B
:1046D000000EF420056E06500E02F350052607501A
:1046E0000B02F3500326F4500422000E052207505B
:1046F0000C02F3500426F450052207500D02F3502B
:10470000052608500B02F3500426F45005220850E9
:104710000C02F350052609500B02F3500526120037
:10472000056A046A036A026A200EE76ED8900636AC
:1047300007360836093602360336043605360B507E
:10474000025C0C5003580D5004580E50055809E3F4
:104750000B50025E0C50035A0D50045A0E50055A6D
:08476000062AE72EE4D712003F
:08476800FF0EE350256EEF0E79
:1047700001D0F30EE76EE72EBBEF23F00C0E246E94
:10478000E76AE72EC1EF23F0242EC0EF23F0252E99
:06479000B9EF23F0120056
:0A479600253031692E2530326941CB
:1047A0002020202020200020202020202025303103
:1047B00069487A2020202020200025303169487A5D
:0147C00000F8
:0E47C200F36AF46AFF0EE124E96EFF0EE220B6
:1047D000EA6EED6607D02F0EEF6404D03A0EEF605C
:0647E00001D0F32A1200D3
:0A47E600FF0EE350256E480E01D0CF
:1047F0004C0EE76EE72EFED7E76AE72EFED7252E92
:06480000F7D700001200D2
:0A480600000EF36E00EE00F0080E45
:1048100001D81200EA6002D0EE6AFCD7F350E960DA
:064820001200EE6AFCD755
:0A48260013EE00F023EE00F0F86A34
:10483000019C32EC22F003EC00F0D1EC1AF0FBD733
:02484000120064
:0E484200FF0EE350ACBA04D0AF6AAB8EAC8A66
:0E485000949CACA2FED7AD6EF36EF46A12001B
:02485E00FF0E4B
:10486000E350256E1B0E00D001D0200EE76EE72E20
:0A487000FED7252EFAD700D0120063
:06487A0030313233343509
:0B4880003637383961626364656600FA
:05488B009600A500B439
:1048900000C300D200E100F000FF000E011D012C5A
:1048A000013B01540163017201810190019F01AE3E
:1048B00001BD01CC01DB01EA01F901080217022662
:1048C000023502440253026202710280028F029E8C
:1048D00002AD02BC02CB02DA02E902F802070316BB
:1048E0000325033403430352036103700301046F80
:1048F000A437D27AE11CE9B0EDBDF0EBF28EF4D32F
:10490000F5D8F6ADF75FF8F5F876F9E5F947FA9DD1
:10491000FAEAFA2EFB6CFBA4FBD6FB05FC2FFC5637
:10492000FC7AFC9CFCBBFCD8FCF3FC0CFD23FD3AA0
:10493000FD4FFD62FD75FD86FD97FDA7FDB6FDC42B
:10494000FDD2FDDFFDEBFDF7FD02FE0DFE18FE22A0
:10495000FEE9FF00000000000000000000800000F1
:104960009600A500B400C300D200E100F000FF00F3
:104970000E011D012C013B015401630172018101F3
:1049800090019F01AE01BD01CC01DB01EA01F901FB
:104990000802170226023502440253026202710223
:1049A00080028F029E02AD02BC02CB02DA02E90253
:1049B000F80207031603250334034303520361037C
:1049C000700301046FA437D27AE11CE9B0EDBDF0A9
:1049D000EBF28EF4D3F5D8F6ADF75FF8F5F876F98B
:1049E000E5F947FA9DFAEAFA2EFB6CFBA4FBD6FB2D
:1049F00005FC2FFC56FC7AFC9CFCBBFCD8FCF3FCB1
:104A00000CFD23FD3AFD4FFD62FD75FD86FD97FD12
:104A1000A7FDB6FDC4FDD2FDDFFDEBFDF7FD02FEF7
:084A20000DFE18FE22FEE9FF65
:084A28009600A500B400C300D4
:104A3000D200E100F000FF000E011D012C013B013E
:104A4000540163017201810190019F01AE01BD011A
:104A5000CC01DB01EA01F901080217022602350246
:104A6000440253026202710280028F029E02AD0272
:104A7000BC02CB02DA02E902F8020703160325039F
:104A80003403430352036103700301046FA437D25C
:104A90007AE11CE9B0EDBDF0EBF28EF4D3F5D8F677
:104AA000ADF75FF8F5F876F9E5F947FA9DFAEAFA15
:104AB0002EFB6CFBA4FBD6FB05FC2FFC56FC7AFC02
:104AC0009CFCBBFCD8FCF3FC0CFD23FD3AFD4FFD28
:104AD00062FD75FD86FD97FDA7FDB6FDC4FDD2FD07
:104AE000DFFDEBFDF7FD02FE0DFE18FE22FEE9FFE5
:020000040030CA
:0100000024DB
:010001000EF0
:010002003FBE
:010003001EDE
:010005008179
:010006008178
:010008000FE8
:01000900C036
:01000A000FE6
:01000B00E014
:01000C000FE4
:01000D0040B2
:00000001FF
